:020000040800F2
:1000000000000320BD050008DD210008DF210008F5
:10001000E1210008E3210008E521000800000000BC
:1000200000000000000000000000000081770008D0
:10003000E721000800000000117800088770000820
:100040000D0600080D0600080D0600080D06000844
:100050000D0600080D060008292200080D060008FC
:100060000D0600080D0600080D0600080D06000824
:100070000D0600080D0600080D0600080D06000814
:100080000D0600080D060008E92100080D0600080D
:100090000D0600080D0600080D0600080D060008F4
:1000A0000D0600080D0600080D0600080D060008E4
:1000B0000D0600080D0600080D0600080D060008D4
:1000C0000D0600080D0600080D0600080D060008C4
:1000D0000D0600080D0600080D0600080D060008B4
:1000E0000D0600080D0600080D0600080D060008A4
:1000F0000D0600080D0600080D0600080D06000894
:100100000D0600080D0600080D0600080D06000883
:100110000D0600080D060008052200080D0600085F
:100120000D0600080D0600080D0600080D06000863
:100130000D0600080D0600080D0600080D06000853
:100140000D0600080D0600080D0600080D06000843
:100150000D0600080D0600080D0600080D06000833
:100160000D0600080D0600080D0600080D06000823
:100170000D0600080D0600080D060008000000002E
:100180000D0600080D0600080D0600080D06000803
:100190000D0600080D0600080D0600080D060008F3
:0C01A000112200080D0600081D220008B6
:1001B00010B5054C237833B9044B13B10448AFF3A1
:1001C00000800123237010BDF40000200000000017
:1001D0002C3E010808B5034B1BB103490348AFF39C
:1001E000008008BD00000000F80000202C3E01083F
:1001F00001F0FF01102A2BDB10F0070F08D010F8D8
:10020000013B013A8B422DD010F0070F42B3F6D1DB
:10021000F0B441EA012141EA014122F007047FF0F4
:1002200000070023F0E80256083C85EA010586EA4B
:10023000010685FA47F5A3FA87F586FA47F6A5FA87
:1002400087F68EB9EED1F0BC01F0FF0102F0070293
:1002500032B110F8013B013A83EA010313B1F8D13E
:100260000020704701387047002D06BF354603381F
:10027000073815F0010F07D1013015F4807F02BF58
:10028000013015F4C03F0130F0BC0138704700BFA9
:1002900053B94AB9002908BF00281CBF4FF0FF31ED
:1002A0004FF0FF3000F088B9ADF1080C6DE904CED5
:1002B00000F006F8DDF804E0DDE9022304B0704741
:1002C0002DE9F047089D0F4604468C46002B48D187
:1002D0008A42164661D9B2FA82F34BB1C3F12002C9
:1002E00001FA03FC20FA02F29E4042EA0C0C9C4008
:1002F0004FEA164EB7B2BCFBFEF1220C0EFB11CC3E
:1003000042EA0C4201FB07F0904209D9B21801F110
:10031000FF3C80F0EE80904240F2EB8002393244A4
:10032000121AA4B2B2FBFEF00EFB102244EA024401
:1003300000FB07F7A74209D9341900F1FF3280F01A
:10034000DA80A74240F2D7803444023840EA0140C4
:10035000E41B00211DB1DC400023C5E90043BDE8DA
:10036000F0878B4206D90DB1C5E90001002108468E
:10037000BDE8F087B3FA83F1002948D1BB4202D32C
:10038000824200F20781841A67EB0302012094463F
:10039000002DE4D0C5E9004CE1E7002A00F092808E
:1003A000B2FA82F3002B40F0A8808A1A4FEA164E68
:1003B0001FFA86FC0121200CB2FBFEF70EFB172270
:1003C00040EA02420CFB07F0904207D9B21807F14D
:1003D000FF3802D2904200F2E2804746121AA4B2DD
:1003E000B2FBFEF00EFB102244EA02440CFB00FCC0
:1003F000A44507D9341900F1FF3202D2A44500F216
:10040000CB801046A4EB0C0440EA0740A2E7C1F100
:1004100020068B4022FA06FC4CEA030C07FA01F492
:1004200020FA06F3F7404FEA1C49234300FA01F88B
:100430001FFA8CFEB7FBF9F01C0C09FB107744EA9D
:10044000074400FB0EF7A74202FA01F20AD91CEB9F
:10045000040400F1FF3A80F09B80A74240F29880AC
:1004600002386444E41B9FB2B4FBF9F309FB134464
:1004700047EA044403FB0EFEA64509D91CEB04041D
:1004800003F1FF3780F08280A6457FD9023B6444A8
:1004900043EA0040A4EB0E04A0FB02E7BC42734613
:1004A000B94663D360D05DB1B8EB030264EB0904D5
:1004B00004FA06F622FA01F31E43CC40C5E90064B3
:1004C00000214CE76208480842EAC1710B0C43EA7C
:1004D00000438AB242EA0342B3FBF6F1E407B446B2
:1004E0003746B6461F23B0FBF6F0D21B41EA004167
:1004F00061E7614614E7104628E7C3F1200120FABE
:1005000001F29E4027FA01F19F403A434FEA164E0E
:100510001FFA86FCB1FBFEF70EFB1710110C41EA27
:10052000004107FB0CF8884504FA03F43AD9711826
:1005300007F1FF3001D288451FD8A1EB0801B1FBBC
:10054000FEF808FB0CF70EFB181192B242EA0142CA
:10055000BA422FD2B21808F1FF31C6D2BA42C4D281
:10056000A8F102013244C0E7F0459CD2BEEB020381
:1005700067EB0C070138B94695E7A6EB080841443C
:10058000B81EB1FBFEF808FB0CF7DCE73B467FE743
:10059000504667E70846FBE63444023832E7023F3C
:1005A00032441BE7A1EB08013846B1FBFEF808FB1B
:1005B0000CF7C8E7414698E7704700BFDFF834D032
:1005C000002103E00C4B5B58435004310B480C4BAB
:1005D00042189A42F6D30B4A02E0002342F8043B49
:1005E000094B9A42F9D303F053FF12F0B7FE00F023
:1005F00053FF70470000032058FB1508000000203F
:10060000F4000020F40000205C2C0120FEE770477D
:1006100008B500F039FDBDE8084000F0C3BC00F0AB
:1006200035BD704710B50421044612F059FB204631
:1006300010BD000038B50C4B0C4C18800C4B8220C0
:1006400019806368984740F6110398420AD1094D12
:1006500023682C60822098472B688220DB689847AB
:10066000002038BD0120FCE71A01002050000020C6
:10067000180100201C0100204FF4A071F020FFF7AA
:10068000D9BF0000F7B5354D2B6804461B698220A1
:100690009847208000284BD02B680DF106025B693B
:1006A00001A982209847BDF8063040F67462934253
:1006B00040D9ADF80620BDF80630D21A92B20A2A07
:1006C0003ED90B23B2FBF3F2254B1B889A4201D98A
:1006D000013B9AB2BDF80430224840F6B8318B4253
:1006E00030D8C3F571630E3301689BB20F25B3FB9D
:1006F000F5F31D4D2D88AB4284BF05F1FF35ABB23C
:100700008B421D468EB226D99B1B99B2174F3E686D
:10071000B3B2B2428CBFD31A9B1A9BB219440529BB
:10072000C8BF05600368C4BF3A6016466380A680F0
:1007300003B0F0BDB32B9CBFB423ADF80630BAE7CD
:100740000022C7E7C3F56D6308339BB20E2B016827
:10075000CCD800252B46C91A89B2D7E71C01002046
:1007600018010020140100201A01002010010020AF
:1007700037B568460D461446FFF784FFBDF8000004
:1007800030B1BDF802302B60BDF804302360012089
:1007900003B030BD032821D8DFE800F0020B1219A6
:1007A0000F4B1A68B2FA82F2520904210D4804F084
:1007B000D9BA0B4B5A68B2FA82F252090821F5E70E
:1007C000074B9A68B2FA82F252091021EEE7044B05
:1007D000DA68B2FA82F252092021E7E7704700BFD7
:1007E0002001002000100240032821D8DFE800F09B
:1007F000020B12190F4B1A68003A18BF012204218C
:100800000D4804F0AFBA0B4B5A68003A18BF0122EA
:100810000821F5E7074B9A68003A18BF012210211A
:10082000EEE7044BDA68003A18BF01222021E7E71F
:10083000704700BF200100200010024003280DD89F
:10084000DFE800F00206080A0421054804F08FBA28
:100850000821FAE71021F8E72021F6E7704700BFEA
:100860000010024008B5032811D8DFE800F0020AA2
:100870000C0E0421074804F06FFA431E58425841F9
:1008800008BD0821F6E71021F4E72021F2E7002057
:10089000F3E700BF0010024070B5084D00240126A8
:1008A000E0B2FFF7DFFF18B12B68012B18BF2E60F5
:1008B0000134052C05F10405F2D170BD20010020A2
:1008C000012380F8781080F8793070477047002055
:1008D00070470000034B4164003918BF01211970B3
:1008E000704700BFE7280120704700207047836BE6
:1008F0000BB10846184770474FF6FF7070474068C5
:1009000003689B6918477047704770477047704786
:1009100070B5044600F064FC2368D3F88C50044B97
:10092000D4E90F122046AC46BDE87040604700BFD6
:10093000000000D008B503680446D3F88430984717
:1009400023682046DB6F984700F0ECF823682046C8
:100950005B6F9847292001F0B7F800F0E3F82368AF
:1009600020465B6F9847F8E710B5044609F048FD4C
:1009700023682046D3F8BC30BDE81040184700F08B
:1009800021BC00F025BC00F049BC00F0F7BB00F032
:1009900049BC00F051BC00F0FBBB08F053BF10B5E0
:1009A0008421044612F09CF9204610BD10B590F841
:1009B000341090F878400C4B8C421A7809D03AB930
:1009C0000A4A0B491488088810800C8001221A708A
:1009D00010BD002AFCD0054A0549148808881080FB
:1009E0000C800022F3E700BFE0280120DC28012072
:1009F000DE28012070B50D46194635B9094B0A4A63
:100A00000A4840F2FF2112F099F9C0E90F52084B51
:100A1000003A18BF01221A700368BDE87040D3F88D
:100A2000903018479C3E0108D43E0108223F01083F
:100A3000E628012008B5094B1B888B4203D8084BD8
:100A40001B88934205D9074B074A0848A32112F097
:100A500075F9074B1980074B1A8008BDDC28012067
:100A6000DE280120673F0108CA3F0108223F010834
:100A7000E2280120E4280120034690F87A0018B10A
:100A8000586803681B68184770470000012108B5C3
:100A90000022084606F080FB0A4B186028B90A4B72
:100AA0000A4A28210A4812F049F9002204210120AB
:100AB00006F019FC074B186018B9074B034A2C21A4
:100AC000F0E708BD340100200D4001085640010840
:100AD0008540010830010020CD400108024B4FF055
:100AE000FF31186806F0A2BB34010020014B1868E2
:100AF00006F0C8BB34010020024B0021186806F044
:100B000095BB00BF34010020FFF7F0BF0348044944
:100B1000006800231A4606F021BC00BF3001002007
:100B20000400002013B5084C00231A4601A92068D0
:100B300006F045FC20684FF0FF33002201A906F0C3
:100B40003EFC02B010BD00BF3001002003685B6CAA
:100B500018470120704703689B6A1847FEE740F278
:100B6000EF307047054B0360054B4FF08062C3F8D0
:100B70008820BFF34F8FBFF36F8F7047EC4B010896
:100B800000E100E010B504464FF45A61FFF7EAFFB8
:100B9000204612F0A5F8204610BD000082B00023C8
:100BA00001930E4B1A6B42F400021A631A6B02F4A3
:100BB00000020192019A1A6942F400021A611A694C
:100BC00022F400021A61064B064A1A61064A5A616B
:100BD000064B4FF080629A6002B0704700380240C6
:100BE00014190020390E00085D0B000800E100E038
:100BF00008B50A2809D8DFE800F006100E08080832
:100C0000081010101000022008BD054B054A0648C8
:100C1000902112F093F80020F6E70120F4E700BFDE
:100C20000F4101082A4101087541010870B50C46C1
:100C3000887FFFF7DDFFA18AE28A164B256958639A
:100C400042EA01425A64628BDD63521A1A642668D2
:100C5000E168082E0DD19A611A615862207F0E4A10
:100C600042EA0062DA610D4A19625D61DD601A6074
:100C700070BD0022D8611A6148090A0A02F478425C
:100C800000F4FC600243C1F3C4010A439A63044ABE
:100C9000EDE700BF00B0024009000100012302009F
:100CA0000123030008B50B280BD8DFE800F006127B
:100CB000100A0A0A0A0808080808022008BD0520C8
:100CC000FCE7054B054A06486F2112F037F8002073
:100CD000F4E70120F2E700BF0F410108BB41010822
:100CE000754101082DE9F04191F81D800C46404600
:100CF000FFF7D8FFA77F05463846FFF7D3FF064624
:100D00003846FFF775FFA18A628B454B521A1A6469
:100D10009A61228B521A1A61E28A586342EA0142AE
:100D20005A6421696268D963DA60D4F800C0207F10
:100D3000BCF1800F4FEA006229D013D8BCF1200F1C
:100D400045EA020064D0BCF1400F61D0BCF1040F51
:100D50005ED0334B154345F40035B845DD615BD0BB
:100D6000304A40E0BCF5807F07D0BCF5007FF0D171
:100D700042F4003242F0090203E042F4003242F051
:100D80000A02DA61E2681A625E6259612AE0A468C6
:100D90002A4342F40032271DDF62DA6122785E6264
:100DA000596142B1012A21D01F4B204A20484FF4FB
:100DB0008D7111F0C3FFDA69618822F47F42013935
:100DC00022F0100242EA0122DA610121144BDA69B1
:100DD00042F02002DA61DA699206FCD410229A60AD
:100DE0000029BDD0134A1A60BDE8F081DA69B0F17C
:100DF000FF01608822F47F4200F1FF3022F01002F0
:100E000042EA002242F0100218BF0121DA61DDE758
:100E100040F40030D861B7E742F20132E3E700BFA7
:100E200000B0024001230100054201081F420108F1
:100E30007541010801230200024B1B6858680368D2
:100E40005B691847E828012070B5044625460A4B1F
:100E50000C30002660602672667245F8203B6022E6
:100E6000294609F009FC04F55A63EE6024359D42D9
:100E7000FBD1204670BD00BFEC4B0108012070473C
:100E800014207047142303FB01000830704714231B
:100E900003FB0100083070470120704740F22C50DE
:100EA000704740F22C5303FB01000830704740F2BA
:100EB0002C5303FB010008307047012070471020BD
:100EC000704700EB01100830704700EB011008304C
:100ED0007047084601F0E6BD10B5034B03600446B9
:100EE00008F007FA204610BDA44C010810B50446CE
:100EF000FFF7F2FF20461C2111F0F2FE204610BD44
:100F000010B5034B0360044608F0F3F9204610BD0A
:100F1000704C010810B50446FFF7F2FF204640F27E
:100F2000345111F0DDFE204610BD000010B5034B1A
:100F30000360044608F0DDF9204610BD3C4C010872
:100F400010B50446FFF7F2FF2046182111F0C8FE45
:100F5000204610BD10B5084B0360044600F5AC6098
:100F6000FFF7BAFF04F12C00FFF7CAFF04F11400E9
:100F7000FFF7DCFF204610BDD84C010808B5024839
:100F8000FFF7E8FF08BD00BFF40F002010B50446CE
:100F9000FFF7E0FF204640F2E46111F0A1FE204699
:100FA00010BD0000F7B501F0C5F9054601F0C6F91E
:100FB0000024014600942346224628460EF0A8FF4E
:100FC000264B274A1A60204602F00EFD2548264C83
:100FD0000EF006FF2368BFF35B8FDB0738D4204693
:100FE00011F080FE002833D0204A214B136002F11B
:100FF0002C0702F5B16502F5AC6602F114009760AA
:101000005060D660156108F075F9A5F5B1623846F3
:10101000184B53612C3F08F06DF9174BFB623046BB
:1010200008F068F9154BC7F8603507F27C5002F0FC
:1010300057FD3A4607F27C51284602F047FD284604
:1010400001F030FD0E4811F097FE204611F056FEDB
:101050000C4803B0BDE8F040FFF75ABC442901201A
:10106000BC01002008000020F00F0020F40F002039
:10107000D84C01083C4C0108704C0108A44C0108F4
:101080007D0F000838010020704700000148FFF77D
:1010900051BC00BF3801002070B5254E254C264DAF
:1010A000264B23603046FFF7CFFE28460FF090FD19
:1010B000234B2448DC6000224FF48071C3E91212F4
:1010C00021491A86C3E91A12204983F85820C3E936
:1010D0001E011F49C3F880101E491F480B60F021F4
:1010E000C3E90422C3E90622C3E90822C3E90A22AC
:1010F000C3E90E22C3E91022C3E91422C3E917226F
:101100005A6683F870205A67C3E901650180134865
:10111000018013484FF4A0710180124801801249E8
:101120000A70012283F83420104A1A6070BD00BF93
:101130004C020020EC0F0020C00100208C3E010872
:1011400038010020000001010100000100045000EE
:101150001A001400E8280120DC280120E2280120E0
:10116000DE280120E4280120E0280120004B0108AE
:101170000148FFF7F7BC00BF4C020020034B902250
:1011800083F85A2383F85823704700BF00E100E03A
:10119000094A0A49D3680A48C3F30A03013B9BB2D0
:1011A0000B801169C1F30A01013901801364536B8B
:1011B00043F001035363704700680140DA160020D2
:1011C000D8160020014BD3F8AC00704700680140EE
:1011D000024B0122C3F8AC105A627047006801400C
:1011E00070B5044608F083FB23689D6E0BF07EFC0F
:1011F00001462046A8472368054AD3F88C5020466C
:10120000AC460023BDE87040A2F51631604700BF30
:1012100000B004D008F052BB08F05CBB08F018BB6B
:1012200008F087BC034B4FF080629A604FF08072E9
:101230009A60704700E100E0084B4FF08062C3F80D
:101240008820BFF34F8FBFF36F8F4FF08072C3F8CA
:101250008820BFF34F8FBFF36F8F704700E100E02E
:1012600038B5184C23685BB3174B184A1B6C1188B0
:101270008B4216D1164B198804F076FB236893F83D
:101280006A200025013283F86A2083F87C50FFF73A
:101290003DFC206809F0B4F82846BDE83840FFF767
:1012A00079BA04F061FB2468236820461B6A9847DA
:1012B000012384F87C300020BDE83840FFF794BA61
:1012C00038BD00BFE828012000680140DA16002080
:1012D000D816002007B5064BADF806001B68054878
:1012E00001220DF1060105F0B5F803B000BD00BF05
:1012F0000C000020C017002007B5124D0124002368
:101300001148ADF80630042103F026FD08B9ADF808
:1013100006400D48082103F01FFD50B90223ADF827
:101320000630002328681A460DF1060106F016F86B
:1013300003E0BDF80630002BF3D1012005F020FFBB
:10134000DDE700BFEC1600200018024008B52A4C6B
:101350002378022BDAB212D0032A18D0012A42D104
:101360002648102103F0FEFC642005F009FF234805
:101370000022102103F0F6FC00232370E8E71F4849
:101380000122102103F0EEFC4FF4FA70EDE7012288
:1013900010211A4803F0E6FC4FF4FA7005F0F0FE55
:1013A00000221021154803F0DDFC4FF4FA7005F01F
:1013B000E7FE01221021114803F0D4FC4FF4FA702B
:1013C00005F0DEFE002210210C4803F0CBFC4FF4A8
:1013D000FA7005F0D5FE09480122102103F0C2FC85
:1013E00040F2EE20C1E705480022102103F0BAFCCC
:1013F0000A2005F0C5FEABE7E41600200004024019
:1014000030B595B0102200210AA811F0A1FE1422D7
:10141000002103A811F09CFE00241D4B01941A6CBE
:1014200042F080521A641B6C03F080530193019BBD
:10143000184B02941A6842F440421A601B6803F485
:10144000404302930122029B4FF48033CDE90823ED
:1014500002254FF48003CDE90E5308214FF4A87301
:10146000CDE9101308A804231393129504F09AFAF7
:101470000F23CDE903354FF4A0504FF48053CDE94D
:101480000603052103A8059404F068FC15B030BDDF
:1014900000380240007000402DE980489BB003F006
:1014A00005F8FFF7ADFF142200210DA8002411F06C
:1014B0004FFEC04B00941A6BBF4842F010021A63F3
:1014C0001A6B02F010020092009A01941A6B42F01B
:1014D00020021A631A6B02F020020192019A029410
:1014E0001A6B42F080021A631A6B02F080020292B9
:1014F000029A03941A6B42F004021A631A6B02F008
:1015000004020392039A04941A6B42F001021A63D4
:101510001A6B02F001020492049A05941A6B42F0CD
:1015200002021A631A6B02F002020592059A0694EF
:101530001A6B42F040021A631A6B02F040020692E4
:10154000069A07941A6B42F008021A631B6B03F0A9
:101550000803079322463C21079B03F003FC9748AE
:101560002246042103F0FEFB95482246802103F029
:10157000F9FB944822464FF4405103F0F3FB224616
:1015800091481021012503F0EDFB4FF0030A3C23A5
:101590008948CDF840A00DA902264FF00409CDE9F5
:1015A0000D350F9403F0F4FA84480F940DA9CDE99A
:1015B0000D95109603F0ECFA802381480DA9CDE932
:1015C0000D35CDE90F4403F0E3FA4FF440537D4865
:1015D0000DA9CDE90D354FF00C0BCDE90F4603F009
:1015E000D7FA7A480F950DA91027CDE90DB403F06D
:1015F000CFFA0DA97448CDE90D75CDE90F4403F07C
:10160000C7FA734A734B1360104603F0B7F9724A76
:10161000724B1360724BD460C2E9013410464FF430
:101620008043C2E90434C2E90644146203F0C2FDF7
:101630003946694804F004F82146674804F01FF869
:10164000684A694B13604FF48273C2E901344FF466
:1016500000711823C2E9061310460A23D362C2E9B7
:101660000344C2E908445461946204F097FE5F4A5F
:101670005F4B1761C2E9003540204FF4C073C2E9E7
:1016800005034FF40063C2E908344FF4005393623A
:101690000DA907231046CDE90E39CDE9103A4FF0D8
:1016A0000808C2E90249D461CDE912660D9604F03A
:1016B00059FD4FF6FF7209A94C480894CDE90A85F7
:1016C00009950C9404F06EFD284602F01BFF4FF6BE
:1016D000FF7209A94548CDE90968CDE90B5404F02A
:1016E00061FD4FF6FF7209A94048CDE909A8CDE98F
:1016F0000B9404F057FD4FF40C730893089B3B4880
:101700000C934FF6FF7209A9CDE909980B9504F0E7
:1017100049FD40F26A51354804F062FD3422214609
:101720000DEB020011F014FD324A334B1461C2E993
:1017300000340923C2E905351D2340F20D1CC2E91E
:10174000073A40F24313C2E909C340F2171E40F2C0
:1017500047131046C2E90BE3C2E90244948682F8BB
:10176000364004F01FF8FF21F022CDE912144FF0AB
:1017700005094FF480614FF4A073CDE90E24CDE943
:101780001419CDE916420DA922461A48DFF870A0B7
:101790001893CDE910360D94ADF864408DF866408D
:1017A00004F0B4F8154BCAF800301B689847DAF813
:1017B000003027E0003802400010024000080240DC
:1017C00000000240000C02400004024000180240E9
:1017D0005419002000300240C0180020005C004076
:1017E000A0860100C017002000500140FC16002018
:1017F000400100A0181800200068014018000020D7
:10180000E0160020DFF8D0A1DB6898475B4A5C4B0C
:101810001046C2E90034C2E90264C2E90A46C2E9DC
:101820000C4403F0BBF82946544803F06DF92146F7
:101830003A460DA811F08CFC524A534B13601046E7
:101840004FF48033C2E901341461147682F82040E9
:10185000D462C2F828A0D460D56182F830405561C6
:1018600002F064FE0D220DA946480F94CDE90D2526
:1018700002F094FF21463A460DA811F069FC434B53
:10188000434A1A601A4610464FF48033C2E90134C5
:10189000C2E90AA41461147682F82040D460D561AC
:1018A00082F83040556102F041FE0DA937480F948F
:1018B000CDE90D9502F072FF364A374B13601046A2
:1018C0004FF4E133C2E90134C2E90344C2E905B48B
:1018D000D46105F011FB21463A460DA811F038FC01
:1018E0002E4A2F4B13605923C2E90134104640F2AF
:1018F000E733C2E903349461CDE9094405F020F9E6
:101900004FF480530DA925480D9305F04FF909A90F
:101910002248CDE9094405F051FAFEF779FEFEF7B9
:1019200076FE21461D4805F047FA05F0B9FB1D4A31
:101930003146384605F0D7FC1B4B1C4A1860294637
:10194000404605F0D0FC1A4B1A4A186021461A4846
:1019500005F0D2FB194B1A4A18602146194805F0C8
:10196000CBFB194B194A18602146194805F0C4FBF6
:10197000184B186005F0A6FBFEE700BF1419002005
:1019800000B00240A4190020002001405C19002092
:10199000002101403017002000100140781700207E
:1019A00000040040FC4C0108EC160020E44C010847
:1019B000E81600205C4D0108F9120008F816002016
:1019C000384D01081F060008F4160020144D0108C8
:1019D0004D130008F01600200100000F70477047FB
:1019E0007FB5084B8DF817201B6802930DF1170285
:1019F0000123009201930A460146034803F082FC4A
:101A000007B000BD10000020C01800207FB50023E3
:101A10008DF81730084B1B6802930A4601230DF11D
:101A20001701009101930146044803F0FBFC9DF867
:101A3000170007B000BD00BF10000020C018002034
:101A40001FB5084C24680092CDE901340A460123F1
:101A50000146054803F0E6FC003818BF012004B039
:101A600010BD00BF10000020C018002002F04ABDC9
:101A700008B506480022042103F074F9BDE80840C7
:101A800002480122042103F06DB900BF00080240A2
:101A900010B5012204464FF40051094803F062F9E1
:101AA00000220421074803F05DF92046FFF712FCED
:101AB000BDE8104003480122042103F053B900BFE0
:101AC000000C02400008024010B5002204464FF40A
:101AD0000051094803F046F900220421074803F0A9
:101AE00041F92046FFF7F6FBBDE81040034801220C
:101AF000042103F037B900BF000C02400008024087
:101B000037B505460C4612480022042103F02AF995
:101B100000224FF400510F4803F024F92846FFF744
:101B2000D9FB0D4B0D481B68224601A904F03EFE6F
:101B30000848019C01224FF4005103F013F90448B6
:101B40000122042103F00EF9204603B030BD00BF8E
:101B500000080240000C02400C000020C0170020CA
:101B600002F0D0BC0268034B9A4201D102F0B8BC2B
:101B7000704700BF001000407047000082B00E4B5D
:101B800000220092596C41F480415964596C01F46F
:101B90008041009100990192196C41F080511964C3
:101BA0001B6C03F080530193019B0F216FF0010028
:101BB00002B002F0A3BE00BF0038024010B51422EC
:101BC0008AB0044600210DEB020011F0C1FA23682F
:101BD000254A934227D1254B2548002401945A6C6D
:101BE00042F480725A645A6C02F480720192019A33
:101BF00002941A6B42F004021A631B6B03F0040395
:101C000002930821029B0323CDE9051305A902F0E5
:101C1000BFFF12202246052102F070FE122002F0C2
:101C20009FFE0AB010BD134A9342FAD10F4B1248DF
:101C3000002403945A6C42F400725A645A6C02F401
:101C400000720392039A04941A6B42F001021A6321
:101C50001B6B03F001030493049B20220323CDE9B3
:101C6000052305A9D3E700BF00200140003802404A
:101C70000008024000210140000002400268094BB8
:101C80009A4282B00BD100230193074B1A6B42F4A6
:101C900080521A631B6B03F480530193019B02B0C3
:101CA000704700BF003002400038024007B50E4BBD
:101CB00002689A4216D10022A3F5F0430192196BF3
:101CC00041F4000119631B6B03F400030193052128
:101CD0005A20019B02F012FE5A2003B05DF804EB7B
:101CE00002F03EBE03B000BD00B002402DE9F0435B
:101CF000044689B01422002103A811F029FA2268B1
:101D0000244B9A4243D1244C244800250095236B50
:101D100043F004032363236B03F004030093009B4D
:101D20000195236B43F001032363236B03F001034D
:101D30000193019B4FF012094FF400734FF001081B
:101D40000327042603A9CDE90339CDE905870796C2
:101D500002F01EFF4FF480731148079603A9CDE9E6
:101D60000339CDE9058702F013FF0295236C43F494
:101D700000032364236C03F400030293029B236A91
:101D800043F400032362236A23F40003236209B0AF
:101D9000BDE8F083005C00400038024000080240CB
:101DA00000000240F0B599B004461422002107A8B3
:101DB00011F0CEF930220DEB0200002111F0C8F92C
:101DC00022685E4B9A4240F0B78008230C93C023F0
:101DD0001093042312930CA84FF40033159304F0CE
:101DE00095F808B1FFF7C8FE554B564800240094FB
:101DF0005A6C42F080625A645A6C02F0806200921F
:101E0000009A01941A6B42F020021A631A6B02F0D6
:101E100020020192019A02941A6B42F001021A63A5
:101E20001A6B02F001020292029A03941A6B42F0BA
:101E300002021A631A6B02F002020392039A0494DC
:101E40001A6B42F040021A631A6B02F040020492CD
:101E5000049A05941A6B42F004021A631A6B02F09A
:101E600004020592059A06941A6B42F008021A635E
:101E70001B6B03F00803069302250E26069B0B96A8
:101E80004FF4806307A9CDE90735CDE9094502F094
:101E90007FFE41F658032C480B9607A9CDE907357C
:101EA0000927CDE9094502F073FE032327480B9764
:101EB00007A9CDE90735CDE9094502F069FE4FF4E0
:101EC000706322480B9607A9CDE90735CDE909458E
:101ED00002F05EFE4FF40C631D480B9607A9CDE996
:101EE0000735CDE9094502F053FEC02319480B968A
:101EF00007A9CDE90735CDE9094502F049FE0823D8
:101F000015480B9607A9CDE90735CDE9094502F03B
:101F10003FFE4FF4A0530E480B9707A9CDE90735B4
:101F2000CDE9094502F034FE58202246052102F091
:101F3000E5FC582002F014FD19B0F0BD0068014026
:101F40000038024000140240000002400004024039
:101F50000018024000080240000C024010B5044680
:101F600088B01422002103A811F0F2F82268144B63
:101F70009A4223D103F56843002101915A6C11481C
:101F800042F480125A645A6C02F480120192019A4F
:101F900002911A6B42F020021A631B6B03F02003BC
:101FA0000293029B4FF4607202230321CDE90323C5
:101FB0000523CDE9061303A902F0EAFD08B010BD20
:101FC00000500140001402400268094B9A4282B05E
:101FD0000BD100230193074B1A6C42F002021A64E2
:101FE0001B6C03F002030193019B02B0704700BF1A
:101FF000000400400038024010B5044688B01422A6
:10200000002103A811F0A4F82268144B9A4223D1AE
:1020100003F59433002101915A6C114842F01002EB
:102020005A645A6C02F010020192019A02911A6BE2
:1020300042F001021A631B6B03F001030293029B3F
:102040004FF4C06202230321CDE903230723CDE926
:10205000061303A902F09CFD08B010BD001001405A
:10206000000002402DE9F04186B0002303932B4B82
:102070001C68002C4FD14FF00108C3F80080284B9A
:1020800000949A6B274842EA08029A639B6B03EA22
:1020900008030093022703260C25009B01A94FF695
:1020A0003F03CDE90137CDE9046502F071FD1E481B
:1020B000059501A9CDE90187CDE9034602F068FD48
:1020C00048F233131948059501A9CDE90137CDE947
:1020D000034602F05DFD4FF683731548059501A98F
:1020E000CDE90137CDE9034602F052FD4CF203730E
:1020F0001048059501A9CDE90137CDE9034602F065
:1021000047FD60230C48059501A9CDE90137CDE9CC
:10211000034602F03DFD06B0BDE8F081EC19002059
:10212000003802400014024000080240001802403B
:1021300000100240000C02400004024030B589B09B
:1021400000230293204B1A6C42F010021A641B6C9D
:1021500003F010030293054601A903A8029B03F0B4
:10216000B7FE069B4BBB03F093FE184A184B136057
:1021700040F2E733D360174BB0FBF3F3013B5360FE
:102180001046002313619360936104F0D9FC044668
:1021900080B90E4804F0AEFB044658B9362002F070
:1021A000DFFB0F2D0DD822462946362002F0A6FB74
:1021B000094B1D60204609B030BD03F069FE4000A8
:1021C000D3E70124F6E700BF00380240F0190020F1
:1021D0000010004040420F00800000207047FEE7E2
:1021E000FEE7FEE7FEE7704708B5044802F047FA4D
:1021F000BDE80840024802F042BA00BFA41900201E
:102200005C190020014804F0B3BB00BFF0190020A6
:10221000014803F01EBB00BF18180020014802F05F
:10222000E9BB00BF1419002013B50B4C206805F062
:10223000F6F8012809D841238DF807302068C82313
:1022400000220DF1070105F089F8012002B0BDE878
:10225000104002F097BD00BFE81600200120704733
:1022600008B511F075F8162303604FF0FF3008BD74
:1022700008B511F06DF816230360FEE770B50D4642
:1022800014460E46731B9C4201DC204670BDAFF322
:10229000008006F8010BF5E770B50D4614460E46B2
:1022A000731B9C4201DC204670BD16F8010BAFF396
:1022B0000080F5E74FF0FF3070474FF400534B605C
:1022C000002070470120704700207047094A08B578
:1022D0000346106808B908481060034469468B42F9
:1022E00006D911F035F80C2303604FF0FF3008BD1C
:1022F0001360FCE7381A0020602C0120704710B5ED
:102300000421044610F0ECFC204610BD012908B55C
:1023100006D0022908D059B901F0B2FB006808BD07
:1023200001F0AEFB4068FAE701F0AAFB8068F6E72F
:102330000020F4E700487047944D01080B207047D7
:1023400013B5002451B1036801948DF8034001AA2C
:102350009C680DF10303A04702B010BD0846FBE7DF
:10236000C0897047008A7047C0887047808870476E
:10237000807A00F07F007047807AC00970470020A3
:10238000704700009FED010A704700BF0000000089
:10239000704710B50821044610F0A2FC204610BD7D
:1023A0007047704700F598730868496803C3704721
:1023B000704770474160704770477047064BC0F8E0
:1023C0004C310023C0F8503100F5A273C0F8480129
:1023D000C0F84031704700BFF9280008012303729C
:1023E0007047704770477047704738B5054640687A
:1023F0000368DB699847044604B938BDA188AB89F6
:10240000C91A236820461B6B09B29847A469F3E7F1
:10241000D0E90232416810B4541001EB6200D207D7
:1024200048BF0A595DF8044B48BFD35818470346C4
:10243000406830B19A681AB9D86800F00100704756
:102440000120704710B50C21044610F049FC2046CD
:1024500010BD10B51421044610F042FC204610BDFA
:1024600010B51021044610F03BFC204610BD10B5FD
:102470001021044610F034FC204610BD10B54FF476
:10248000AE71044610F02CFC204610BD10B50AF0C9
:102490002DFB0368BDE81040DB6B184710B50AF050
:1024A00025FB0368BDE810405B6B184710B50AF0C8
:1024B0001DFB0368BDE810405B6B184713B504466D
:1024C000807A637A0130C0B29842A07205D90123A4
:1024D00023720023A37202B010BDB4F90C200021B6
:1024E0000CF05AF9C30706D500284FF6FF73C8BF92
:1024F0000123184400B2144AE08112880023ADF889
:10250000023083B2D21AADF80020228A20829B1AB0
:10251000ADF804300D4B1B88ADF806300AF0E6FA32
:10252000036802AA1B6C12E906009847A37A012BE4
:10253000D1D1074B1B78002BCDD00AF0D7FA02B0CF
:10254000BDE810400AF0D8BADC280120DE280120BE
:10255000E628012037B50546807A6B7A0130C0B293
:102560009842A87205D901232B720023AB7203B0E5
:1025700030BDB5F90C20B5F90E4000210CF00CF976
:10258000C30706D500284FF6FF73C8BF01231844C0
:1025900000B2AB7AE881041B012BA4B206D1174B21
:1025A0001B781BB10AF0A2FA0AF0A6FA144A00231B
:1025B0001288ADF80230EB891A445B42ADF8043062
:1025C000104BADF800201B88ADF806300AF08EFAEB
:1025D000036802AA12E906001B6C98476868036842
:1025E000DB6998470546002DC1D0A9882B68214496
:1025F00028461B6B09B29847AD69F4E7E62801202D
:10260000DC280120DE28012010B50446D0F8400166
:1026100058B10368DB68984738B1D4F840010368C3
:102620009B6898470023C4F8403110BD2DE9F14F55
:10263000D0E955BA0746DBF8080003681B6A9847DB
:1026400040F22B53984205D8494B4A4AA3214A48A5
:1026500010F074FBDBF8040003681B6A98470F282E
:1026600003D8464B434AA421F1E7DBF80C0003688A
:102670001B6A98470F2803D8414B3E4AA521E6E73D
:102680000AF034FADFF8049104300AF07CFAD9F841
:10269000000010B10368DB689847D9F8000010B15A
:1026A00003681B689847DFF8E880D8F8000010B18D
:1026B00003685B699847D7F83C0110B103685B6811
:1026C0009847D8F8000010B103681B689847D7F8FE
:1026D0003C0110B103689B689847DBF80C00036865
:1026E00000215B6A9847274B036014234372264BF3
:1026F0001B88002686725B42044646600672C681CD
:102700008381DBF80800036831465B6A9847054619
:1027100001F0AEFADBF80400036831465B6A9847C3
:102720002946064601F04EFA331DC7F83C61CAF847
:1027300008302B68C6F808A02846DB68C9F80040B6
:10274000C8F80050EE639847336830461B689847D6
:10275000214628460CF01AF8236820461B69984742
:1027600023685B69204601B0BDE8F04F184700BF01
:10277000904201081E430108034401084A4401082D
:10278000ED440108184F0108DC2801202829012008
:10279000242901202DE9F14FD0E955BA0746DBF88D
:1027A000080003681B6A9847B0F5C07F05D2494B03
:1027B000494AA321494810F0C1FADBF80400036834
:1027C0001B6A98470F2803D8454B434AA421F1E7D9
:1027D000DBF80C0003681B6A9847132803D8414BA9
:1027E0003D4AA521E6E70AF081F9DFF804910430BB
:1027F0000AF0C9F9D9F8000010B10368DB689847FE
:10280000D9F8000010B103681B689847DFF8E4802E
:10281000D8F8000010B103685B699847D7F83C010D
:1028200010B103685B689847D8F8000010B10368DE
:102830001B689847D7F83C0110B103689B6898471C
:10284000DBF80C00036800215B6A9847264B0360A5
:1028500014234372254B002686721B88466004466B
:102860000672C68106828381DBF808000368314660
:102870005B6A9847054601F073F9DBF804000368CA
:1028800031465B6A98472946064601F041F9331DF7
:10289000C7F83C61CAF808302B68C6F808A028467B
:1028A000DB68C9F80040C8F80050EE639847336809
:1028B00030461B689847214628460BF067FF23687F
:1028C00020461B69984723685B69204601B0BDE834
:1028D000F04F184790420108904501080344010851
:1028E0004A440108ED4401083C4F0108DC2801205E
:1028F00028290120242901202DE9F14FD0E9556A2A
:102900000746B06803681B6A9847B0F5C07F05D2D8
:10291000444B454AA321454810F010FA70680368FB
:102920001B6A98470F2803D8414B3F4AA421F2E77E
:10293000F06803681B6A98470B2803D83D4B3A4A56
:10294000A521E8E70AF0D2F8DFF8F09004300AF0A9
:102950001AF9D9F8000010B10368DB689847D9F874
:10296000000010B103681B689847DFF8D480D8F8DE
:10297000000010B103685B699847D7F83C0110B1BB
:1029800003685B689847D8F8000010B103681B68BB
:102990009847D7F83C0110B103689B689847F068E6
:1029A000036800215B6A98474FF0000B224BC0F888
:1029B00004B0044680F808B00360B0680368594664
:1029C0005B6A9847054601F0CBF870680368594682
:1029D0005B6A98472946064601F09AF8331DC7F806
:1029E0003C61CAF808302B68C6F808A02846DB68A6
:1029F000C9F80040C8F80050EE6398473368304685
:102A00001B689847214628460BF0C0FE23682046E5
:102A10001B69984723685B69204601B0BDE8F04F09
:102A2000184700BF9042010874460108034401089A
:102A30004A440108ED440108F44E01082829012008
:102A400024290120F8B5044617460E460AF038F945
:102A5000104B0025C4E955760F4E1C60C4E9535550
:102A60000E4B306823600E4BC4E9513503680121D9
:102A70009B68C4E94F559847284600F0B5FF336876
:102A800093F858200AB1D86C00B998680FF0DCFBB5
:102A90002046F8BD34290120E8280120A04E010875
:102AA000884E0108064BC0F84C310023C0F8503165
:102AB00000F5A273C0F84801C0F84031704700BF6C
:102AC000F9280008064BC0F84C310023C0F85031FB
:102AD00000F5A273C0F84801C0F84031704700BF4C
:102AE00095270008064BC0F84C310023C0F8503140
:102AF00000F5A273C0F84801C0F84031704700BF2C
:102B00002D260008406A7047806A704770478A889F
:102B10000B8810B5D20A4C88C1699BB251F82200CB
:102B200043EA0443184410BD10B50446BAB1107B03
:102B300068B1537BD27A1B0203F4E0631A43236A21
:102B400003EB82031A888A4202D193F9020010BD76
:102B500005D8013880B204330028F3D1F7E700200C
:102B6000F5E710B52C21044610F0BAF8204610BD48
:102B700030B58BB00446BDF860500895BDF85C5088
:102B800007959DF8505006959DF84C5005959DF879
:102B9000485004959DF8445003959DF84050029587
:102BA0009DF83C500195BDF8385000950BF026FA81
:102BB000064B2360159BE361169B2362199B63629E
:102BC0001A9BA36220460BB030BD00BF604F0108C6
:102BD0000020704781807047C18070470181704735
:102BE000418170477047704770477047704710B415
:102BF000C4880368121B84885B6D091B12B25DF8E0
:102C0000044B09B218474FF6FF7383814FF0FF332F
:102C100003621368C3611060704770477047704764
:102C20007047704730B5036885B0D3F884300181B0
:102C300004460146684698479DE807003C3484E80E
:102C4000070005B030BD30B5036885B0D3F88430D7
:102C5000418104460146684698479DE807003C3498
:102C600084E8070005B030BD0022028042808280E7
:102C7000C280704780F83610704770B5036804460C
:102C80001B6B154698472368294620465B6EBDE8B6
:102C90007040184700207047806C7047704770473D
:102CA00070477047D0E9023230B44468551004EBE5
:102CB0006200D20748BF625930BC48BFD35818479A
:102CC0000346406830B19A681AB9D86800F001002C
:102CD00070470120704710B54C21044610F000F8F1
:102CE000204610BD10B5102104460FF0F9FF204614
:102CF00010BD10B54FF4BE7104460FF0F1FF204631
:102D000010BD90F8252012B103685B691847704721
:102D100008B5FFF7F6FF08BD90F825201AB190F826
:102D2000242002B118607047036870B55E6B124BC7
:102D30001B6804468DB22BB9104B114A6C21114807
:102D40000FF0FCFF1049828D0988914203D80F4B88
:102D50000B4A6D21F3E713F812200D4B1B6853F853
:102D6000220003681B6B9847291A3346204609B294
:102D7000BDE87040184700BF3829012046470108C8
:102D800088470108C34701083C2901200A48010877
:102D9000402901206C30884208B505D109F0A6FE13
:102DA000BDE80840FFF79EBE08BD00224FF0FF318E
:102DB000C0E900218260704770B5036804461B6B50
:102DC000154698472368294620465B6BBDE870404E
:102DD000184770B504461D46BDF91060FFF7ECFFBB
:102DE0002368294620469B6B984723683146204636
:102DF000DB6BBDE8704018470022C0E90122C0E942
:102E00000322C0E90522C0E907224FF480728284C0
:102E1000014A0260704700BFC84F01082DE9F04722
:102E200004468AB0274600250BF004FB644BE5639B
:102E300047F8403B29462622384610F089F93846A3
:102E4000FFF7DAFF5F4B236404F16C08FF23294688
:102E500084F866302622A566404610F079F940468F
:102E6000FFF7CAFF01234FF6FF7904F1A00684F8AB
:102E70009030554BE36629462622C4F8945084F8D6
:102E80009850A4F89A90A4F89C9084F89E903046AC
:102E900010F05EF93046FFF7AFFF4FF47F03C4F840
:102EA000D4304A4BC4F8A0304FF0FF33C4E9383572
:102EB000474BDFF848A1A4F8CC90C4E95B34454BFC
:102EC000C4F8D050C4E95D354FF4A0732A46A4F885
:102ED000D850C4F8DC50C4F8E85029463846C4F845
:102EE000C8A00093F023FFF774FF04F104094FF02A
:102EF0007F43A3663946484606F00EFAC1221421E4
:102F00004046FFF759FF052708AA07A94046ADF834
:102F10001C70ADF8207007F03DFF04F5B673C4F8DF
:102F200094304146484606F0F7F91C2309220093E5
:102F30000621E2233046FFF74CFF274BC4F8D03080
:102F4000D4F8A030A4F8D45002AD2846D3F8843089
:102F50003146984795E8070004F1DC0383E8070051
:102F60001E4B1B6804F1EC052BB91D4B1D4A60215B
:102F70001D480FF0E3FE1D4B1B88022B03D81C4B92
:102F8000184A6121F4E71B4B0221186800F068FD24
:102F9000194A0346402128460CF014FF08A9304680
:102FA000C4F8E850CDF820A0ADF8247007F094FEE6
:102FB0004846314606F0B0F920460AB0BDE8F08731
:102FC000D850010894540108FC54010830500108FD
:102FD000C0500108952D0008F5F5FFFF38290120A4
:102FE0004647010848480108C34701083C29012019
:102FF0000A4801084429012093480108784E010835
:10300000806A704770477047704770477047D0E9D3
:10301000023230B44468551004EB6200D20748BF56
:10302000625930BC48BFD35818470346406830B196
:103030009A681AB9D86800F00100704701207047FB
:1030400090F82D3080F8603070470146383091F8A4
:103050002C3013B1363107F0D6BF3431FBE710B551
:10306000642104460FF03CFE204610BD10B510212F
:1030700004460FF035FE204610BD10B54FF49C619C
:1030800004460FF02DFE204610BD10B50446006B1F
:1030900050B10368DB68984730B1206B0368214664
:1030A0009B68BDE81040184710BD0B7970B590F8CB
:1030B0002C6004460D460BB916B170BD002EFCD035
:1030C000B3FA83F35B0984F82C3023682046D3F8E5
:1030D0008C309847236820465B699847002EECD0D7
:1030E0002B79012BE9D123682046D3F88830BDE83D
:1030F0007040184700F506738B4210B5044609D19D
:1031000009F0F4FCFFF7DEFC23682046DB6ABDE82B
:103110001040184710BD0B882DE9F04183861388B5
:10312000B0F90850C3860446104690460CF004FFE0
:10313000B4F90A30074603EBD3734046C3F34F0696
:103140000CF02EFF05EBD575C5F34F0500EBD070E5
:1031500007EBD777A6EB6002A5EB670104F1380017
:1031600012B209B2FFF728FE23682046D3F88C304C
:10317000BDE8F0411847000010B5262204460021A2
:103180000FF0E6FF2046FFF737FE044B2360FF23D6
:1031900084F826300023A362204610BD9454010811
:1031A00038B5262204460D4600210FF0D1FF2046F7
:1031B000FFF722FE064B23602B88E384FF23204683
:1031C00084F82830294607F01EFF204638BD00BF8E
:1031D0007055010810B52622044600210FF0B8FFF3
:1031E0002046FFF709FE0A4BA3624FF6FF73A38543
:1031F0004FF47F020023C4E90C32064A22604FF0EC
:10320000FF32C4E910232387E363A364204610BD83
:10321000784E0108305001082DE9F04F04468DB07A
:10322000274600250BF006F9BA4BE56347F8403B0B
:1032300004F16C0B38464FF6FF76FFF79DFF04F163
:10324000980A0AA9584604F1C409ADF82860FFF7A6
:10325000A7FF0AA9504604F1F008ADF82860FFF76F
:103260009FFF0AA94846ADF82860FFF799FF0AA911
:103270004046ADF82860FFF793FF0AA904F58E7069
:10328000ADF82860FFF78CFF0AA904F5A470ADF82B
:103290002860FFF785FF0AA904F5BA70ADF8286029
:1032A000FFF77EFF04F5D07318460393FFF792FFF4
:1032B00004F5F6730AA918460393ADF82860FFF7E2
:1032C0006FFF40F20113C4E98F354FF47F43C4E927
:1032D0009135914BC4F8183204F51473A4F84C627C
:1032E000A4F84E620AA91846C4E98755C4E989556D
:1032F000C4E98B55C4E98D55ADF828600393FFF7F9
:103300004FFF039B04F50670194606F005F804F517
:103310001F730AA918460393ADF82860FFF740FF12
:1033200004F52A730AA918460393ADF82860FFF73D
:1033300037FF04F535730AA918460393ADF82860E2
:1033400007F0F6F904F540730AA918460393ADF89F
:10335000286007F0EDF904F54B7318460393FFF767
:1033600039FF04F55E7318460393FFF705FF04F574
:10337000697318460393FFF7FFFE684BC4F8D03417
:10338000674BC4F8D8344FF4A0732A463846C4F8C3
:10339000D444C4F8DC5429460093F023261DFFF7DB
:1033A00018FD4FF07F43A3663946304605F0B4FF61
:1033B0002A4629465846FFF7FFFC07270AA9584620
:1033C000ADF8287007F01FFE5946304684F891503A
:1033D00005F0A2FF2A4650462946FFF7EDFC50466D
:1033E0000AA9ADF8287007F00EFE5146304684F861
:1033F000BD5005F091FF2A4629464846FFF7DCFC00
:103400000AA94846ADF8287007F0FDFD4946304648
:1034100084F8E95005F080FF2A4640462946FFF728
:10342000CBFC40460AA9ADF8287007F0ECFD4146F8
:10343000304684F8155105F06FFF2A46294604F5F9
:103440008E70FFF7B9FC0AA904F58E70ADF82870EC
:1034500007F0D9FD04F58E71304684F8415105F02E
:103460005BFF2A46294604F5A470FFF7A5FC0AA9CC
:1034700004F5A470ADF8285007F0C5FD04F5A4715B
:10348000304605F049FF2A46294604F5BA70FFF791
:1034900093FC0AA904F5BA70ADF8285007F0B3FD03
:1034A00004F5BA71304605F037FF19232A46009318
:1034B00035219F2304F5D070FFF78BFC4FF07F433D
:1034C000C4F8D031D4F8A031A4F8D45104AFD3F863
:1034D0008430DFF860A004F5D0713846984797E84B
:1034E000070004F5EE7383E80700DAF8003004F50E
:1034F00074782BB90B4B0C4A60210C480FF01EFC62
:10350000DFF834B0BBF80030032B17D8084B064A5D
:103510006121F2E7C45101080C510108AC510108C6
:10352000F53000084647010848480108C34701082C
:103530000A480108382901203C290120DFF84C9273
:103540000321D9F8000000F08BFA8C4A0346402191
:1035500040460CF037FC8A4BC4F8E8810AA94FF0CA
:10356000040804F5D0700A93ADF82C8007F0B4FB82
:1035700004F5D071304605F0CFFEBA225F2104F584
:10358000F670FFF719FC0AA904F5F670ADF828806B
:1035900007F039FD04F5F671304684F8115205F054
:1035A000BBFE02230AAA09A904F50670ADF824306F
:1035B000ADF82830FFF7AFFD04F59A63C4F8483240
:1035C00020234FF48D72C4F85452CC21009304F59B
:1035D0000670FFF7FEFB04F50671304605F09CFE11
:1035E0005922C42104F51F70FFF7E6FB4FF00308D2
:1035F0000AA904F51F70ADF8288007F004FD04F552
:103600001F71304605F088FE4922152104F52A7005
:10361000FFF7D2FB0AA904F52A70ADF8288007F05D
:10362000F2FC04F52A71304684F8CD5205F074FEA0
:103630004FF001080AA904F53570ADF8288007F0AD
:10364000E2FC7422B72300921521692204F535703B
:10365000FFF7BFFB294604F5357007F024F804F5A1
:103660003571304684F8F95205F056FE0AA904F582
:103670004070ADF8288007F0C6FC7422B723009292
:103680001D21692204F54070FFF7A3FB294604F5CC
:10369000407007F008F804F54071304684F825536F
:1036A00005F03AFE7922302104F54B70FFF784FBD8
:1036B000344BC4F85C33D4F82C33A4F86053384648
:1036C000D3F8843004F54B71984797E8070004F568
:1036D0005A7383E80700DAF8003004F58A67002B94
:1036E0003FF408AFBBF80030002B3FF40FAF294682
:1036F000D9F8000000F0B4F9204A034640213846CA
:103700000CF060FBC4F8747304F54B7007F0C4FA56
:103710001B4B0A930AA904F54B70C827ADF82C80FF
:1037200007F0DAFA84F8515304F54B71304605F08E
:10373000F3FD154D00971E236FF0570204F55E70E0
:103740009C21FFF746FB04F55E713046C4F8A05398
:1037500005F0E2FD1E23B62204F5697000979C2156
:10376000FFF737FB3046C4F8CC5304F5697105F018
:10377000D3FD20460DB0BDE8F08F00BF934801088F
:10378000784E0108FCFCFCFF16AB2AFF44290120FF
:103790007047000030B5164D8FB02C68BFF35B8FBB
:1037A00014F0010420D128460FF09CFAE0B13F2329
:1037B0000993104B0893104B104911480A940122A9
:1037C000CDE906430423CDE903320A230093CDE972
:1037D0000B44CDE901440594FFF7CAF909480FF0FD
:1037E000CBFA28460FF08AFA05480FB030BD00BF6B
:1037F0003C1A00200C63010818630108706101087D
:10380000401A0020913700087047000030B5174D6E
:103810008FB02C68BFF35B8F14F0010422D12846CF
:103820000FF060FAF0B13F230993114B0893114B4D
:1038300007930123CDE9054304930423CDE9024313
:1038400015230D4900931B221923CDE90B440B4886
:103850000A940194FFF78CF909480FF08DFA284675
:103860000FF04CFA05480FB030BD00BF6C1A0020B5
:10387000106301081C63010880610108701A0020B0
:10388000093800087047000030B5164D8FB02C681D
:10389000BFF35B8F14F0010420D128460FF022FA09
:1038A000E0B13F230993104B0893104B1049114886
:1038B0000A940122CDE906430423CDE903322823EB
:1038C0000093CDE90B44CDE901440594FFF750F98D
:1038D00009480FF051FA28460FF010FA05480FB0CA
:1038E00030BD00BF9C1A002014630108206301084A
:1038F000FC620108A01A00208538000800207047EB
:10390000002070470EB403B503AB002153F8042B1D
:1039100001930AF09BF902B05DF804EB03B0704725
:103920000CB407B504AB53F8042B01930AF08EF9DD
:1039300003B05DF804EB02B070470000436C10B5B3
:10394000044673B3038F2BB9184B194AC521194884
:103950000FF0F4F9C38E00EB43035B8C0BB30BF059
:1039600088FC238F012B03D8134B144ACB21EEE79D
:10397000E28E531C9BB2092B194688BFA3F10A01A2
:1039800004EB410140F63F10498C814209D10A2BDA
:1039900004EB420228BF002304EB4303508C5884FD
:1039A00051842046BDE810400BF066BB96480108E4
:1039B0009F4801084A49010894490108A2490108A1
:1039C0000BF021BB10B586B002AC84E806001A46A5
:1039D0000AAB05930193099B00932146089B08F0CD
:1039E00007FC06B010BD000038B518BB124B1348D9
:1039F0001C681349B4B12268224402606268224400
:103A00000A60A26814440F4B00221A8000F038F8B4
:103A1000054600F033F80C4B1C600C4B1D600C4B42
:103A2000188007E00B4B03600B4B0B600B4B1C68C3
:103A3000002CE8D138BD00BFD81A0020D01A0020D1
:103A4000CC1A0020D41A0020382901204029012056
:103A50003C2901203C6301082463010884630108B8
:103A6000044B1B6853F82100034B1B6803EB400019
:103A7000704700BFCC1A0020D01A002006207047E3
:103A800000487047DC1A002010B5FFF7BFFE044C59
:103A90002060FFF7F9FE6060FFF77CFEA06010BDBC
:103AA000DC1A0020704710B54FF4AE7104460FF0D9
:103AB00017F9204610BD10B50446D0F8580100F0A3
:103AC00015F82046BDE8104009F0BAB810B5044614
:103AD000FEF7B8FF014B2360204610BDFC510108E2
:103AE00000225F21C0E90021826070470368013332
:103AF00003607047704704387047704710B5102155
:103B000004460FF0EDF8204610BDA0F10400F5E7E3
:103B100000228260024A026018324260C16070472F
:103B2000505201087047D0F87C310133C0F87C3125
:103B30007047000010B5034B03600446FFF7B0F870
:103B4000204610BD7852010810B50446FFF7F2FF79
:103B500020464FF4C0710FF0C3F8204610BD00009E
:103B600010B50446FFF75AF9034B23600023C4F84D
:103B70007C31204610BD00BF7852010810B50446C4
:103B8000FFF78FF8064B074A1B6804F1EC00402151
:103B90000CF018F904F1A000BDE810400AF080B95B
:103BA000DC160020744A01087047043870477047DB
:103BB00010B5102104460FF093F8204610BDA0F177
:103BC0000400F5E700228260024A02601832426077
:103BD000C1607047AC52010870470000174BD0F825
:103BE000082513B51968164C8A42C8BF1A603223DB
:103BF00000F5A362C0F8E8340021A023C0F8EC343B
:103C00001160F022C0F820356423C0F81C25C0F8EC
:103C1000243503220023C0F82835C0F80425C0F855
:103C2000083580F81035002320681A460DF106018A
:103C300003F0C5FB0028F6D002B010BDDC16002052
:103C4000EC16002010B5034B03600446FFF7DDF9C6
:103C5000204610BDD452010810B50446FFF7F2FF0C
:103C6000204640F22C510FF03BF8204610BD0000DA
:103C700010B50446FFF7D0FA114B236004F5A36298
:103C80003223C4F8E8340021A023C4F8EC341160D6
:103C9000F022C4F820356423C4F81C25C4F8243568
:103CA00003220023C4F82835C4F80425C4F80835D5
:103CB000C4F80C3584F81035C4F81435204610BD0E
:103CC000D4520108044B186880EA403080EA504022
:103CD00080EA40101860704714000020FFF796B982
:103CE0002DE9F74390F81055044675B1D0F8143516
:103CF0000133B32BC0F8143540F31D8108F0F6FEF4
:103D000003B0BDE8F043FEF7CDBE8C482B460068FB
:103D10002A460DF1060103F052FB04F5A36310B926
:103D20004FF040421A60D3ED007A9FED857AD4F8C7
:103D3000EC1477EE877AC3ED007AFDEEE77A17EEA2
:103D4000902A521800F19E80B2F58C7FC4F8EC24C2
:103D500000F39E8004F51F76B4F9E81412B23046E1
:103D6000FFF72AF8D4F80425D4F82815D4F81C3520
:103D7000891A11F5A07FD8BF00219B1AC4F8281515
:103D8000A4F84C1113F11E0F01F5A071A4F87811DD
:103D9000C0F28580C4F81C35D4F82435D4F8202529
:103DA000B4F91C1503EBD3735B105B42A2EB030861
:103DB0001A4404F56977C83A12B2384604F55E79B8
:103DC000FEF7FAFFB4F91C150FFA88F24846FEF721
:103DD000F3FFB4F9A823B4F9803202F11E018B423B
:103DE00010DA03F11E018A420CDAB4F9AA13B4F90D
:103DF000822201F1C800824204DA1E329142ACBF35
:103E000000250125B4F97C2302F11E018B4277DAEB
:103E10001E339A4274DAB4F97E23B4F9823202F185
:103E2000C8018B426CDA1E330DB99A426ADA454BEF
:103E300003221A70012384F8103500230125424A19
:103E4000C4F814354021D4F8083504F58A600BF025
:103E5000B9FF04F54B7084F851530AF021F83B4B3D
:103E6000D4F8082519688A42A7BF84F8255304F5B9
:103E7000407084F8F95204F53570A8BF1A600AF052
:103E80000FF843E000220021C4F8EC24196061E738
:103E9000012384F810352B4B032119705AE7F023C6
:103EA000C4F81C35FFF70EFFA023B0FBF3F101FBB4
:103EB00013005030C4F82005FFF704FF1E23B0FBA9
:103EC000F3F101FB13005A30D4F808351D49C4F84A
:103ED0002405022001330870052193FBF1F101EB69
:103EE00081018B42C4F8083504D1072ADCBF0132B6
:103EF000C4F80425154A11688B42C8BF13604BE70C
:103F0000002D94D194F81035002B96D1D4F80835B3
:103F10000D4A402104F574700BF054FF04F5D07085
:103F200009F0BEFF304609F0BBFF384609F0B8FF84
:103F3000484609F0B5FF03B0BDE8F083EC16002059
:103F4000CDCCCC3EE4160020744A0108DC160020DB
:103F5000F02070474FF4A07070472920FDF7B4BDE2
:103F60002820FDF7B1BD08B5FDF782FDCA20FDF799
:103F7000ABFDC320FDF78CFD0820FDF789FD502027
:103F8000FDF786FDCF20FDF79FFD0020FDF780FDAA
:103F9000C120FDF77DFD3020FDF77AFDED20FDF716
:103FA00093FD6420FDF774FD0320FDF771FD1220E1
:103FB000FDF76EFD8120FDF76BFDE820FDF784FD28
:103FC0008520FDF765FD0020FDF762FD7820FDF7F7
:103FD0005FFDCB20FDF778FD3920FDF759FD2C2042
:103FE000FDF756FD0020FDF753FD3420FDF750FD91
:103FF0000220FDF74DFDF720FDF766FD2020FDF7BF
:1040000047FDEA20FDF760FD0020FDF741FD00209F
:10401000FDF73EFDB120FDF757FD0020FDF738FD0F
:104020001B20FDF735FDB620FDF74EFD0A20FDF7FC
:104030002FFDA220FDF72CFDC020FDF745FD10202F
:10404000FDF726FDC120FDF73FFD1020FDF720FD07
:10405000C520FDF739FD4520FDF71AFD1520FDF7B8
:1040600017FDC720FDF730FD9020FDF711FD36202C
:10407000FDF72AFDC820FDF70BFDF220FDF724FD1A
:104080000020FDF705FDB020FDF71EFDC220FDF765
:10409000FFFCB620FDF718FD0A20FDF7F9FCA7206C
:1040A000FDF7F6FC2720FDF7F3FC0420FDF7F0FCFC
:1040B0002A20FDF709FD0020FDF7EAFC0020FDF7AE
:1040C000E7FC0020FDF7E4FCEF20FDF7E1FC2B20EE
:1040D000FDF7FAFC0020FDF7DBFC0020FDF7D8FC23
:1040E0000120FDF7D5FC3F20FDF7D2FCF620FDF7BF
:1040F000EBFC0120FDF7CCFC0020FDF7C9FC0620FD
:10410000FDF7C6FC2C20FDF7DFFCC820FDF728FDDD
:104110002620FDF7D9FC0120FDF7BAFCE020FDF7D1
:10412000D3FC0F20FDF7B4FC2920FDF7B1FC2420BF
:10413000FDF7AEFC0C20FDF7ABFC0E20FDF7A8FC54
:104140000920FDF7A5FC4E20FDF7A2FC7820FDF725
:104150009FFC3C20FDF79CFC0920FDF799FC1320F7
:10416000FDF796FC0520FDF793FC1720FDF790FC6A
:104170001120FDF78DFC0020FDF78AFCE120FDF702
:10418000A3FC0020FDF784FC1620FDF781FC1B201A
:10419000FDF77EFC0420FDF77BFC1120FDF778FC89
:1041A0000720FDF775FC3120FDF772FC3320FDF789
:1041B0006FFC4220FDF76CFC0520FDF769FC0C202C
:1041C000FDF766FC0A20FDF763FC2820FDF760FC84
:1041D0002F20FDF75DFC0F20FDF75AFC1120FDF7A5
:1041E00073FCC820FDF7BCFC2920FDF76DFCBDE881
:1041F00008402C20FDF768BC08B5FDF739FC032109
:10420000D320FDF77DFC80B208BD10B5C4B20222F8
:1042100003212046FDF7E4FB0A20FDF727FC20469A
:1042200000220321FDF7DCFBBDE810400220FDF772
:104230001DBC38B50446E4B2FDF7D0FB0021204692
:10424000FDF7E4FB012105462046FDF7DFFB40EAD0
:10425000052080B238BD10B5C4B240212046FDF71C
:10426000D5FB030607D54C212046FDF7CFFB0038D0
:1042700018BF012010BD01224B212046FDF7B0FBE5
:10428000204600224B21FDF7ABFB0020F2E773B57F
:104290000423C4B20E461546D7210DEB0302204677
:1042A000FDF7CEFB019B1BBA1A0DC3F30B23328023
:1042B00020462B8001224B21FDF792FB00224B214F
:1042C0002046FDF78DFB02B070BD000010B50A4A14
:1042D0001378984204460DD0517888420AD00BB129
:1042E00041B90123D454FDF779FB2046BDE81040C5
:1042F000FFF78BBF10BD00BFE81A002010B5C4B295
:1043000009212046FDF782FB40F00102D2B220468F
:104310000921BDE81040FDF763BB10B5C4B2092107
:104320002046FDF773FB092100F0FE022046BDE8A0
:104330001040FDF755BB38B5C4B20D4620460A21E2
:10434000FDF764FB40EA0502D2B220460A21BDE82F
:104350003840FDF745BB10B50446FDF740FB20464D
:104360001F21FFF7E8FF2046BDE81040FFF7C6BF5A
:1043700038B5C4B20D4620460A21FDF747FB20EAB6
:104380000502D2B220460A21BDE83840FDF728BB1D
:1043900010B50446FFF7C1FF20461F21BDE81040BD
:1043A000FFF7E6BF10B5C0B20C460B21FDF72EFBA0
:1043B000204010BD1F21FFF7F5BF0A46C0B20B21F8
:1043C000FDF70EBB1F21FFF7F8BF38B5C4B20D468D
:1043D00020461721FDF71AFB20EA0502D2B220463B
:1043E0001721BDE83840FDF7FBBA70B5C4B20646E8
:1043F00004212046FDF70AFB042100F0FB020546DC
:104400002046FDF7EDFA3046F021FFF7DEFF05F01C
:10441000F80220460421FDF7E3FA49222021204634
:10442000FDF7DEFA0220FDF721FB204601222121C3
:10443000FDF7D6FA20469A224121FDF7D1FA20460F
:1044400001224A21FDF7CCFA204601224B21FDF73B
:10445000C7FA204600224B21FDF7C2FA204601226E
:104460005621FDF7BDFA204601225821FDF7B8FA82
:10447000204601224021FDF7B3FA2046FF220B21FE
:10448000FDF7AEFABDE870400220FDF7EFBA00007C
:10449000054BD3F8882042F47002C3F888204FF00F
:1044A00000629A60704700BF00ED00E008B50B4B5A
:1044B0001A6842F400721A601A6842F480621A6044
:1044C0001A6842F480721A60032000F005FA002096
:1044D000FDF734FEFDF752FB002008BD003C024012
:1044E000034A044B11681B780B441360704700BFEC
:1044F000EC1A00207C000020014B1868704700BFB8
:10450000EC1A002038B50446FFF7F6FF631C1CBF09
:10451000054B1B78054618BFE418FFF7EDFF431B5A
:10452000A342FAD338BD00BF7C00002038B5044652
:10453000002800F09B80056C25B9FDF73FFB656402
:1045400084F83C50236CDB0600F18E80236C23F44E
:10455000885323F0020343F002032364444B5A6858
:1045600022F440325A605A6861680A435A602368EC
:1045700021695A6822F480725A605A6842EA01221C
:104580005A605A68A16822F040725A605A680A4319
:104590005A609A68E16822F400629A609A680A4355
:1045A0009A603449A26A8A4252D0996821F07061B7
:1045B000996099680A439A609A68E16A22F04052C9
:1045C0009A609A680A439A609A6822F002029A6096
:1045D0009A68217E42EA41029A6094F82020002ADB
:1045E0003ED05A68616A42F400625A605A6822F406
:1045F00060425A605A68013942EA41325A60DA6AC6
:10460000E16922F47002DA62DA6A013942EA01529F
:10461000DA629A6822F400729A609A6894F830100C
:1046200042EA41229A609A68616922F480629A6043
:104630009A68002042EA81229A606064236C23F029
:10464000030343F001032364002384F83C3038BDA6
:104650009A6822F070629A609A6822F04052B2E73B
:104660005A6822F40062C9E70120EDE70120EEE775
:10467000002301400100000F704770477047036836
:1046800070B51E685D68B20704462BD5A80629D50B
:10469000226CD1065EBF226C42F4007222649A68DA
:1046A00012F0405F17D1227EAAB9DA6A12F4700FB5
:1046B00002D09A6852050ED45A6822F020025A603D
:1046C000236C23F480732364236CD8045EBF236CB3
:1046D00043F0010323642046FFF7CEFF23686FF009
:1046E00012021A60710733D52A0631D5236CDB0616
:1046F0005EBF236C43F40053236423689A6812F46A
:10470000401F1ED19A6B12F4401F02D09A685005C8
:1047100017D45A68510514D49A6812F0405F10D12A
:10472000227E72B95A6822F080025A60236C23F408
:1047300080532364236CDA055EBF236C43F00103CE
:104740002364204600F0C6F823686FF00C021A605C
:10475000F30710D568060ED523681B68D9070AD55C
:10476000236C43F4803323642046FFF786FF2368DD
:104770006FF001021A60B2060ED56B010CD5636CA6
:1047800043F00203636423686FF020051D60204638
:10479000FFF774FF23681D6070BD0000F7B50023AC
:1047A000019390F83C30012B054600F086800123F0
:1047B00080F83C3008682B688E68092884B233D9A9
:1047C00004EB4402DF681E3A4FF0070C0CFA02FCBF
:1047D00027EA0C07DF60DF6806FA02F23A43DA6084
:1047E0004968062901EB81022DD8596B053A1F262D
:1047F000964021EA06015963596B04FA02F20A4312
:104800005A632F4A93420AD1122837D12D4B5A6846
:1048100022F400025A605A6842F480025A60002072
:1048200085F83C0003B0F0BD1A6900EB400C072787
:1048300007FA0CF722EA07021A611A6906FA0CF65F
:1048400016431E61CCE70C294FF01F010BD81E6BDD
:10485000233A914026EA01011963196B04FA02F226
:104860000A431A63CDE7DE6A413A914026EA010124
:10487000D962D96A94400C43DC62C2E7124B984279
:1048800001D01128CBD10F4B5A6822F480025A6014
:104890005A6842F400025A600B4B9842BFD10B4B4E
:1048A0000B4A1B68B3FBF2F30A2253430193019BAB
:1048B000002BB4D0019B013BF8E70220B2E700BF18
:1048C0000020014000230140120000107800002069
:1048D00040420F00704700000749CA6822F4E062B6
:1048E0000302120403F4E063120C134343F0BF63AA
:1048F00043F40033CB60704700ED00E0164B30B559
:10490000DC68C4F30224C4F10703251D042B28BF6F
:104910000423062D4FF0FF358CBF033C002405FA1D
:1049200003F321EA0303A54022EA0502A34000287D
:1049300043EA0203ACBF00F16040084A4FEA0313A8
:10494000B8BF00F00F00DBB2AABF00F561401354FE
:1049500080F8003330BD00BF00ED00E014ED00E052
:10496000002807DB044A4109012300F01F008340AF
:1049700042F82130704700BF00E100E010B5044666
:1049800050B1437903F0FF0213B90271FDF776F9D4
:1049900001236371002010BD0120FCE710B504461F
:1049A00020B390F8393003F0FF021BB980F83820AB
:1049B000FDF77CF9022384F83930236861681A68AE
:1049C00022F440320A431A605A6BA16822F00702AF
:1049D0000A435A631A6CE1686FF30D020A431A64C2
:1049E00000200123E06384F8393010BD0120FCE78A
:1049F00070477047036870B55E681D68F20704462B
:104A000014D5E90512D51A6822F480721A60C26BB7
:104A100042F00102C26301229A60042380F8393017
:104A2000002380F83830436903B19847B20616D5A1
:104A3000AB0414D523681A6822F400521A602022AD
:104A40009A60E36B43F00203E363042384F8393094
:104A5000002384F8383063690BB12046984730074B
:104A600016D5290514D523681A6822F400621A6045
:104A700008229A60E36B43F00403E363042384F8A1
:104A80003930002384F8383063690BB120469847E9
:104A900072070BD56B0509D523681A6822F480626A
:104AA0001A6004229A602046FFF7A2FFB00714D5CF
:104AB000A90512D523681A6822F400721A6002222E
:104AC0009A60E36BE363012384F83930002384F8B0
:104AD000383023690BB120469847F20613D5EB0412
:104AE00011D523681A6822F480521A6010229A6045
:104AF000E36BE363012384F83930002384F8383012
:104B00002046FFF776FF70BDF0B590F83820012AF7
:104B100003464FF002002BD0012283F8382083F89F
:104B2000390003EB0112D2E90740556A174E44EAF7
:104B30000040093C012C9CBF05F07F4210434FEA26
:104B400001171A6888BF40EA056091B9516A31407F
:104B500001435162012C9969916103D8596A21F08E
:104B60007F4191620122002083F8392083F83800C8
:104B7000F0BDD16931400143D161D919012C896956
:104B800011619CBF25F07F451562EBE7F0FFFC004B
:104B90002DE9F74FDFF8BC916C4A00230D68012422
:104BA0009C4004EA0506AC4340F0B7804D680327FB
:104BB00005F003044FEA430807FA08FC671E012FBB
:104BC0006FEA0C0C34D8876807EA0C0ECF6807FA36
:104BD00008F747EA0E078760476827EA060EC5F31D
:104BE00000179F4047EA0E074760C76807EA0C0EA8
:104BF0008F6807FA08F747EA0E07022CC76019D139
:104C00004FEAD30A00EB8A0A03F0070BDAF82070A8
:104C10004FEA8B0B4FF00F0E0EFA0BFE27EA0E0E2B
:104C20000F6907FA0BF747EA0E07CAF8207001E090
:104C3000032CDAD1076804FA08F407EA0C073C43AE
:104C400015F4403F046068D000240194D9F8444032
:104C500044F48044C9F84440D9F8444023F00307A1
:104C600007F1804704F4804407F59C37019403F072
:104C7000030C019CD7F808E04FEA8C0C0F2404FACF
:104C80000CF42EEA040E324CA0424DD004F58064A0
:104C9000A0424BD004F58064A04249D004F5806462
:104CA000A04247D004F58064A04245D004F580645A
:104CB000A04243D004F58064A04241D004F5806452
:104CC000A0423FD004F58064A0423DD004F580644A
:104CD000A04214BF0A24092404FA0CF444EA0E0486
:104CE000BC609468F74315F4801F0CBF3C4034430C
:104CF0009460D46815F4001F0CBF3C403443D4606A
:104D0000546815F4003F0CBF3C40344354601468B1
:104D1000ED0354BF3C40344314600133102B7FF447
:104D20003DAF03B0BDE8F08F0024D5E70124D3E701
:104D30000224D1E70324CFE70424CDE70524CBE701
:104D40000624C9E70724C7E70824C5E7003C01405B
:104D5000000002400038024000690840003818BFD7
:104D6000012070470AB1816170470904FBE743697C
:104D700001EA030221EA030141EA0241816170472D
:104D800070470000044A5169014208B502D05061E1
:104D9000FFF7F6FF08BD00BF003C014001684B690A
:104DA00013F480634FF0000210D06FF480634B6106
:104DB0002023026380F83D3080F83E20036C80F8A9
:104DC0003C2043F0040303640120704718467047F9
:104DD0002DE9F84606460F4691461D464FEA114A10
:104DE0003368BAF1010F39D15C6927EA0404A4B22F
:104DF000B4FA84F46409A14501D0002024E06A1CBF
:104E0000EFD0FFF779FB089BC01AA84201D8002D0C
:104E1000E6D1BAF1010F336818D15B6927EA0303C1
:104E20009BB2B3FA83F35B099945D9D100232022C1
:104E3000336386F83D2086F83E30326C86F83C308D
:104E400042F0200232640120BDE8F8869B69DB4312
:104E5000C3F3400383F00103DBB2E5E79C69E4435D
:104E6000C4F3400484F00104E4B2C4E72DE9F04146
:104E700004460F46164698462568686927EA0000EA
:104E800080B2C0B16B695A0517D52B6843F4007323
:104E90002B606FF480636B6120220023236384F80E
:104EA0003D2084F83E30236C43F004032364002348
:104EB00084F83C300120BDE8F081731CDDD0FFF7A1
:104EC0001BFBA0EB0800B04201D8002ED4D1236810
:104ED0005A6927EA020292B2002ACDD0002320228A
:104EE000236384F83D2084F83E30236C1343DDE7D0
:104EF00070B504460D46164623685B691B0601D54E
:104F000000201EE02046FFF749FFC8B96A1CF3D015
:104F1000FFF7F2FA801BA84201D8002DECD12368DC
:104F20005B6913F08003E7D12022236384F83D20DE
:104F300084F83E30226C84F83C3042F02002226437
:104F4000012070BD2DE9F0431546026885B0DDE90A
:104F50000C789946136843F4807313600E463B4601
:104F6000CDF8008000224FF001110446FFF730FF1A
:104F7000236838B11B68DB0502D54FF40073236446
:104F8000032620E006F0FE061E611A4943463A4613
:104F90002046FFF76BFFA8B9236803905A69039274
:104FA0009B690393424639462046039BFFF7A0FFC7
:104FB000064660B1236C042B01BF2268136843F4DA
:104FC000007313600126304605B0BDE8F083B9F1E7
:104FD000010F236802D1EDB21D61F4E72A0A1A61BC
:104FE000394642462046FFF783FF0028E2D1236876
:104FF000F1E700BF020001002DE9FF479A46036870
:1050000015461A6842F480621A601A68DDE90C7865
:1050100042F480721A600E463B46CDF800800022B2
:105020004FF001110446FFF7D3FE236838B11B6827
:10503000DB0544BF4FF400732364032021E05FFAD3
:1050400086F906F0FE061E612A4943463A46204686
:10505000FFF70CFFA0B9236803905A6903929B697C
:105060000393424639462046039BFFF741FF58B160
:10507000236C042B01BF2268136843F40073136090
:10508000012004B0BDE8F087BAF1010F23681AD1FE
:10509000EDB242461D6139462046FFF729FF024620
:1050A0000028E5D121680B6843F480730B6020462B
:1050B000CDF800803B464FF00111FFF789FE2268D2
:1050C00060B11368B4E72A0A1A613946424620469D
:1050D000FFF70EFF0028CBD12368D9E749F0010381
:1050E00004491361204643463A4604B0BDE8F04700
:1050F000FFF7BCBE0200010070B504460D4616461F
:1051000023685B695B0701D500201EE02046FFF79E
:1051100045FEC8B96A1CF3D0FFF7EEF9801BA84220
:1051200001D8002DECD123685B6913F00403E7D1AB
:105130002022236384F83D2084F83E30226C84F8DA
:105140003C3042F020022264012070BD70B504465C
:105150000D46164621684B6913F0400301D000202C
:1051600011E04A69D2060FD56FF010024A61202281
:10517000236384F83D2084F83E30236C23640023AD
:1051800084F83C30012070BDFFF7B6F9801BA842BF
:1051900001D8002DDED123685B6913F04003D9D11B
:1051A0002022236384F83D2084F83E30236C13438F
:1051B000E4E7000070B5044608B9012070BD90F81E
:1051C0003D3003F0FF021BB980F83C20FCF78EFD58
:1051D000242384F83D3023681A6822F001021A6003
:1051E0001A6842F400421A601A6822F400421A60F7
:1051F00000F04EFE3F4B65689D4294BF3E4B3F4BD7
:1052000098428CBF00230123002BD6D12268394E4F
:1052100051683B4BB0FBF3F321F03F011943B5421A
:10522000516088BF4FF49676116A88BF734321F0AE
:105230003F0184BF4FF47A76B3FBF6F301330B439F
:105240001362D169431E2B4821F44F41854221F05E
:10525000FF0132D86D0040F6FC70B3FBF5F301336B
:10526000034242D0C3F30B031943D161D4E90730A1
:105270001168034321F0C0010B4313609168D4E926
:10528000030321F40341034321F0FF010B43936027
:10529000D4E90530D168034321F0FF010B43D3600B
:1052A000136843F00103136000202023206484F876
:1052B0003D30206384F83E0080E7A06850B905EBDC
:1052C0004505B3FBF5F30133C3F30B037BB143F4A3
:1052D0000043C9E719206843B3FBF0F30133C3F37C
:1052E0000B0323B143F44043BEE70423BCE701238F
:1052F000BAE700BFA08601007F841E00FF083D00C2
:1053000040420F002DE9F743044699460C9E0F4694
:105310009046FFF7F1F894F83D30202B054603D076
:10532000022003B0BDE8F08300903C49192301221C
:105330002046FFF74DFD0028F2D194F83C30012BB8
:10534000EED02068012384F83C300368D9075EBFA3
:10535000036843F001030360036823F40063036000
:10536000212384F83D30402384F83E300023236419
:105370000A9B6362BDF82C306385638D2385284BBF
:10538000E3624246CDE900654B4639462046FFF7C9
:10539000D9FD00282AD00120C3E7FFF7A9FD40B1BD
:1053A000236C042B01BF2268136843F4007313605D
:1053B000F1E7636A27681A4612F8011B39616262D5
:1053C000628D218D013A92B262857A69481E80B25F
:1053D000520720850AD548B15A783A610233636290
:1053E000638D013B02399BB221856385238D2A465B
:1053F00031462046002BD0D1FFF77EFE0028CFD1CA
:105400002268136843F400731360202384F83D304E
:1054100084F83C0084F83E0083E700BF02001000DF
:105420000000FFFF2DE9F043044687B09946109F26
:105430000D469046FFF760F894F83D30202B064665
:1054400004D00225284607B0BDE8F08300907949D2
:10545000192301222046FFF7BBFC0028F1D194F864
:105460003C30012BEDD02068012384F83C300368E8
:10547000DB075EBF036843F001030360036823F4A6
:1054800000630360222384F83D30402384F83E30DB
:10549000002323640E9B6362BDF83C306385638DFB
:1054A0002385654BE3622946CDE900764B464246AB
:1054B0002046FFF7A1FD054608B10125C2E7228D70
:1054C0002368A2B902905A6902929A690292029ADA
:1054D0001A6842F400721A60238D002B2CD120220E
:1054E00084F83D2084F83C3084F83E30AAE7012A55
:1054F0000AD11A6822F480621A6003905A690392F2
:105500009A690392039AE3E7022A0ED11A6822F4F9
:1055100080621A601A6842F400621A6004905A6944
:1055200004929B690493049BD6E705905A690592FF
:105530009B690593059BCFE7032B56D8012B15D10B
:10554000324639462046FFF701FE0028B5D12368D0
:105550001A69636A1A70636A01336362238D013BBF
:105560002385638D013B9BB26385B5E7022B3349ED
:1055700000963B464FF00002204619D1FFF728FC69
:1055800000289AD123681A6842F400721A601A69D6
:10559000636A1A70626A531C6362238D013B238520
:1055A000638D013B9BB2638523681B695370D2E70F
:1055B000FFF70EFC024600287FF47FAF23681968CE
:1055C00021F4806119601969636A1970636A1B4963
:1055D00001336362238D013B2385638D013B9BB2C5
:1055E0006385204600963B46C8E73246394620464A
:1055F000FFF7ACFD00287FF460AF23681A69636A87
:105600001A70628D616A013A92B24B1C62852268FF
:105610006362238D5069013B9BB2400723857FF570
:105620005BAF032B02BF136823F48063136013691D
:105630004B7090E7020010000000FFFF0400010023
:1056400010B590F83D30202BDCB216D1242380F821
:105650003D3003681A6822F001021A605A6A22F08B
:1056600010025A625A6A114359621A6842F00102E2
:105670001A6080F83D40002010BD0220FCE730B5E4
:1056800090F83D30202BDCB216D10268242380F83C
:105690003D30136823F001031360556A4FF6F07331
:1056A0002B400B439BB25362136843F0010313601A
:1056B00080F83D40002030BD0220FCE70068D201A8
:1056C00084328318F0B5C7685D684C680E6805F4CD
:1056D00070455D60C56806F1010CC5F30B45C7F365
:1056E0000B472744654445EA07455D60C768CD68B8
:1056F000C7F30A072F449D6805F470459D60D0F8F4
:105700000CC08D68CCF30A0C0135654445EA0745A9
:105710009D601D69D1F810C08F6925F007051D61D6
:10572000C3F810C091F8305045EA076591F8317020
:1057300045EA072591F8327045EA07459D615D69A4
:1057400025F0FF055D614D695D61DD6925F4E0656A
:1057500025F00705DD61D1E907573D43DD61BCF167
:10576000070F4D6A9D629CBF0D4D15F80C70DD6AE8
:1057700005F0E025DD6288BF01278D6AC96AA41B98
:105780007C437D43033444EA0544DC621C6B6FF3C5
:105790000A041C631963835843F001038350F0BD6E
:1057A0001C53010838B5044600284ED090F8A130AB
:1057B00003F0FF021BB980F8A020FCF7F3FA0223E4
:1057C00084F8A13023689A6922F070429A61D4E982
:1057D00001200243E06899690243206902430A43B9
:1057E0009A61D4E9051242EA01429A60D4E90712AB
:1057F00042EA0142DA60D4E9091242EA01421A613E
:10580000D4E90B1242EA01425A61DA6A94F835008F
:1058100094F8361002F07F42DA62DD6A94F83420A0
:105820002A4342EA002242EA0142DA625A6B42F01B
:1058300006025A639A6942F001029A61002001232C
:10584000C4F8A40084F8A13038BD0120FCE77047FB
:105850007047036870B59E6B5D6B7207044614D584
:10586000690712D55A6B22F004025A630422DA63E4
:10587000D0F8A43043F00103C0F8A430002380F82E
:10588000A12080F8A030FFF7E2FFB20716D5AB07E2
:1058900014D523685A6B22F002025A630222DA639B
:1058A000D4F8A4301343C4F8A430042384F8A130FE
:1058B000002384F8A0302046FFF7C9FFF00710D579
:1058C000E9070ED523685A6B22F001025A630122C0
:1058D000DA63002384F8A12084F8A0302046FBF787
:1058E000BFFC320711D52B070FD523685A6B22F066
:1058F00008025A630822DA63012384F8A1300023E6
:1059000084F8A0302046FFF7A3FF70BD2DE9F041D9
:1059100090F8A030012B06460F4694464FF0020047
:105920001FD04FF0010886F8A08086F8A10034242B
:105930000D4604FB02640FCD38340FC40FCD0FC4E5
:105940000FCD0FC42B682360304662463946FFF7FF
:10595000B5FE33680020C3F8248086F8A18086F85D
:10596000A000BDE8F081000090F8A020012A0346C5
:105970004FF0020012D01A6883F8A100506B20F09B
:105980000100506306480164516B41F0010151630D
:105990000020012283F8A12083F8A000704700BFF7
:1059A000006801402DE9F341044640B30368DE0777
:1059B00010D423689D075BD42368190700F19D80EC
:1059C00023685A0700F1BD80A369002B40F02481B1
:1059D00000202CE08D4B9A6802F00C02042A07D0BC
:1059E0009A6802F00C02082A0BD15B68590208D5AC
:1059F000864B1B689A03DCD56368002BD9D1012044
:105A000015E06368814DB3F5803F13D12B6843F4F3
:105A100080332B60FEF770FD7C4E054633689B0398
:105A2000C7D4FEF769FD401B6428F7D9032002B0F4
:105A3000BDE8F081B3F5A02F04D12B6843F4802397
:105A40002B60E3E72A6822F480322A602A6822F475
:105A500080222A60002BDDD1FEF74EFD06462B6822
:105A60009F03A6D5FEF748FD801B6428F7D9DDE724
:105A7000664B9A6812F00C0F07D09A6802F00C027D
:105A8000082A11D15B685D020ED4604A1368990739
:105A900002D5E368012BB2D11368216923F0F80322
:105AA00043EAC103136087E7E268594BB2B10122B0
:105AB0001A60FEF721FD554D06462B689B0707D55A
:105AC0002B68226923F0F80343EAC2032B6073E7D3
:105AD000FEF712FD801B0228EFD9A7E71A60FEF738
