:020000040800F2
:1000000000000320BD050008492200084B2200081B
:100010004D2200084F220008512200080000000075
:1000200000000000000000000000000061880008DF
:100030005322000800000000F18800086F810008CA
:100040000D0600080D0600080D0600080D06000844
:100050000D0600080D060008952200080D06000890
:100060000D0600080D0600080D0600080D06000824
:100070000D0600080D0600080D0600080D06000814
:100080000D0600080D060008552200080D060008A0
:100090000D0600080D0600080D0600080D060008F4
:1000A0000D0600080D0600080D0600080D060008E4
:1000B0000D0600080D0600080D0600080D060008D4
:1000C0000D0600080D0600080D0600080D060008C4
:1000D0000D0600080D0600080D0600080D060008B4
:1000E0000D0600080D0600080D0600080D060008A4
:1000F0000D0600080D0600080D0600080D06000894
:100100000D0600080D0600080D0600080D06000883
:100110000D0600080D060008712200080D060008F3
:100120000D0600080D0600080D0600080D06000863
:100130000D0600080D0600080D0600080D06000853
:100140000D0600080D0600080D0600080D06000843
:100150000D0600080D0600080D0600080D06000833
:100160000D0600080D0600080D0600080D06000823
:100170000D0600080D0600080D060008000000002E
:100180000D0600080D0600080D0600080D06000803
:100190000D0600080D0600080D0600080D060008F3
:0C01A0007D2200080D06000889220008DE
:1001B00010B5054C237833B9044B13B10448AFF3A1
:1001C00000800123237010BDF40000200000000017
:1001D0003070010808B5034B1BB103490348AFF366
:1001E000008008BD00000000F80000203070010809
:1001F00001F0FF01102A2BDB10F0070F08D010F8D8
:10020000013B013A8B422DD010F0070F42B3F6D1DB
:10021000F0B441EA012141EA014122F007047FF0F4
:1002200000070023F0E80256083C85EA010586EA4B
:10023000010685FA47F5A3FA87F586FA47F6A5FA87
:1002400087F68EB9EED1F0BC01F0FF0102F0070293
:1002500032B110F8013B013A83EA010313B1F8D13E
:100260000020704701387047002D06BF354603381F
:10027000073815F0010F07D1013015F4807F02BF58
:10028000013015F4C03F0130F0BC0138704700BFA9
:1002900053B94AB9002908BF00281CBF4FF0FF31ED
:1002A0004FF0FF3000F088B9ADF1080C6DE904CED5
:1002B00000F006F8DDF804E0DDE9022304B0704741
:1002C0002DE9F047089D0F4604468C46002B48D187
:1002D0008A42164661D9B2FA82F34BB1C3F12002C9
:1002E00001FA03FC20FA02F29E4042EA0C0C9C4008
:1002F0004FEA164EB7B2BCFBFEF1220C0EFB11CC3E
:1003000042EA0C4201FB07F0904209D9B21801F110
:10031000FF3C80F0EE80904240F2EB8002393244A4
:10032000121AA4B2B2FBFEF00EFB102244EA024401
:1003300000FB07F7A74209D9341900F1FF3280F01A
:10034000DA80A74240F2D7803444023840EA0140C4
:10035000E41B00211DB1DC400023C5E90043BDE8DA
:10036000F0878B4206D90DB1C5E90001002108468E
:10037000BDE8F087B3FA83F1002948D1BB4202D32C
:10038000824200F20781841A67EB0302012094463F
:10039000002DE4D0C5E9004CE1E7002A00F092808E
:1003A000B2FA82F3002B40F0A8808A1A4FEA164E68
:1003B0001FFA86FC0121200CB2FBFEF70EFB172270
:1003C00040EA02420CFB07F0904207D9B21807F14D
:1003D000FF3802D2904200F2E2804746121AA4B2DD
:1003E000B2FBFEF00EFB102244EA02440CFB00FCC0
:1003F000A44507D9341900F1FF3202D2A44500F216
:10040000CB801046A4EB0C0440EA0740A2E7C1F100
:1004100020068B4022FA06FC4CEA030C07FA01F492
:1004200020FA06F3F7404FEA1C49234300FA01F88B
:100430001FFA8CFEB7FBF9F01C0C09FB107744EA9D
:10044000074400FB0EF7A74202FA01F20AD91CEB9F
:10045000040400F1FF3A80F09B80A74240F29880AC
:1004600002386444E41B9FB2B4FBF9F309FB134464
:1004700047EA044403FB0EFEA64509D91CEB04041D
:1004800003F1FF3780F08280A6457FD9023B6444A8
:1004900043EA0040A4EB0E04A0FB02E7BC42734613
:1004A000B94663D360D05DB1B8EB030264EB0904D5
:1004B00004FA06F622FA01F31E43CC40C5E90064B3
:1004C00000214CE76208480842EAC1710B0C43EA7C
:1004D00000438AB242EA0342B3FBF6F1E407B446B2
:1004E0003746B6461F23B0FBF6F0D21B41EA004167
:1004F00061E7614614E7104628E7C3F1200120FABE
:1005000001F29E4027FA01F19F403A434FEA164E0E
:100510001FFA86FCB1FBFEF70EFB1710110C41EA27
:10052000004107FB0CF8884504FA03F43AD9711826
:1005300007F1FF3001D288451FD8A1EB0801B1FBBC
:10054000FEF808FB0CF70EFB181192B242EA0142CA
:10055000BA422FD2B21808F1FF31C6D2BA42C4D281
:10056000A8F102013244C0E7F0459CD2BEEB020381
:1005700067EB0C070138B94695E7A6EB080841443C
:10058000B81EB1FBFEF808FB0CF7DCE73B467FE743
:10059000504667E70846FBE63444023832E7023F3C
:1005A00032441BE7A1EB08013846B1FBFEF808FB1B
:1005B0000CF7C8E7414698E7704700BFDFF834D032
:1005C000002103E00C4B5B58435004310B480C4BAB
:1005D00042189A42F6D30B4A02E0002342F8043B49
:1005E000094B9A42F9D304F0C7FF15F0B9FF00F0A8
:1005F00089FF704700000320209E1608000000209D
:10060000F4000020F4000020603B0120FEE770476A
:1006100008B500F06FFDBDE8084000F0F5BC00F043
:100620006BBD704710B50421044615F05BFC2046F5
:1006300010BD000038B50C4B0C4C18800C4B8220C0
:1006400019806368984740F6110398420AD1094D12
:1006500023682C60822098472B688220DB689847AB
:10066000002038BD0120FCE71A01002050000020C6
:10067000180100201C0100204FF4A071F020FFF7AA
:10068000D9BF0000F7B5354D2B6804461B698220A1
:100690009847208000284BD02B680DF106025B693B
:1006A00001A982209847BDF8063040F67462934253
:1006B00040D9ADF80620BDF80630D21A92B20A2A07
:1006C0003ED90B23B2FBF3F2254B1B889A4201D98A
:1006D000013B9AB2BDF80430224840F6B8318B4253
:1006E00030D8C3F571630E3301689BB20F25B3FB9D
:1006F000F5F31D4D2D88AB4284BF05F1FF35ABB23C
:100700008B421D468EB226D99B1B99B2174F3E686D
:10071000B3B2B2428CBFD31A9B1A9BB219440529BB
:10072000C8BF05600368C4BF3A6016466380A680F0
:1007300003B0F0BDB32B9CBFB423ADF80630BAE7CD
:100740000022C7E7C3F56D6308339BB20E2B016827
:10075000CCD800252B46C91A89B2D7E71C01002046
:1007600018010020140100201A01002010010020AF
:1007700037B568460D461446FFF784FFBDF8000004
:1007800030B1BDF802302B60BDF804302360012089
:1007900003B030BD032821D8DFE800F0020B1219A6
:1007A0000F4B1A68B2FA82F2520904210D4805F083
:1007B0004DBB0B4B5A68B2FA82F252090821F5E799
:1007C000074B9A68B2FA82F252091021EEE7044B05
:1007D000DA68B2FA82F252092021E7E7704700BFD7
:1007E0002001002000100240032821D8DFE800F09B
:1007F000020B12190F4B1A68003A18BF012204218C
:100800000D4805F023BB0B4B5A68003A18BF012274
:100810000821F5E7074B9A68003A18BF012210211A
:10082000EEE7044BDA68003A18BF01222021E7E71F
:10083000704700BF200100200010024003280DD89F
:10084000DFE800F00206080A0421054805F003BBB2
:100850000821FAE71021F8E72021F6E7704700BFEA
:100860000010024008B5032811D8DFE800F0020AA2
:100870000C0E0421074805F0E3FA431E5842584184
:1008800008BD0821F6E71021F4E72021F2E7002057
:10089000F3E700BF0010024070B5084D00240126A8
:1008A000E0B2FFF7DFFF18B12B68012B18BF2E60F5
:1008B0000134052C05F10405F2D170BD20010020A2
:1008C000012380F8781080F8793070477047002055
:1008D00070470000034B4164003918BF01211970B3
:1008E000704700BFE3370120704700207047836BDB
:1008F0000BB10846184770474FF6FF7070474068C5
:1009000003689B6918477047704770477047704786
:1009100070B5044600F09AFC2368D3F88C50044B61
:10092000D4E90F122046AC46BDE87040604700BFD6
:10093000000000D008B503680446D3F88430984717
:1009400023682046DB6F984700F0ECF823682046C8
:100950005B6F9847292001F0EDF800F0E3F8236879
:1009600020465B6F9847F8E710B504460BF036F861
:1009700023682046D3F8BC30BDE81040184700F08B
:1009800057BC00F05BBC00F07FBC00F02DBC00F059
:100990007FBC00F087BC00F031BC0AF041BA10B552
:1009A0008421044615F09EFA204610BD10B590F83B
:1009B000341090F878400C4B8C421A7809D03AB930
:1009C0000A4A0B491488088810800C8001221A708A
:1009D00010BD002AFCD0054A0549148808881080FB
:1009E0000C800022F3E700BFDC370120D83701205C
:1009F000DA37012070B50D46194635B9094B0A4A58
:100A00000A4840F2FF2115F09BFAC0E90F52084B4B
:100A1000003A18BF01221A700368BDE87040D3F88D
:100A200090301847A0700108D8700108267101089D
:100A3000E237012008B5094B1B888B4203D8084BCD
:100A40001B88934205D9074B074A0848A32115F094
:100A500077FA074B1980074B1A8008BDD837012059
:100A6000DA3701206B710108CE7101082671010887
:100A7000DE370120E0370120034690F87A0018B1F4
:100A8000586803681B68184770470000012108B5C3
:100A90000022084607F0F4FB0A4B186028B90A4BFD
:100AA0000A4A28210A4815F04BFA002204210120A5
:100AB00007F08DFC074B186018B9074B034A2C212F
:100AC000F0E708BD34010020117201085A720108D4
:100AD0008972010830010020D1720108024B4FF0E9
:100AE000FF31186807F016BC34010020014B18686C
:100AF00007F03CBC34010020024B0021186807F0CD
:100B000009BC00BF34010020FFF7F0BF03480449CF
:100B1000006800231A4607F095BC00BF3001002092
:100B20000400002013B5084C00231A4601A92068D0
:100B300007F0B9FC20684FF0FF33002201A907F04D
:100B4000B2FC02B010BD00BF3001002003685B6C36
:100B500018470120704703689B6A1847FEE740F278
:100B6000EF307047054B0360054B4FF08062C3F8D0
:100B70008820BFF34F8FBFF36F8F7047B480010899
:100B800000E100E010B504464FF45A61FFF7EAFFB8
:100B9000204615F0A7F9204610BD000082B00023C2
:100BA00001930E4B1A6B42F400021A631A6B02F4A3
:100BB00000020192019A1A6942F400021A611A694C
:100BC00022F400021A61064B064A1A61064A5A616B
:100BD000064B4FF080629A6002B0704700380240C6
:100BE00010280020390E00085D0B000800E100E02D
:100BF00008B50A2809D8DFE800F006100E08080832
:100C0000081010101000022008BD054B054A0648C8
:100C1000902115F095F90020F6E70120F4E700BFD8
:100C2000137301082E7301087973010870B50C461F
:100C3000887FFFF7DDFFA18AE28A164B256958639A
:100C400042EA01425A64628BDD63521A1A642668D2
:100C5000E168082E0DD19A611A615862207F0E4A10
:100C600042EA0062DA610D4A19625D61DD601A6074
:100C700070BD0022D8611A6148090A0A02F478425C
:100C800000F4FC600243C1F3C4010A439A63044ABE
:100C9000EDE700BF00B0024009000100012302009F
:100CA0000123030008B50B280BD8DFE800F006127B
:100CB000100A0A0A0A0808080808022008BD0520C8
:100CC000FCE7054B054A06486F2115F039F900206D
:100CD000F4E70120F2E700BF13730108BF730108B6
:100CE000797301082DE9F04191F81D800C464046CA
:100CF000FFF7D8FFA77F05463846FFF7D3FF064624
:100D00003846FFF775FFA18A628B454B521A1A6469
:100D10009A61228B521A1A61E28A586342EA0142AE
:100D20005A6421696268D963DA60D4F800C0207F10
:100D3000BCF1800F4FEA006229D013D8BCF1200F1C
:100D400045EA020064D0BCF1400F61D0BCF1040F51
:100D50005ED0334B154345F40035B845DD615BD0BB
:100D6000304A40E0BCF5807F07D0BCF5007FF0D171
:100D700042F4003242F0090203E042F4003242F051
:100D80000A02DA61E2681A625E6259612AE0A468C6
:100D90002A4342F40032271DDF62DA6122785E6264
:100DA000596142B1012A21D01F4B204A20484FF4FB
:100DB0008D7115F0C5F8DA69618822F47F42013936
:100DC00022F0100242EA0122DA610121144BDA69B1
:100DD00042F02002DA61DA699206FCD410229A60AD
:100DE0000029BDD0134A1A60BDE8F081DA69B0F17C
:100DF000FF01608822F47F4200F1FF3022F01002F0
:100E000042EA002242F0100218BF0121DA61DDE758
:100E100040F40030D861B7E742F20132E3E700BFA7
:100E200000B0024001230100097401082374010885
:100E30007973010801230200024B1B68586803689C
:100E40005B691847E437012070B5044625460A4B14
:100E50000C30002660602672667245F8203B6022E6
:100E600029460AF011FF04F55A63EE6024359D42CD
:100E7000FBD1204670BD00BFB4800108034B1A6847
:100E8000D207FCD423229A60704700BF00B0024012
:100E900030B50F4C2568ED07FCD423250904A56067
:100EA00041F001010225FF2B65636164E0630AD014
:100EB0000849656241EA0363E361074B22626061AE
:100EC000E060236030BDE561039BA363034BF8E75B
:100ED00000B002400900010001000200010003000F
:100EE000012070474020704700EB811008307047A8
:100EF00000EB8110083070470120704741F2FC3050
:100F0000704741F2FC3303FB01000830704741F2A7
:100F1000FC3303FB010008307047012070471020AC
:100F2000704700EB01100830704700EB01100830EB
:100F30007047084601F022BD10B5034B036004461C
:100F400009F047FA204610BD6C81010810B504462F
:100F5000FFF7F2FF2046482114F0C4FF204610BDE1
:100F600010B5034B0360044609F033FA204610BD68
:100F70003881010810B50446FFF7F2FF204641F220
:100F8000044114F0AFFF204610BD000010B5034B24
:100F90000360044609F01DFA204610BD04810108D3
:100FA00010B50446FFF7F2FF2046182114F09AFF0F
:100FB000204610BD10B5094B0360044600F5A15052
:100FC0001030FFF7B9FF04F12C00FFF7C9FF04F15F
:100FD0001400FFF7DBFF204610BD00BFA081010811
:100FE00008B50248FFF7E6FF08BD00BFF40F002078
:100FF00010B50446FFF7DEFF20464FF4AF5114F062
:1010000071FF204610BD0000F7B501F0C9F9054693
:1010100001F0CAF9002401460094234622462846DE
:1010200011F0C6FC274B284A1A60204603F0AAF9A3
:101030002648274C11F024FC2368BFF35B8FDB07A5
:101040003AD4204614F050FF002835D0214A224ED1
:10105000224B136002F12C0702F1140006F1540533
:1010600097605060D660156109F0B4F91C4B47F8E1
:10107000183C384609F0AEF9A7F12C021746194B77
:10108000D362304609F0A6F907F5805303F58F6067
:10109000154AC3F8302403F0F1F93A4606F1480145
:1010A000284603F0E1F9284601F068FC0F4814F0E7
:1010B00065FF204614F024FF0D4803B0BDE8F04062
:1010C000FFF726BC48380120BC01002008000020A2
:1010D000F00F0020F40F002024240020A08101083C
:1010E00004810108388101086C810108E10F0008C2
:1010F00038010020704700000148FFF71BBC00BF0B
:101100003801002070B5254E254C264D264B236016
:101110003046FFF799FE284612F0AAFA234B2448DE
:10112000DC6000224FF48071C3E9121221491A8653
:10113000C3E91A12204983F85820C3E91E011F4948
:10114000C3F880101E491F480B60F021C3E9042238
:10115000C3E90622C3E90822C3E90A22C3E90E2231
:10116000C3E91022C3E91422C3E917225A6683F89F
:1011700070205A67C3E90165018013480180134854
:101180004FF4A07101801248018012490A700122B7
:1011900083F83420104A1A6070BD00BF4C02002052
:1011A000EC0F0020C00100209070010838010020E1
:1011B0000000010101000001000450001A001400A9
:1011C000E4370120D8370120DE370120DA3701204B
:1011D000E0370120DC370120C87F01080148FFF714
:1011E000C1BC00BF4C020020034B902283F85A235D
:1011F00083F85823704700BF00E100E0094A0A491C
:10120000D3680A48C3F30A03013B9BB20B80116900
:10121000C1F30A01013901801364536B43F00103E8
:101220005363704700680140D6250020D425002074
:10123000014BD3F8AC00704700680140024B01221B
:10124000C3F8AC105A6270470068014070B504469C
:1012500009F03BFE23689D6E0EF076F801462046AD
:10126000A8472368054AD3F88C502046AC46002393
:10127000BDE87040A2F51631604700BF00B004D051
:1012800009F00ABE09F014BE09F0D0BD09F03FBF55
:10129000034B4FF080629A604FF080729A60704703
:1012A00000E100E0084B4FF08062C3F88820BFF3F4
:1012B0004F8FBFF36F8F4FF08072C3F88820BFF35A
:1012C0004F8FBFF36F8F704700E100E038B5184CC7
:1012D00023685BB3174B184A1B6C11888B4216D1DD
:1012E000164B198805F0B4FB236893F86A20002593
:1012F000013283F86A2083F87C50FFF707FC2068EE
:101300000AF06CFB2846BDE83840FFF743BA05F009
:101310009FFB2468236820461B6A9847012384F8B2
:101320007C300020BDE83840FFF75EBA38BD00BF12
:10133000E437012000680140D6250020D425002094
:1013400007B5064BADF806001B68054801220DF1F4
:10135000060106F0F3F803B000BD00BF0C0000204A
:10136000BC26002007B5124C012500231148ADF81A
:101370000630042104F064FD10B90223ADF80630F4
:101380000C48082104F05CFD48B9ADF80650002374
:1013900020681A460DF1060107F054F803E0BDF885
:1013A0000630002BF3D1012006F05EFFDDE700BF21
:1013B000E82500200018024008B52A4C2378022BAB
:1013C000DAB212D0032A18D0012A42D126481021BD
:1013D00004F03CFD642006F047FF23480022102162
:1013E00004F034FD00232370E8E71F480122102198
:1013F00004F02CFD4FF4FA70EDE7012210211A4899
:1014000004F024FD4FF4FA7006F02EFF00221021A4
:10141000154804F01BFD4FF4FA7006F025FF012279
:101420001021114804F012FD4FF4FA7006F01CFF71
:10143000002210210C4804F009FD4FF4FA7006F068
:1014400013FF09480122102104F000FD40F2EE20B4
:10145000C1E705480022102104F0F8FC0A2006F03C
:1014600003FFABE7E02500200004024030B595B053
:10147000102200210AA814F06DFF1422002103A8F5
:1014800014F068FF00241D4B01941A6C42F0805246
:101490001A641B6C03F080530193019B184B029458
:1014A0001A6842F440421A601B6803F440430293F6
:1014B0000122029B4FF48033CDE9082302254FF42B
:1014C0008003CDE90E5308214FF4A873CDE9101322
:1014D00008A804231393129505F0D8FA0F23CDE939
:1014E00003354FF4A0504FF48053CDE90603052196
:1014F00003A8059405F0A6FC15B030BD00380240E5
:10150000007000402DE980489BB004F043F8FFF7DD
:10151000ADFF142200210DA8002414F01BFFC04BC6
:1015200000941A6BBF4842F010021A631A6B02F063
:1015300010020092009A01941A6B42F020021A6382
:101540001A6B02F020020192019A02941A6B42F087
:1015500080021A631A6B02F080020292029A0394CC
:101560001A6B42F004021A631A6B02F0040203922F
:10157000039A04941A6B42F001021A631A6B02F088
:1015800001020492049A05941A6B42F002021A6353
:101590001A6B02F002020592059A06941A6B42F049
:1015A00040021A631A6B02F040020692069A0794F0
:1015B0001A6B42F008021A631B6B03F008030793CF
:1015C00022463C21079B04F041FC97482246042117
:1015D00004F03CFC95482246802104F037FC9448F6
:1015E00022464FF4405104F031FC2246914810212C
:1015F000012504F02BFC4FF0030A3C238948CDF869
:1016000040A00DA902264FF00409CDE90D350F9435
:1016100004F032FB84480F940DA9CDE90D95109686
:1016200004F02AFB802381480DA9CDE90D35CDE9D1
:101630000F4404F021FB4FF440537D480DA9CDE940
:101640000D354FF00C0BCDE90F4604F015FB7A4831
:101650000F950DA91027CDE90DB404F00DFB0DA9D0
:101660007448CDE90D75CDE90F4404F005FB734ACC
:10167000734B1360104604F0F5F9724A724B136015
:10168000724BD460C2E9013410464FF48043C2E982
:101690000434C2E90644146204F000FE3946694885
:1016A00005F042F82146674805F05DF8684A694B45
:1016B00013604FF48273C2E901344FF400711823B0
:1016C000C2E9061310460A23D362C2E90344C2E901
:1016D00008445461946205F0D5FE5F4A5F4B176180
:1016E000C2E9003540204FF4C073C2E905034FF44E
:1016F0000063C2E908344FF4005393620DA9072335
:101700001046CDE90E39CDE9103A4FF00808C2E98C
:101710000249D461CDE912660D9605F097FD4FF6AA
:10172000FF7209A94C480894CDE90A8509950C94E3
:1017300005F0ACFD284603F059FF4FF6FF7209A9EA
:101740004548CDE90968CDE90B5405F09FFD4FF6FA
:10175000FF7209A94048CDE909A8CDE90B9405F02D
:1017600095FD4FF40C730893089B3B480C934FF680
:10177000FF7209A9CDE909980B9505F087FD40F2A4
:101780006A51354805F0A0FD342221460DEB0200D8
:1017900014F0E0FD324A334B1461C2E900340923EE
:1017A000C2E905351D2340F20D1CC2E9073A40F29B
:1017B0004313C2E909C340F2171E40F24713104613
:1017C000C2E90BE3C2E90244948682F8364005F090
:1017D0005DF8FF21F022CDE912144FF005094FF416
:1017E00080614FF4A073CDE90E24CDE91419CDE941
:1017F00016420DA922461A48DFF870A01893CDE9C9
:1018000010360D94ADF864408DF8664005F0F2F89E
:10181000154BCAF800301B689847DAF8003027E00B
:101820000038024000100240000802400000024060
:10183000000C024000040240001802405028002022
:1018400000300240BC270020005C0040A086010060
:10185000BC26002000500140F8250020400100A0D7
:10186000142700200068014018000020DC2500201B
:10187000DFF8D0A1DB6898475B4A5C4B1046C2E9B1
:101880000034C2E90264C2E90A46C2E90C4404F029
:10189000F9F82946544804F0ABF921463A460DA818
:1018A00014F058FD524A534B136010464FF48033E6
:1018B000C2E901341461147682F82040D462C2F87F
:1018C00028A0D460D56182F83040556103F0A2FEB3
:1018D0000D220DA946480F94CDE90D2503F0D2FF46
:1018E00021463A460DA814F035FD434B434A1A6091
:1018F0001A4610464FF48033C2E90134C2E90AA403
:101900001461147682F82040D460D56182F83040AA
:10191000556103F07FFE0DA937480F94CDE90D9571
:1019200003F0B0FF364A374B136010464FF4E133F3
:10193000C2E90134C2E90344C2E905B4D46106F046
:101940004FFB21463A460DA814F004FD2E4A2F4BBA
:1019500013605923C2E90134104640F2E733C2E96B
:1019600003349461CDE9094406F05EF94FF48053E5
:101970000DA925480D9306F08DF909A92248CDE956
:10198000094406F08FFAFEF743FEFEF740FE2146BB
:101990001D4806F085FA06F0F7FB1D4A3146384629
:1019A00006F015FD1B4B1C4A18602946404606F000
:1019B0000EFD1A4B1A4A186021461A4806F010FC10
:1019C000194B1A4A18602146194806F009FC194BB0
:1019D000194A18602146194806F002FC184B186095
:1019E00006F0E4FBFEE700BF1028002000B0024034
:1019F000A02800200020014058280020002101409C
:101A00002C26002000100140742600200004004015
:101A1000C4810108E8250020AC810108E4250020EC
:101A20002482010865130008F425002000820108C3
:101A30001F060008F0250020DC810108B91300080A
:101A4000EC2500200100000F704770477FB5084B60
:101A50008DF817201B6802930DF1170201230092E5
:101A600001930A460146034804F0C0FC07B000BDDC
:101A700010000020BC2700207FB500238DF8173010
:101A8000084B1B6802930A4601230DF117010091D0
:101A900001930146044804F039FD9DF8170007B092
:101AA00000BD00BF10000020BC2700201FB5084C5F
:101AB00024680092CDE901340A4601230146054815
:101AC00004F024FD003818BF012004B010BD00BF91
:101AD00010000020BC27002003F088BD08B5064890
:101AE0000022042104F0B2F9BDE8084002480122B6
:101AF000042104F0ABB900BF0008024010B5012278
:101B000004464FF40051094804F0A0F900220421D2
:101B1000074804F09BF92046FFF712FCBDE810408F
:101B200003480122042104F091B900BF000C0240D7
:101B30000008024010B5002204464FF40051094845
:101B400004F084F900220421074804F07FF92046BC
:101B5000FFF7F6FBBDE8104003480122042104F022
:101B600075B900BF000C02400008024037B50546B9
:101B70000C4612480022042104F068F900224FF4B8
:101B800000510F4804F062F92846FFF7D9FB0D4BCE
:101B90000D481B68224601A905F07CFE0848019CFF
:101BA00001224FF4005104F051F9044801220421AC
:101BB00004F04CF9204603B030BD00BF00080240DD
:101BC000000C02400C000020BC26002003F00EBDDB
:101BD0000268034B9A4201D103F0F6BC704700BF84
:101BE000001000407047000082B00E4B00220092AF
:101BF000596C41F480415964596C01F48041009161
:101C000000990192196C41F0805119641B6C03F02A
:101C100080530193019B0F216FF0010002B003F08C
:101C2000E1BE00BF0038024010B514228AB004465D
:101C300000210DEB020014F08DFB2368254A93422E
:101C400027D1254B2548002401945A6C42F4807218
:101C50005A645A6C02F480720192019A02941A6BCF
:101C600042F004021A631B6B03F004030293082181
:101C7000029B0323CDE9051305A903F0FDFF122004
:101C80002246052103F0AEFE122003F0DDFE0AB06D
:101C900010BD134A9342FAD10F4B1248002403940B
:101CA0005A6C42F400725A645A6C02F40072039245
:101CB000039A04941A6B42F001021A631B6B03F03F
:101CC00001030493049B20220323CDE9052305A9E6
:101CD000D3E700BF00200140003802400008024066
:101CE00000210140000002400268094B9A4282B084
:101CF0000BD100230193074B1A6B42F480521A63F5
:101D00001B6B03F480530193019B02B0704700BF2B
:101D1000003002400038024007B50E4B02689A427C
:101D200016D10022A3F5F0430192196B41F4000192
:101D300019631B6B03F40003019305215A20019BD7
:101D400003F050FE5A2003B05DF804EB03F07CBEB4
:101D500003B000BD00B002402DE9F043044689B055
:101D60001422002103A814F0F5FA2268244B9A42A9
:101D700043D1244C244800250095236B43F00403F1
:101D80002363236B03F004030093009B0195236BF3
:101D900043F001032363236B03F001030193019BD1
:101DA0004FF012094FF400734FF001080327042687
:101DB00003A9CDE90339CDE90587079603F05CFF58
:101DC0004FF480731148079603A9CDE90339CDE993
:101DD000058703F051FF0295236C43F4000323644D
:101DE000236C03F400030293029B236A43F4000371
:101DF0002362236A23F40003236209B0BDE8F08361
:101E0000005C004000380240000802400000024030
:101E1000F0B599B004461422002107A814F09AFAEC
:101E200030220DEB0200002114F094FA22685E4B80
:101E30009A4240F0B78008230C93C02310930423E8
:101E400012930CA84FF40033159305F0D3F808B1A2
:101E5000FFF7C8FE554B5648002400945A6C42F0D8
:101E600080625A645A6C02F080620092009A019477
:101E70001A6B42F020021A631A6B02F020020192E0
:101E8000019A02941A6B42F001021A631A6B02F073
:101E900001020292029A03941A6B42F002021A6340
:101EA0001A6B02F002020392039A04941A6B42F036
:101EB00040021A631A6B02F040020492049A0594DD
:101EC0001A6B42F004021A631A6B02F004020592C4
:101ED000059A06941A6B42F008021A631B6B03F012
:101EE0000803069302250E26069B0B964FF480638B
:101EF00007A9CDE90735CDE9094503F0BDFE41F657
:101F000058032C480B9607A9CDE907350927CDE9D9
:101F1000094503F0B1FE032327480B9707A9CDE934
:101F20000735CDE9094503F0A7FE4FF47063224859
:101F30000B9607A9CDE90735CDE9094503F09CFECD
:101F40004FF40C631D480B9607A9CDE90735CDE981
:101F5000094503F091FEC02319480B9607A9CDE966
:101F60000735CDE9094503F087FE082315480B9690
:101F700007A9CDE90735CDE9094503F07DFE4FF40A
:101F8000A0530E480B9707A9CDE90735CDE90945C0
:101F900003F072FE58202246052103F023FD58204D
:101FA00003F052FD19B0F0BD006801400038024056
:101FB00000140240000002400004024000180240E9
:101FC00000080240000C024010B5044688B01422FC
:101FD000002103A814F0BEF92268144B9A4223D1C1
:101FE00003F56843002101915A6C114842F48012B4
:101FF0005A645A6C02F480120192019A02911A6B8F
:1020000042F020021A631B6B03F020030293029B31
:102010004FF4607202230321CDE903230523CDE9A8
:10202000061303A903F028FE08B010BD00500140BC
:10203000001402400268094B9A4282B00BD100237F
:102040000193074B1A6C42F002021A641B6C03F0F6
:1020500002030193019B02B0704700BF00040040DF
:102060000038024010B5044688B01422002103A8AD
:1020700014F070F92268144B9A4223D103F594337B
:10208000002101915A6C114842F010025A645A6CB6
:1020900002F010020192019A02911A6B42F00102C1
:1020A0001A631B6B03F001030293029B4FF4C0629F
:1020B00002230321CDE903230723CDE9061303A956
:1020C00003F0DAFD08B010BD00100140000002402E
:1020D0002DE9F04186B0002303932B4B1C68002CA4
:1020E0004FD14FF00108C3F80080284B00949A6B41
:1020F000274842EA08029A639B6B03EA08030093AD
:10210000022703260C25009B01A94FF63F03CDE9CA
:102110000137CDE9046503F0AFFD1E48059501A91F
:10212000CDE90187CDE9034603F0A6FD48F233135C
:102130001948059501A9CDE90137CDE9034603F01A
:102140009BFD4FF683731548059501A9CDE901372D
:10215000CDE9034603F090FD4CF20373104805955A
:1021600001A9CDE90137CDE9034603F085FD6023E0
:102170000C48059501A9CDE90137CDE9034603F0E7
:102180007BFD06B0BDE8F081E82800200038024061
:1021900000140240000802400018024000100240F3
:1021A000000C02400004024030B589B000230293C5
:1021B000204B1A6C42F010021A641B6C03F01003DF
:1021C0000293054601A903A8029B04F0F5FE069BB5
:1021D0004BBB04F0D1FE184A184B136040F2E733B2
:1021E000D360174BB0FBF3F3013B53601046002361
:1021F00013619360936105F017FD044680B90E48A2
:1022000005F0ECFB044658B9362003F01DFC0F2DF9
:102210000DD822462946362003F0E4FB094B1D6009
:10222000204609B030BD04F0A7FE4000D3E70124EA
:10223000F6E700BF00380240EC2800200010004004
:1022400040420F00800000207047FEE7FEE7FEE7F7
:10225000FEE7704708B5044803F085FABDE808407A
:10226000024803F080BA00BFA028002058280020B0
:10227000014805F0F1BB00BFEC280020014804F044
:102280005CBB00BF14270020014803F027BC00BF3F
:102290001028002013B50B4C206806F034F90128F3
:1022A00009D841238DF807302068C82300220DF19A
:1022B000070106F0C7F8012002B0BDE8104003F0A6
:1022C000D5BD00BFE42500200120704708B514F0FB
:1022D00041F9162303604FF0FF3008BD08B514F034
:1022E00039F916230360FEE770B50D4614460E4615
:1022F000731B9C4201DC204670BDAFF3008006F8E2
:10230000010BF5E770B50D4614460E46731B9C4253
:1023100001DC204670BD16F8010BAFF30080F5E735
:102320004FF0FF3070474FF400534B600020704770
:102330000120704700207047094A08B5034610681D
:1023400008B908481060034469468B4206D914F066
:1023500001F90C2303604FF0FF3008BD1360FCE768
:1023600034290020603B0120704710B50421044649
:1023700013F0B8FD204610BD012908B506D002298A
:1023800008D059B902F04AF8006808BD02F046F8D2
:102390004068FAE702F042F88068F6E70020F4E7C8
:1023A000004870475C8201081720704713B500246D
:1023B00051B1036801948DF8034001AA9C680DF1A6
:1023C0000303A04702B010BD0846FBE7C089704771
:1023D000008A7047C088704780887047807A00F014
:1023E0007F007047807AC009704700207047000066
:1023F0009FED010A704700BF00000000704710B554
:102400000821044613F06EFD204610BD704770474A
:1024100000F598730868496803C3704770477047B0
:102420004160704770477047064BC0F84C3100233D
:10243000C0F8503100F5A273C0F84801C0F840312F
:10244000704700BF892B0008012303727047704753
:102450007047704770477047D0E90232416810B446
:10246000541001EB6200D20748BF0A595DF8044BD3
:1024700048BFD35818470346406830B19A681AB924
:10248000D86800F0010070470120704710B50C219A
:10249000044613F027FD204610BD10B51421044654
:1024A00013F020FD204610BD10B51021044613F096
:1024B00019FD204610BD10B54FF4AE71044613F05F
:1024C00011FD204610BD10B54021044613F00AFD51
:1024D000204610BD10B54021044613F003FD2046F0
:1024E00010BD10B50CF030FF0368BDE81040DB6B89
:1024F000184710B50CF028FF0368BDE810405B6B6F
:102500001847000013B50446807A637A0130C0B2E0
:102510009842A07205D9012323720023A37202B04E
:1025200010BDB4F90C2000210EF05AFEC30706D5E9
:1025300000284FF6FF73C8BF0123184400B2144AA5
:10254000E08112880023ADF8023083B2D21AADF8D0
:102550000020228A20829B1AADF804300D4B1B8884
:10256000ADF806300CF0F0FE036802AA1B6C12E90D
:1025700006009847A37A012BD1D1074B1B78002B7B
:10258000CDD00CF0E1FE02B0BDE810400CF0E2BE90
:10259000D8370120DA370120E2370120054B1B78BC
:1025A00001462BB1406818B103680C315B6E1847C7
:1025B000704700BFE3370120054B1B7801462BB164
:1025C000406818B103680C315B6E1847704700BF54
:1025D000E3370120037A70B50546BBB9406803684C
:1025E000DB69984704463CB96868036805F10C014B
:1025F0001B6EBDE870401847A1886B8FC91A23680D
:1026000020461B6B09B29847A469ECE770BD037ABA
:1026100070B50546BBB940680368DB699847044656
:102620003CB96868036805F10C011B6EBDE8704099
:102630001847A1886B8FC91A236820461B6B09B203
:102640009847A469ECE770BD10B50446D0F8400186
:1026500058B10368DB68984738B1D4F84001036883
:102660009B6898470023C4F8403110BD70B50446FC
:1026700090F8390094F838300130C0B2984284F8AC
:10268000390005D901232372002384F8393070BD45
:10269000B4F93A2000210EF0A3FDC30706D50028A7
:1026A0004FF6FF73C8BF0123184400B2238AC01A33
:1026B000A08760680368DB69984705462DB96068A4
:1026C0000368BDE870405B691847A988A38F194467
:1026D0002B6828461B6B09B29847AD69EEE770B5C9
:1026E000044690F8390094F838300130C0B298426E
:1026F00084F8390005D901232372002384F8393086
:1027000070BDB4F93A2000210EF06AFDC30706D56A
:1027100000284FF6FF73C8BF0123184400B2238A74
:10272000C01AA08760680368DB69984705462DB921
:1027300060680368BDE870405B691847A988A38F8B
:1027400019442B6828461B6B09B29847AD69EEE720
:102750002DE9F0411D460368BDF918701B6B044656
:10276000164698472368314620465B6B9847236896
:10277000294620469B6B9847236839462046DB6BE9
:10278000BDE8F041184700002DE9F74FD0E9556A40
:102790000746B06803681B6A9847B0F5E67F05D224
:1027A000534B544AA321544813F0CAFB7068036882
:1027B0001B6A98470F2803D8504B4E4AA421F2E7D2
:1027C000F06803681B6A98473F2803D84C4B494A76
:1027D000A521E8E70CF0B8FDDFF8349104300CF0E7
:1027E00019FED9F8000010B10368DB689847D9F8E2
:1027F000000010B103681B689847DFF81881D8F80B
:10280000000010B103685B699847D7F83C0110B12C
:1028100003685B689847D8F8000010B103681B682C
:102820009847D7F83C0110B103689B689847F06857
:10283000036800215B6A984705460022314B4260DD
:10284000027245F80C3B0446284609F0BBFE1423EF
:1028500023872D4B1B780022A287002B35D1012323
:102860002372B068036800215B6A9847054602F04E
:102870005BFB7068036800215B6A9847294606463F
:1028800002F022FB331DC7F83C61CAF808302B6800
:10289000C6F808A02846DB68C9F80040C8F8005010
:1028A000EE639847336830461B68984721462846B0
:1028B0000EF090FC236820461B69984723685B69EB
:1028C000204603B0BDE8F04F1847104BDFF848B082
:1028D000B3F900300093BBF9003011462846FFF7EA
:1028E00037FF284609F0E9FDBBF800306387B8E7F9
:1028F0009474010822750108077601084E760108D4
:10290000F1760108D0840108E3370120DA3701208D
:102910002C38012028380120D8370120F8B504468A
:1029200017460E460CF044FE104B0025C4E95576C0
:102930000F4E1C60C4E953550E4B306823600E4B9C
:10294000C4E95135036801219B68C4E94F55984794
:10295000284601F017FD336893F858200AB1D86C67
:1029600000B9986812F0C0F92046F8BD3838012047
:10297000E43701205884010840840108064BC0F860
:102980004C310023C0F8503100F5A273C0F8480163
:10299000C0F84031704700BF892B0008064BC0F8D3
:1029A0004C310023C0F8503100F5A273C0F8480143
:1029B000C0F84031704700BF292A0008064BC0F814
:1029C0004C310023C0F8503100F5A273C0F8480123
:1029D000C0F84031704700BF792E0008064BC0F8A0
:1029E0004C310023C0F8503100F5A273C0F8480103
:1029F000C0F84031704700BF3D2D0008064BC0F8BD
:102A00004C310023C0F8503100F5A273C0F84801E2
:102A1000C0F84031704700BF8927000803685B6A2F
:102A2000184703685B6A18472DE9F14FD0E955BA9A
:102A30000746DBF8080003681B6A9847B0F5FA7F81
:102A400005D2484B484AA321484813F079FADBF8ED
:102A5000040003681B6A98470F2803D8444B424A76
:102A6000A421F1E7DBF80C0003681B6A98471328E0
:102A700003D8404B3C4AA521E6E70CF065FCDFF8A3
:102A8000009104300CF0C6FCD9F8000010B10368C6
:102A9000DB689847D9F8000010B103681B689847B5
:102AA000DFF8E080D8F8000010B103685B69984750
:102AB000D7F83C0110B103685B689847D8F800006C
:102AC00010B103681B689847D7F83C0110B1036840
:102AD0009B689847DBF80C00036800215B6A984705
:102AE000254B036014234372244B00261B888672F7
:102AF00004468381314646600672C6810682DBF851
:102B00000800FFF78BFF054601F0F8FC3146DBF8C3
:102B10000400FFF786FF2946064601F0C7FC331D77
:102B2000C7F83C61CAF808302B68C6F808A02846E8
:102B3000DB68C9F80040C8F80050EE639847336876
:102B400030461B689847214628460EF043FB236811
:102B500020461B69984723685B69204601B0BDE8A1
:102B6000F04F18479474010894770108077601081C
:102B70004E760108F1760108F4840108D837012067
:102B80002C380120283801202DE9F14FD0E9556A71
:102B90000746B06803681B6A9847B0F5FA7F05D20C
:102BA000434B444AA321444813F0CAF970680368B0
:102BB0001B6A98470F2803D8404B3E4AA421F2E7EE
:102BC000F06803681B6A98470B2803D83C4B394AC6
:102BD000A521E8E70CF0B8FBDFF8EC9004300CF02E
:102BE00019FCD9F8000010B10368DB689847D9F8E0
:102BF000000010B103681B689847DFF8D080D8F850
:102C0000000010B103685B699847D7F83C0110B128
:102C100003685B689847D8F8000010B103681B6828
:102C20009847D7F83C0110B103689B689847F06853
:102C3000036800215B6A98474FF0000B214B03604B
:102C400004465946C0F804B080F808B0B068FFF7F1
:102C5000E5FE054601F052FC59467068FFF7E1FEBB
:102C60002946064601F022FC331DC7F83C61CAF82C
:102C700008302B68C6F808A02846DB68C9F8004071
:102C8000C8F80050EE639847336830461B68984791
:102C9000214628460EF09EFA236820461B69984775
:102CA00023685B69204601B0BDE8F04F184700BFBC
:102CB0009474010878780108077601084E760108B7
:102CC000F1760108AC8401082C3801202838012055
:102CD000F7B505460026154B4660067245F80C3BD5
:102CE000044628460F4609F06DFC114B84F83870F5
:102CF0001B7884F83960A68723B901232372204604
:102D000003B0F0BD0B4B0C4FB3F900300093B7F993
:102D10000030324631462846FFF71AFD284609F0B2
:102D2000CCFB3B885B426387E9E700BF188501085D
:102D3000E3370120DA370120D83701202DE9F047A9
:102D4000D0E9556A0746B06803681B6A984741F2A4
:102D5000FB33984205D8414B414AA321414813F027
:102D6000EFF8706803681B6A98470F2803D83E4B3A
:102D70003B4AA421F2E7F06803681B6A98473F28A2
:102D800003D83A4B364AA521E8E70CF0DDFADFF824
:102D9000E09004300CF03EFBD9F8000010B103685D
:102DA000DB689847D9F8000010B103681B689847A2
:102DB000DFF8C080D8F8000010B103685B6998475D
:102DC000D7F83C0110B103685B689847D8F8000059
:102DD00010B103681B689847D7F83C0110B103682D
:102DE0009B689847F068036800215B6A9847142144
:102DF0000446FFF76DFFB068036800215B6A9847DF
:102E0000054601F0DBFB7068036800215B6A9847A8
:102E10002946064601F0A4FB331DC7F83C61CAF8F9
:102E200008302B68C6F808A02846DB68C9F80040BF
:102E3000C8F80050EE639847336830461B689847DF
:102E4000214628460EF0C6F9236820461B6998479C
:102E5000236820465B69BDE8F04718479474010871
:102E60004A790108077601084E760108F1760108D3
:102E70002C380120283801202DE9F047D0E9556A87
:102E80000746B06803681B6A9847B0F5FA7F05D219
:102E9000404B414AA321414813F052F8706803683F
:102EA0001B6A98470F2803D83D4B3B4AA421F2E701
:102EB000F06803681B6A98473F2803D8394B364AA5
:102EC000A521E8E70CF040FADFF8DC9004300CF0C4
:102ED000A1FAD9F8000010B10368DB689847D9F867
:102EE000000010B103681B689847DFF8C080D8F86D
:102EF000000010B103685B699847D7F83C0110B136
:102F000003685B689847D8F8000010B103681B6835
:102F10009847D7F83C0110B103689B689847F06860
:102F2000036800215B6A984714210446FFF7D0FE2E
:102F30000021B068FFF772FD054601F0DFFA706806
:102F40000021FFF76EFD2946064601F0AFFA331D5A
:102F5000C7F83C61CAF808302B68C6F808A02846B4
:102F6000DB68C9F80040C8F80050EE639847336842
:102F700030461B689847214628460EF02BF92368F7
:102F800020461B699847236820465B69BDE8F047E7
:102F9000184700BF947401082F7A010807760108CA
:102FA0004E760108F17601082C38012028380120DE
:102FB000406A7047806A704770478A880B8810B5EE
:102FC000D20A4C88C1699BB251F8220043EA0443FB
:102FD000184410BD10B50446BAB1107B68B1537BDC
:102FE000D27A1B0203F4E0631A43236A03EB8203E1
:102FF0001A888A4202D193F9020010BD05D801381F
:1030000080B204330028F3D1F7E70020F5E710B5CC
:103010002C21044612F066FF204610BD30B58BB05F
:103020000446BDF860500895BDF85C5007959DF8C2
:10303000505006959DF84C5005959DF848500495C4
:103040009DF8445003959DF8405002959DF83C50E2
:103050000195BDF8385000950DF048FC064B2360F3
:10306000159BE361169B2362199B63621A9BA36203
:1030700020460BB030BD00BF3C85010800207047E2
:1030800081807047C18070470181704741817047DE
:103090007047704770477047704710B4C488036822
:1030A000121B84885B6D091B12B25DF8044B09B2D8
:1030B00018474FF6FF7383814FF0FF3303621368A5
:1030C000C361106070477047704770477047704722
:1030D00030B5036885B0D3F88430018104460146D9
:1030E000684698479DE807003C3484E8070005B02F
:1030F00030BD30B5036885B0D3F8843041810446D3
:103100000146684698479DE807003C3484E807007C
:1031100005B030BD0022028042808280C2807047AC
:1031200080F83610704770B5036804461B6B15466F
:1031300098472368294620465B6EBDE870401847D3
:1031400000207047806C7047704770477047704729
:103150007047D0E9023230B44468551004EB620085
:10316000D20748BF625930BC48BFD35818470346FE
:10317000406830B19A681AB9D86800F00100704709
:1031800001207047A0F850107047B0F85000704709
:1031900010B54C21044612F0A5FE204610BD10B516
:1031A0006021044612F09EFE204610BD10B510218D
:1031B000044612F097FE204610BD10B54FF4F8718A
:1031C000044612F08FFE204610BD90F8252012B163
:1031D00003685B691847704708B5FFF7F6FF08BD3D
:1031E00090F825201AB190F8242002B11860704799
:1031F000036870B55E6B124B1B6804468DB22BB929
:10320000104B114A6C21114812F09AFE1049828D20
:103210000988914203D80F4B0B4A6D21F3E713F84D
:1032200012200D4B1B6853F8220003681B6B984754
:10323000291A3346204609B2BDE87040184700BF3E
:103240003C380120147B0108567B0108917B010862
:1032500040380120D87B01084438012038B500F1FE
:103260009803994204460D4603D10CF06DF8FFF720
:10327000B5FB04F59674A54205D10CF065F8BDE8E0
:103280003840FFF7BBBB38BD90F84C3070B50446F2
:10329000002B4AD0B0F84E00B4F85030013080B264
:1032A0009842A4F84E0040D3B4F85450B4F85620D5
:1032B000A66D521BC01A12B2B4F85230002180B26F
:1032C000B04794F836200544ABB22DB2AA4205D0DF
:1032D0002DBB2046FFF779FF84F83650B4F8503004
:1032E000B4F85210B4F84E200B449A421DD3002378
:1032F00084F84C30A4F852300CF026F82146043003
:103300000CF06FF8E06D80B10368DB68984760B13E
:10331000E06D036821469B68BDE87040184784F85B
:1033200036302046FFF751FFD8E770BD00224FF03E
:10333000FF31C0E900218260704770B50368044620
:103340001B6B154698472368294620465B6BBDE8F2
:10335000704018470022C0E90122C0E90322C0E9F9
:103360000522C0E907224FF480728284014A02607C
:10337000704700BFA485010810B52622044600212D
:1033800012F0E8FF2046FFF7E5FF0023A36284F870
:103390002C30012384F82430044B23604FF6FF7354
:1033A00084F83230E3852386204610BD64900108FE
:1033B0002DE9F04F04468BB0A04600250DF05EFDD0
:1033C000804BE56348F8403B29462622404612F0F0
:1033D000C1FF4046FFF7BEFF04F16C077A4B236440
:1033E000FF26262229464FF6FF7984F86660A566F7
:1033F0003846ADF8209012F0ADFF3846FFF7AAFF2F
:10340000724BE366BDF82030A4F8923004F1980BBB
:1034100008A9384684F8946009F087FB04F1CC06CB
:103420005846FFF7A9FF29462622304612F092FFA0
:103430003046FFF78FFF664BC4F8F4304FF47F033C
:10344000C4F80031634BC4F8CC3004F5967A4FF0E1
:10345000FF33C4E94335A4F8F890C4F8FC50A4F84D
:103460000451C4F80851C4F8145184F81851A4F850
:103470001A51A4F81C51C4F828515046FFF77CFF9C
:10348000554BC4E97834554BC4E97A354FF4A073F1
:103490002A46294600934046F023FFF759F904F1E4
:1034A00004094FF07F43A3664146484607F022FADD
:1034B0006FF00E0238466FF00A01FFF73EFF0F2350
:1034C000384608A9ADF8203009F02FFB39464846A8
:1034D00007F010FAC42213215846FFF72EFF04F517
:1034E000F077152308AA07A95846ADF81C30ADF8A7
:1034F000203009F0E1F959464846C4F8C07007F099
:10350000F9F91C23092200930621E2233046FFF734
:103510001FF9334BC4F8FC30D4F8CC30A4F8005178
:1035200002AD2846D3F884303146984795E8070025
:1035300004F5847383E807002A4B1B6804F5B07513
:103540002BB9294B294A6021294812F0F9FC294B53
:103550001B88022B03D8284B244A6121F4E7274B10
:103560000221186800F04AFF254A034640212846F8
:103570000FF078F9164B089308A905233046C4F8D4
:103580001451ADF8243009F039F93146484607F0B6
:10359000B1F9504674221321FFF7CFFE0E2308AA7B
:1035A00007A95046ADF81C30ADF8203009F084F979
:1035B0004846C4F85471514607F09CF920460BB0B8
:1035C000BDE8F08FBC860108FC8F0108D890010887
:1035D000308401080C860108A48601085D320008C9
:1035E000050505FF3C380120147B0108167C010805
:1035F000917B010840380120D87B01084838012020
:10360000617C0108806A7047002070478B88838046
:103610000120704770477047704770477047D0E986
:10362000023230B44468551004EB6200D20748BF40
:10363000625930BC48BFD35818470346406830B180
:103640009A681AB9D86800F00100704701207047E5
:1036500090F82D3080F8603070470146383091F88E
:103660002C3013B1363109F060BA3431FBE710B5B4
:103670006421044612F036FC204610BD10B510211E
:10368000044612F02FFC204610BD000010B5034B7D
:10369000036004460AF05EF9204610BD5888010810
:1036A00010B5064B036004460AF054F9204641F277
:1036B000883112F017FC204610BD00BF5888010861
:1036C00010B50446006B50B10368DB68984730B111
:1036D000206B036821469B68BDE81040184710BD69
:1036E0000B7970B590F82C6004460D460BB916B1F5
:1036F00070BD002EFCD0B3FA83F35B0984F82C3044
:1037000023682046D3F88C309847236820465B69AD
:103710009847002EECD02B79012BE9D12368204665
:10372000D3F88830BDE87040184700F1F0038B42B1
:1037300010B5044609D10BF007FEFFF72FF92368F7
:103740002046DB6ABDE81040184710BD0B882DE904
:10375000F04183861388B0F90850C38604461046AA
:1037600090460FF039F9B4F90A30074603EBD373EA
:103770004046C3F34F060FF063F905EBD575C5F36B
:103780004F0500EBD07007EBD777A6EB6002A5EBF7
:10379000670104F1380012B209B2FFF7CEFD2368C9
:1037A0002046D3F88C30BDE8F041184738B52622C2
:1037B00004460D46002112F0CDFD2046FFF7CAFD5C
:1037C000064B23602B88E384FF23204684F82830AF
:1037D000294609F0AAF9204638BD00BFD890010853
:1037E00010B526220446002112F0B4FD2046FFF752
:1037F000B1FD0A4BA3624FF6FF73A3854FF47F021E
:103800000023C4E90C32064A22604FF0FF32C4E9BB
:1038100010232387E363A364204610BD308401088E
:10382000F086010870B50023124E8380124B0360AE
:10383000336893F8582005460AB1D86C00B99868E7
:103840000368DB6A98473368B0FA80F4D86C64097F
:1038500030B10368DB6A9847002808BF44F00104D0
:103860002CB9064B064A07482C2112F069FB284662
:1038700070BD00BFE437012080870108647C010827
:10388000C27C0108FB7C01082DE9F04F04468DB095
:10389000A04600250DF0F2FACC4BE56348F8403B1A
:1038A00026222946404612F055FD4046FFF752FDBC
:1038B000C74B236404F16C0BFF234FF6FF7604F132
:1038C000980A84F866300AA95846A56604F1C40926
:1038D000ADF82860FFF76AFF0AA95046ADF82860E6
:1038E000FFF764FF0AA94846ADF82860FFF75EFFBE
:1038F00040F20113C4E945354FF47F4304F5947752
:10390000C4E94735B34BC4F8F030A4F82461A4F8F7
:1039100026610AA93846C4E93D55C4E93F55C4E9C2
:103920004155C4E94355ADF82860FFF73FFF3946DC
:1039300004F1F00006F0DEFF0AA904F5AA70ADF864
:103940002860FFF733FF0AA904F5C070ADF82860BE
:10395000FFF72CFF0AA904F5D670ADF82860FFF731
:1039600025FF0AA904F5EC70ADF82860FFF71EFFEB
:1039700004F50173184604F514770393FFF730FF3D
:10398000384606F0E9FD04F5617318460393FFF726
:1039900049FF914BC4F884332433C4F88C3304F5C5
:1039A00066730AA91846C4F890530393ADF82860CB
:1039B000FFF7FCFE04F571730AA918460393ADF8EE
:1039C0002860FFF7F3FE04F57C7318460393FFF7B6
:1039D00007FF04F23C430AA918460393ADF8286098
:1039E000FFF7E4FE7D4A04F58053C3E9DE247C4AF8
:1039F0004FF46161C3E9E02504F5AD6009F0A0FF73
:103A00004FF4A0732A46404600932946F023261D12
:103A1000FEF79EFE4FF07F43A3664146304606F018
:103A200069FF2A4658462946FFF787FC4FF00108F0
:103A300058460AA9ADF8288009F077F8594630466B
:103A400006F058FF2A4650462946FFF776FC5046B6
:103A50000AA9ADF8288009F068F85146304606F00A
:103A600049FF2A4648462946FFF767FC1023484687
:103A70000AA9ADF8283009F058F84946304606F052
:103A800039FF02230AAA09A904F1F000ADF8243095
:103A9000ADF82830FFF75AFE04F59B532022183367
:103AA000C4F82031C4F82C5113460092CC214FF4B5
:103AB0008D7204F1F000FEF74BFE04F1F001304688
:103AC00006F018FF9022BC2104F5AA70FFF735FC20
:103AD0004FF013080AA904F5AA70ADF8288009F080
:103AE00024F804F5AA71304606F004FF90224146FE
:103AF00004F5C070FFF721FC4FF0030B0AA904F591
:103B0000C070ADF828B009F010F804F5C071304667
:103B100006F0F0FE6FF04702842104F5D670FFF73F
:103B20000CFC06230AA904F5D670ADF8283008F07D
:103B3000FCFF04F5D671304606F0DCFEB622842187
:103B400004F5EC70FFF7F9FB4FF005080AA904F53E
:103B5000EC70ADF8288008F0E8FF04F5EC71304611
:103B600006F0C8FE19232A46009335219F2304F549
:103B70000170FEF7EDFD4FF07F43C4F83432D4F806
:103B80000432A4F838520DF110094846D3F88430B5
:103B9000DFF864A004F50171984799E8070004F57F
:103BA000107383E80700DAF8003004F58D692BB94B
:103BB0000C4B0D4A60210D4812F0C2F90C4B1B88CA
:103BC000032B1BD80B4B084A6121F4E758880108E6
:103BD000FC8F0108A0870108C88D010840880108F2
:103BE0002B370008147B0108167C0108917B010823
:103BF00040380120D87B01083C380120704B5946E1
:103C0000186800F0FBFB6F4A0346402148460EF05F
:103C100029FE0423C4F84C920AA904F50170DFF8C8
:103C2000B091ADF82C30CDF8289008F0E7FD04F500
:103C30000171304606F05EFE4FF0C80B3846722226
:103C40000921FFF77AFB38460A232A462946CDF890
:103C500000B006F068FC64222B46384629460095E1
:103C600006F0ACFC38460AA9ADF8285006F0D4FDA1
:103C70004FF0FF33C4F89033A4F89433384604F57A
:103C8000617106F0AFFB38465A46414606F0D5FB57
:103C90002A463846414606F0B5FB38460A2106F06A
:103CA000D5FB3846012106F0DCFB3846642106F0DE
:103CB000EEFB3946304606F01DFE75223F2104F525
:103CC0006670FFF73AFB09220AA904F56670ADF8A1
:103CD000282008F02AFF04F56671304606F00AFE37
:103CE0005B22142104F57170FFF727FB0A220AA951
:103CF00004F57170ADF8282008F017FF04F5717114
:103D0000304684F8E95306F0F5FDE7224E2104F52C
:103D10007C70FFF712FB4FF0FF33C4F83034DAF851
:103D20000030294AC4F82024A4F82454C4F82C54A0
:103D3000C4F8345404F59D67002B3FF439AF234A8F
:103D40001388002B3FF43EAF1D4B2946186800F046
:103D500055FB1C4A0346402138460EF083FD04F50E
:103D60007C70C4F8387408F029FD4FF001030AA9EB
:103D700004F57C70ADF82C30CDF8289008F03EFDAD
:103D800004F57C71304684F8155406F0B3FD972293
:103D900004F23C402021FFF7D0FA16230AA904F2CE
:103DA0003C40ADF8283008F0C0FE304684F861543D
:103DB00004F23C4106F09EFD20460DB0BDE8F08FB8
:103DC00048380120617C0108FCFCFCFF40380120E0
:103DD000308401087047704770477047D0E902325D
:103DE00030B44468551004EB6200D20748BF6259F2
:103DF00030BC48BFD35818470346406830B19A6872
:103E00001AB9D86800F0010070470120704790F897
:103E10002D3080F8603070470146383091F82C30F2
:103E200013B1363108F081BE3431FBE710B564219F
:103E3000044612F057F8204610BD10B51021044674
:103E400012F050F8204610BD10B54FF4DE71044654
:103E500012F048F8204610BD70B50D7990F82C305E
:103E600004463DB93BB123682046D3F88830BDE80D
:103E7000704018477BB1B5FA85F35B0984F82C30A4
:103E800023682046D3F88C309847236820465B6926
:103E90009847002DE7D070BD9830884208B505D10D
:103EA0000BF052FABDE80840FEF788BD08BD0000DF
:103EB000074A02600022C0E90122C0E90322C0E9EA
:103EC0000522C0E907224FF480728284704700BF48
:103ED000A89101080B882DE9F04183861388B0F979
:103EE0000850C3860446104690460EF075FDB4F99E
:103EF0000A30074603EBD3734046C3F34F060EF078
:103F00009FFD05EBD575C5F34F0500EBD07007EBB2
:103F1000D777A6EB6002A5EB670104F1380012B277
:103F200009B2FFF70AFA23682046D3F88C30BDE8BF
:103F3000F04118472DE9F04F044685B0274600258B
:103F40000CF09CFF744BE56347F8403B2622294662
:103F5000384612F0FFF93846FFF7AAFF6F4B23648B
:103F600004F16C0BFF234FF6FF7604F1980884F8F8
:103F7000663003A9A5665846ADF80C60FFF716FC3D
:103F80004046FFF795FF4FF47F43A4F8C430012368
:103F900084F8BC30624BC4F8983004F1D0094FF07B
:103FA000FF33C4F8CC3003A9C4F8C050C4F8C850DB
:103FB0004846ADF80C3004F1FC0AFFF7F7FB494620
:103FC000404606F097FC04F5947903A95046ADF8F5
:103FD0000C60FFF7EBFB03A94846ADF80C60FFF758
:103FE000E5FB03A904F5AA70ADF80C60FFF7DEFB52
:103FF00003A904F5C070ADF80C60FFF7D7FB494B7F
:10400000C4E96B34484BC4E96D354FF4A0732A46BC
:10401000009329463846F023261DFEF799FB4FF002
:104020007F43A3663946304606F064FC2A4629469B
:104030005846FFF782F90D2303A95846ADF80C3016
:1040400008F073FD5946304606F054FC022303AADB
:1040500002A94046ADF80830ADF80C30FFF73AFF42
:1040600004F5D673C4F8C8302023C4F8D4504FF4F4
:104070008D7200934046CC21FEF76AFB41463046E4
:1040800006F038FCEB2250460A21FFF756F91223BE
:1040900003A95046ADF80C3008F047FD51463046B4
:1040A00006F028FCA02248467821FFF746F91023A5
:1040B00003A94846ADF80C3008F037FD49463046B4
:1040C00006F018FCEA2204F5AA70AA21FFF735F9D8
:1040D000112303A904F5AA70ADF80C3008F025FDF2
:1040E00004F5AA71304606F005FCDC2204F5C07028
:1040F0000A21FFF722F9042303A904F5C070ADF8E3
:104100000C3008F012FD304604F5C07106F0F2FBE9
:10411000204605B0BDE8F08F48890108FC8F0108F2
:104120009088010830890108993E00087047000016
:1041300030B5174D8FB02C68BFF35B8F14F00104BE
:1041400022D1284611F0D0FEF0B13F230993114B44
:104150000893114B079302230122CDE90543042361
:10416000CDE9033228230D490093CDE90B442923DF
:10417000CDE901440A480A94FEF750FF094811F0BE
:10418000FDFE284611F0BCFE05480FB030BD00BF53
:1041900038290020BC9C0108C89C0108749B0108B8
:1041A0003C2900202D4100087047000030B5164D15
:1041B0008FB02C68BFF35B8F14F0010420D1284628
:1041C00011F092FEE0B13F230993104B0893104B7E
:1041D000104911480A940122CDE906430423CDE990
:1041E00003320A230093CDE90B44CDE90144059441
:1041F000FEF714FF094811F0C1FE284611F080FEB9
:1042000005480FB030BD00BF68290020C09C0108E0
:10421000CC9C0108849B01086C290020A94100085E
:104220007047000030B5164D8FB02C68BFF35B8F20
:1042300014F0010421D1284611F056FEE8B13F23C5
:104240000993104B0893104B079301231522CDE9D6
:10425000054304930423CDE902430C49009219233A
:10426000CDE90B440A480A940194FEF7D7FE0948A9
:1042700011F084FE284611F043FE05480FB030BD12
:1042800098290020C49C0108D09C0108949B010837
:104290009C29002021420008002070470020704720
:1042A0000EB403B503AB002153F8042B01930CF0BB
:1042B00045F902B05DF804EB03B070470CB407B5E4
:1042C00004AB53F8042B01930CF038F903B05DF8FC
:1042D00004EB02B070470000436C10B5044673B3A2
:1042E000038F2BB9184B194AC521194811F028FE24
:1042F000C38E00EB43035B8C0BB30DF00AFD238FE1
:10430000012B03D8134B144ACB21EEE7E28E531C4A
:104310009BB2092B194688BFA3F10A0104EB4101A6
:1043200040F63F10498C814209D10A2B04EB42022E
:1043300028BF002304EB4303508C5884518420464B
:10434000BDE810400DF0E8BB5D7D0108667D010809
:10435000117E01085B7E0108697E01080DF0A3BB98
:1043600010B586B002AC84E806001A460AAB059385
:104370000193099B00932146089B0AF083FB06B03A
:1043800010BD000038B518BB124B13481C68134908
:10439000B4B1226822440260626822440A60A268C2
:1043A00014440F4B00221A8000F038F8054600F044
:1043B00033F80C4B1C600C4B1D600C4B188007E055
:1043C0000B4B03600B4B0B600B4B1C68002CE8D1B4
:1043D00038BD00BFD4290020CC290020C8290020E6
:1043E000D02900203C3801204438012040380120E9
:1043F000EC9C0108D49C0108249D0108044B1B6817
:1044000053F82100034B1B6803EB4000704700BFCB
:10441000C8290020CC29002006207047004870479A
:10442000D829002010B5FFF7FDFE044C2060FFF7EF
:104430007FFE6060FFF7BAFEA06010BDD8290020A3
:10444000704710B54FF4AE71044611F04BFD204695
:1044500010BD10B50446D0F8580100F015F82046FC
:10446000BDE810400BF034B810B50446FEF756FA1C
:10447000014B2360204610BD7C89010800225F218A
:10448000C0E9002182607047036801330360704710
:10449000704704387047704710B51021044611F07A
:1044A00021FD204610BDA0F10400F5E70022826046
:1044B000024A026018324260C1607047D089010828
:1044C0007047D0F8F0310133C0F8F0317047000088
:1044D00010B5034B03600446FEF739FE204610BDBD
:1044E000F889010810B50446FFF7F2FF20464FF4A3
:1044F000FA7111F0F7FC204610BD000010B504461B
:10450000FEF756FF034B23600023C4F8F03120462A
:1045100010BD00BFF889010810B50446FEF718FE6B
:10452000064B074A1B6804F5B07040210EF09AF95B
:1045300004F1CC00BDE810400CF02AB9D8250020C9
:104540003B7F0108704704387047704710B5102151
:10455000044611F0C7FC204610BDA0F10400F5E7A9
:1045600000228260024A026018324260C1607047D5
:104570002C8A01087047000010B5034B0360044605
:10458000FFF784F8204610BD548A010810B5044690
:10459000FFF7F2FF204641F2FC3111F0A3FC204668
:1045A00010BD0000044B186880EA403080EA50409B
:1045B00080EA4010186070471400002010B50446CF
:1045C000FFF762F91A4B236004F580539622A0216D
:1045D000C3F8E8233222C3E9E4210020154AC3F8D6
:1045E000F423C3F8C00314224FF4A070C3E9F1010F
:1045F000C3F8F82364200022C3E9F3024FF0030C50
:1046000040F2EF10C3E9F501C3E9EBC2C3E9F822B8
:10461000C3F8B42383F8B823C3F8BC230121C3F83B
:10462000EC23F022A3F8DC13C3F8F023204610BDDE
:10463000548A01080000704313B50446FEF7EEFFEC
:10464000002384F8A53184F8D13184F8FD3184F851
:10465000793184F8753284F8293284F8E93384F8A2
:10466000613484F8E930012384F8BD33FFF79AFF01
:104670000323B0FBF3F303EB4303C31A04F1C400B9
:104680001AD1102301A9ADF8043008F04EFAFFF753
:1046900089FF10F0010F14BF0423032304F5C07039
:1046A0000BBF01A90DEB0301ADF80430ADF80430E8
:1046B00008F03BFA02B010BD012B0CBF11231223EE
:1046C000E0E7000037B5364B00F580520446D2F8DB
:1046D000B01318688142C8BF1960A0213223C2E913
:1046E000E431304BC2F8F433FFF75CFF3C23B0FBFE
:1046F000F3F505FB13001430C2F8F8030020C2F8EC
:10470000C0034FF4A0700023C2E9F1015020C2E9B8
:10471000F30340F2EF10C2E9F50103250121F02077
:10472000A2F8DC13C2E9EB53C2E9F83382F8B833DC
:10473000C2F8EC33C2F8F00384F8BD1384F8E9330F
:1047400084F8613484F8D13184F8FD3184F8A531DE
:1047500084F8793184F8753284F8293284F8E930A4
:10476000FFF720FF10F0010F18BF042304F5C070FD
:104770000BBF01A90DEB0301ADF80450ADF80430F7
:1047800008F0D3F9201D0CF003F8074C2068002333
:104790001A4601A903F087FE0028F7D003B030BD08
:1047A000D825002000007043E82500202DE9F04FB7
:1047B00000F5805587B095F8B8930446B9F1000F1D
:1047C0000DD0D5F8BC330133B32BC5F8BC336ADD4B
:1047D0000AF0BAFD07B0BDE8F04FFEF7CFB8D5F844
:1047E000F033DFF850B5002B6EDD013BC5F8F03338
:1047F0000023DBF800001A460DF1160103F053FE0A
:104800000028F5D0D5F8F033B42B04F566764DDDED
:104810000923ADF8143005A9304608F086F9B4F83C
:10482000BE33ADF8143005A80EF0D6F8B4F8BE3398
:10483000A4F8A00305A8ADF814300EF001F9B4F9FE
:10484000A013A4F8A203C1F1F001C0F5A07000EB21
:10485000D07001EBD17140F34F0241F34F0130466C
:10486000FEF76BFD30460BF093FF04F16C000BF08C
:104870008FFFD5F8F033B3B984F8BD33012384F842
:10488000A53184F8D13184F8FD3195F8DC230AB1E3
:1048900084F8793184F8753284F8293284F8E93063
:1048A000201D0BF075FF07B0BDE8F08F782B01DD00
:1048B0000823AEE73C2B01DD0723AAE71423ADF85C
:1048C00014300DEB0301A7E700F5C0731846009301
:1048D0000BF05EFF04F5D673184604F5EC7A0193ED
:1048E0000BF056FF50460BF053FF04F16C031846D3
:1048F00002930BF04DFF04F19803184604F1C4062F
:10490000039304F514780BF043FF30460BF040FF9F
:1049100040460BF03DFF95F8DC331BB104F5AA705F
:104920000BF036FF04F5717738460BF031FF0023AA
:10493000DBF800001A460DF1160103F0B4FD002863
:1049400040F03482BDF8161004F58053012993F825
:10495000DD2340F0F181002A00F0B78104F5805397
:10496000A022C3F894230022C3F8C02304F5805B7F
:104970000098BBF99013BBF99423FEF7DEFC9BF87B
:10498000DD13002900F03782DBF8E41364230139DA
:10499000CBF8E41340465943DBF8E83391FBF3F1DD
:1049A00005F075FDDBF8E4230A2192FBF1F301FB2E
:1049B0001323042BCCBF00230123002A84F8D13118
:1049C00084F8FD3184F8793140F303820C2507EE39
:1049D000105A04F58052B8EEC77AD2EDFD7AD2F8BB
:1049E000D033F6EE006AE7EE667A5B1B13F1F00F48
:1049F0009FEDCB7AD8BF0023F4EEC77AC2F8D0334C
:104A0000F1EE10FAA4F8703003F1F003A4F89C3032
:104A100000F11782C2EDFD7A04F5805BDBEDFD7AD3
:104A2000BBF9F823FDEEE77A304617EE903A19B25B
:104A3000FEF783FCDBF8C433DBF8D4235B1BCBF835
:104A4000C433521B1E33CBF8D42336DA4FF4A07391
:104A5000CBF8C433FFF7A6FDA023B0FBF3F101FBB5
:104A600013005030CBF8C803FFF79CFD1E23B0FBAA
:104A7000F3F101FB13009BF8DD13DBF8B0335A3080
:104A8000CBF8CC03002900F0FF810233CBF8B03320
:104A9000052193FBF1F101EB81018B4208D104F573
:104AA0008050D0F8AC130729DCBF0131C0F8AC133B
:104AB0009C4908689842B8BF0B6004F580552032C5
:104AC000D5F8C41312DA01F1AF03C5F8D433FFF7F8
:104AD00069FDB423B0FBF3F202FB13003C30012369
:104AE000C5F8D80385F8DC3384F8793104F58055AE
:104AF000D5E9F22303EBD3735B105B42A2EB030B0C
:104B00001A44C83A019812B209B2FEF716FCB5F978
:104B1000C4130FFA8BF25046FEF70FFC95F8DC3306
:104B20003BB1B5F9D823B5F9D41304F5AA70FEF753
:104B300004FCB4F9B031B4F9842103F11E018A42B6
:104B400080F2AF8102F123018B4280F2AA81B4F995
:104B5000B211B4F9863101F1C800834280F2A1811B
:104B600020339942ACBF00210121B4F9DC3103F1BB
:104B70001E00824212DA02F1230083420EDAB4F9F7
:104B8000DE01B4F9863100F1C805AB4206DA203304
:104B90009842ACBF4FF000094FF0010904F5805373
:104BA00093F8DD536DB9D3F8EC03002809DC11B993
:104BB000B9F1000F05D05C4903200870012183F88A
:104BC000B81393F8DC1369B3B4F9581101F120005C
:104BD000824227DA2332914224DAB4F95A11B4F925
:104BE000862101F1200082421CDA2032914219DA3A
:104BF000D3F8B0230432C3F8B0233DB9D3F8E0139F
:104C000004310829C8BF0821C3F8E01304F5805314
:104C1000002183F8DC13434B84F8791119688A4228
:104C2000C8BF1A6004F5805595F8B833FBB100236E
:104C30003E4AC5F8BC334021D5F8B0334FF0010BE4
:104C400004F59D600DF00EFE04F57C7084F815B43B
:104C50000BF09EFD84F861B404F23C400BF098FD2B
:104C6000304BD5F8B02319688A42A8BF1A6004F502
:104C700080552E4AD5F8B033402104F58D600DF0F3
:104C8000F1FD04F501700BF083FD00980BF080FD41
:104C900001980BF07DFD50460BF07AFD02980BF069
:104CA00077FD03980BF074FD30460BF071FD404624
:104CB0000BF06EFD38460BF06BFD95F8DC33002BE6
:104CC0003FF4F1AD04F5AA70EBE54FF04042C3F8B4
:104CD000C023D5EDF07A9FED167AD5F8942377EEC0
:104CE000877AC5EDF07AFDEEE77A17EE903A9B18D9
:104CF00068D4B3F58C7FC5F894337FF737AED5F819
:104D0000EC33002BDFBF012385F8B833064B0322B9
:104D1000CABF4FF48C731A70C5F8943326E600BFEF
:104D2000000070C2D8250020E02500203B7F01084C
:104D3000CDCCCC3DE8250020022937D1D3F8E013B3
:104D4000072933DD002A7FF409AED3F8EC130029DC
:104D5000BFDC012183F8DD13D3F8E813C3E9F821A0
:104D6000FFF720FC0323B0FBF3F303EB4303C01A6C
:104D700023D10A2305A93846ADF8143007F0D5FE33
:104D8000B4F8EA33ADF8143005A80DF025FEA4F808
:104D9000CC03C0F1F00000EBD07040F34F013C2297
:104DA0003846FEF7CAFA012384F8E93304F5805344
:104DB00093F8DD33002B8CD0D0E501280CBF0B23FA
:104DC0000C23D7E70023C5F894330023C5F8C0337C
:104DD000CCE500231E228BF8DD33CBF8EC2384F8DE
:104DE000E933012384F8D13184F8FD319BF8DC33B9
:104DF00084F87931EAE5DBF8EC33DBF8AC53002BCF
:104E000013DD013B0A20B3FBF0F200FB1232002B52
:104E100018BF042ACBF8EC33D4BF0123002384F855
:104E2000A531404605F033FBD1E5DBF8E0336421E2
:104E30004B43B3F54A7FF4DA191EB8BF0731C910E6
:104E4000EFE7194BC2F8F433FFF7ACFB6423B0FB78
:104E5000F3F101FB13000A30C2F8F803FFF7A2FBDD
:104E60000323B0FBF3F303EB4303C01A07D1102372
:104E700005A93046ADF8143007F057FECCE50128FF
:104E80000CBF11231223F3E7DBF8E013072903F12A
:104E90000103D8BF0131CBF8B033D8BFCBF8E01352
:104EA000F6E5002161E600BF00007043704704385A
:104EB0007047704710B51021044611F013F82046D2
:104EC00010BDA0F10400F5E700228260024A0260F2
:104ED00018324260C16070478C8A010813B5064CD5
:104EE000206800231A460DF1060103F0DCFA0028C1
:104EF000F6D002B010BD00BFE825002010B5034B6E
:104F000003600446FEF768FF204610BDB48A01081E
:104F100010B50446FFF7F2FF20464FF4E67110F09B
:104F2000E1FF204610BD000010B50446FFF702F86F
:104F3000074B23600A23C4F8C431064BC4F8BC31C4
:104F40000023C4F8C031002384F8C831204610BDC6
:104F5000B48A010800800945FEF73FBF37B500F568
:104F6000C075044628460BF013FC2F4800231A4650
:104F700000680DF1060103F096FA94F8C831A8BB59
:104F8000BDF80620012A1DD143BB4FF04043C4F8B1
:104F9000C031D4ED707A9FED257A77EE877A94ED63
:104FA0006F7AC4ED707A77EE877A9FED217AF4EE0E
:104FB000C77AF1EE10FA1CDD002384ED6F7AC4F895
:104FC000C03118E0022A11D143B9012384F8C83155
:104FD000184BC4F8BC310023C4F8C031D4F8C43134
:104FE0000C33F02B18DCC4F8C43104E0002BD0D013
:104FF000F4E7C4ED6F7AD4ED6F7AD4F8C431A4F835
:105000008431FDEEE77A284617EE903AA4F886310F
:105010000BF0BEFB03B030BD0A23C4F8C43100233B
:1050200084F8C831E7E700BFE8250020CDCCCC3DAF
:1050300000005C4300005C43F02070474FF4A07018
:1050400070472920FCF776BD2820FCF773BD08B512
:10505000FCF744FDCA20FCF76DFDC320FCF74EFDB4
:105060000820FCF74BFD5020FCF748FDCF20FCF753
:1050700061FD0020FCF742FDC120FCF73FFD302020
:10508000FCF73CFDED20FCF755FD6420FCF736FDF8
:105090000320FCF733FD1220FCF730FD8120FCF7E4
:1050A0002DFDE820FCF746FD8520FCF727FD0020BC
:1050B000FCF724FD7820FCF721FDCB20FCF73AFD1E
:1050C0003920FCF71BFD2C20FCF718FD0020FCF715
:1050D00015FD3420FCF712FD0220FCF70FFDF72030
:1050E000FCF728FD2020FCF709FDEA20FCF722FD53
:1050F0000020FCF703FD0020FCF700FDB120FCF7C9
:1051000019FD0020FCF7FAFC1B20FCF7F7FCB62089
:10511000FCF710FD0A20FCF7F1FCA220FCF7EEFCE6
:10512000C020FCF707FD1020FCF7E8FCC120FCF7CD
:1051300001FD1020FCF7E2FCC520FCF7FBFC45203C
:10514000FCF7DCFC1520FCF7D9FCC720FCF7F2FCCF
:105150009020FCF7D3FC3620FCF7ECFCC820FCF7D1
:10516000CDFCF220FCF7E6FC0020FCF7C7FCB020E9
:10517000FCF7E0FCC220FCF7C1FCB620FCF7DAFC2F
:105180000A20FCF7BBFCA720FCF7B8FC2720FCF7A3
:10519000B5FC0420FCF7B2FC2A20FCF7CBFC002075
:1051A000FCF7ACFC0020FCF7A9FC0020FCF7A6FCF7
:1051B000EF20FCF7A3FC2B20FCF7BCFC0020FCF745
:1051C0009DFC0020FCF79AFC0120FCF797FC3F2097
:1051D000FCF794FCF620FCF7ADFC0120FCF78EFCFC
:1051E0000020FCF78BFC0620FCF788FC2C20FCF749
:1051F000A1FCC820FCF7EAFC2620FCF79BFC012060
:10520000FCF77CFCE020FCF795FC0F20FCF776FC1B
:105210002920FCF773FC2420FCF770FC0C20FCF721
:105220006DFC0E20FCF76AFC0920FCF767FC4E20A1
:10523000FCF764FC7820FCF761FC3C20FCF75EFC8A
:105240000920FCF75BFC1320FCF758FC0520FCF759
:1052500055FC1720FCF752FC1120FCF74FFC0020F6
:10526000FCF74CFCE120FCF765FC0020FCF746FC59
:105270001620FCF743FC1B20FCF740FC0420FCF745
:105280003DFC1120FCF73AFC0720FCF737FC3120ED
:10529000FCF734FC3320FCF731FC4220FCF72EFCF9
:1052A0000520FCF72BFC0C20FCF728FC0A20FCF75F
:1052B00025FC2820FCF722FC2F20FCF71FFC0F20E8
:1052C000FCF71CFC1120FCF735FCC820FCF77EFC29
:1052D0002920FCF72FFCBDE808402C20FCF72ABC55
:1052E00008B5FCF7FBFB0321D320FCF73FFC80B2A1
:1052F00008BD10B5C4B2022203212046FCF7A6FB6C
:105300000A20FCF7E9FB204600220321FCF79EFB64
:10531000BDE810400220FCF7DFBB38B50446E4B21C
:10532000FCF792FB00212046FCF7A6FB0121054675
:105330002046FCF7A1FB40EA052080B238BD10B53D
:10534000C4B240212046FCF797FB030607D54C2149
:105350002046FCF791FB003818BF012010BD012248
:105360004B212046FCF772FB204600224B21FCF724
:105370006DFB0020F2E773B50423C4B20E46154658
:10538000D7210DEB03022046FCF790FB019B1BBAD3
:105390001A0DC3F30B23328020462B8001224B21B0
:1053A000FCF754FB00224B212046FCF74FFB02B0D8
:1053B00070BD000010B50A4A1378984204460DD01B
:1053C000517888420AD00BB141B90123D454FCF77B
:1053D0003BFB2046BDE81040FFF78BBF10BD00BF70
:1053E000E429002010B5C4B209212046FCF744FB93
:1053F00040F00102D2B220460921BDE81040FCF77E
:1054000025BB10B5C4B209212046FCF735FB0921A4
:1054100000F0FE022046BDE81040FCF717BB38B58F
:10542000C4B20D4620460A21FCF726FB40EA0502DD
:10543000D2B220460A21BDE83840FCF707BB10B5C0
:105440000446FCF702FB20461F21FFF7E8FF204639
:10545000BDE81040FFF7C6BF38B5C4B20D462046C0
:105460000A21FCF709FB20EA0502D2B220460A21F4
:10547000BDE83840FCF7EABA10B50446FFF7C1FFB3
:1054800020461F21BDE81040FFF7E6BF10B5C0B2AF
:105490000C460B21FCF7F0FA204010BD1F21FFF74E
:1054A000F5BF0A46C0B20B21FCF7D0BA1F21FFF7A7
:1054B000F8BF38B5C4B20D4620461721FCF7DCFA18
:1054C00020EA0502D2B220461721BDE83840FCF799
:1054D000BDBA70B5C4B2064604212046FCF7CCFA2A
:1054E000042100F0FB0205462046FCF7AFFA3046E7
:1054F000F021FFF7DEFF05F0F80220460421FCF75B
:10550000A5FA492220212046FCF7A0FA0220FCF748
:10551000E3FA204601222121FCF798FA20469A223C
:105520004121FCF793FA204601224A21FCF78EFA2A
:10553000204601224B21FCF789FA204600224B210C
:10554000FCF784FA204601225621FCF77FFA204618
:1055500001225821FCF77AFA204601224021FCF76B
:1055600075FA2046FF220B21FCF770FABDE8704067
:105570000220FCF7B1BA0000054BD3F8882042F4B2
:105580007002C3F888204FF000629A60704700BF35
:1055900000ED00E008B50B4B1A6842F400721A6087
:1055A0001A6842F480621A601A6842F480721A60C3
:1055B000032000F005FA0020FCF7F6FDFCF714FBD1
:1055C000002008BD003C0240034A044B11681B78D0
:1055D0000B441360704700BFE82900207C000020C6
:1055E000014B1868704700BFE829002038B5044611
:1055F000FFF7F6FF631C1CBF054B1B78054618BF61
:10560000E418FFF7EDFF431BA342FAD338BD00BFF8
:105610007C00002038B50446002800F09B80056C13
:1056200025B9FCF701FB656484F83C50236CDB066C
:1056300000F18E80236C23F4885323F0020343F09F
:1056400002032364444B5A6822F440325A605A6879
:1056500061680A435A60236821695A6822F480729B
:105660005A605A6842EA01225A605A68A16822F0D8
:1056700040725A605A680A435A609A68E16822F494
:1056800000629A609A680A439A603449A26A8A4220
:1056900052D0996821F07061996099680A439A60C4
:1056A0009A68E16A22F040529A609A680A439A60C6
:1056B0009A6822F002029A609A68217E42EA4102C8
:1056C0009A6094F82020002A3ED05A68616A42F419
:1056D00000625A605A6822F460425A605A6801397E
:1056E00042EA41325A60DA6AE16922F47002DA620F
:1056F000DA6A013942EA0152DA629A6822F40072E7
:105700009A609A6894F8301042EA41229A609A6846
:10571000616922F480629A609A68002042EA8122DC
:105720009A606064236C23F0030343F00103236455
:10573000002384F83C3038BD9A6822F070629A6089
:105740009A6822F04052B2E75A6822F40062C9E730
:105750000120EDE70120EEE7002301400100000FEA
:10576000704770477047036870B51E685D68B20780
:1057700004462BD5A80629D5226CD1065EBF226C23
:1057800042F4007222649A6812F0405F17D1227EC0
:10579000AAB9DA6A12F4700F02D09A6852050ED4D0
:1057A0005A6822F020025A60236C23F48073236429
:1057B000236CD8045EBF236C43F0010323642046AE
:1057C000FFF7CEFF23686FF012021A60710733D51E
:1057D0002A0631D5236CDB065EBF236C43F40053ED
:1057E000236423689A6812F4401F1ED19A6B12F446
:1057F000401F02D09A68500517D45A68510514D436
:105800009A6812F0405F10D1227E72B95A6822F075
:1058100080025A60236C23F480532364236CDA05DE
:105820005EBF236C43F001032364204600F0C6F8FA
:1058300023686FF00C021A60F30710D568060ED5C6
:1058400023681B68D9070AD5236C43F4803323648B
:105850002046FFF786FF23686FF001021A60B20648
:105860000ED56B010CD5636C43F0020363642368AF
:105870006FF020051D602046FFF774FF23681D6050
:1058800070BD0000F7B50023019390F83C30012B68
:10589000054600F08680012380F83C3008682B68BC
:1058A0008E68092884B233D904EB4402DF681E3ABB
:1058B0004FF0070C0CFA02FC27EA0C07DF60DF68E8
:1058C00006FA02F23A43DA604968062901EB8102DE
:1058D0002DD8596B053A1F26964021EA06015963D7
:1058E000596B04FA02F20A435A632F4A93420AD1CF
:1058F000122837D12D4B5A6822F400025A605A6898
:1059000042F480025A60002085F83C0003B0F0BDEC
:105910001A6900EB400C072707FA0CF722EA070286
:105920001A611A6906FA0CF616431E61CCE70C29B7
:105930004FF01F010BD81E6B233A914026EA01015C
:105940001963196B04FA02F20A431A63CDE7DE6A9F
:10595000413A914026EA0101D962D96A94400C4348
:10596000DC62C2E7124B984201D01128CBD10F4B19
:105970005A6822F480025A605A6842F400025A605F
:105980000B4B9842BFD10B4B0B4A1B68B3FBF2F396
:105990000A2253430193019B002BB4D0019B013B8E
:1059A000F8E70220B2E700BF0020014000230140D9
:1059B000120000107800002040420F0070470000E5
:1059C0000749CA6822F4E0620302120403F4E063A8
:1059D000120C134343F0BF6343F40033CB607047B2
:1059E00000ED00E0164B30B5DC68C4F30224C4F1CE
:1059F0000703251D042B28BF0423062D4FF0FF3578
:105A00008CBF033C002405FA03F321EA0303A540FD
:105A100022EA0502A340002843EA0203ACBF00F1DA
:105A20006040084A4FEA0313B8BF00F00F00DBB232
:105A3000AABF00F56140135480F8003330BD00BFA9
:105A400000ED00E014ED00E0002807DB044A410906
:105A5000012300F01F00834042F82130704700BF4F
:105A600000E100E010B5044650B1437903F0FF02B5
:105A700013B90271FCF738F901236371002010BDDE
:105A80000120FCE710B5044620B390F8393003F04C
:105A9000FF021BB980F83820FCF73EF9022384F896
:105AA0003930236861681A6822F440320A431A6068
:105AB0005A6BA16822F007020A435A631A6CE16824
:105AC0006FF30D020A431A6400200123E06384F897
:105AD000393010BD0120FCE770477047036870B58E
