:020000040800F2
:1000000000000320BD0500086D2200086F220008D3
:100010007122000873220008752200080000000009
:1000200000000000000000000000000061890008DE
:100030007722000800000000F18900086B820008A8
:100040000D0600080D0600080D0600080D06000844
:100050000D0600080D060008B92200080D0600086C
:100060000D0600080D0600080D0600080D06000824
:100070000D0600080D0600080D0600080D06000814
:100080000D0600080D060008792200080D0600087C
:100090000D0600080D0600080D0600080D060008F4
:1000A0000D0600080D0600080D0600080D060008E4
:1000B0000D0600080D0600080D0600080D060008D4
:1000C0000D0600080D0600080D0600080D060008C4
:1000D0000D0600080D0600080D0600080D060008B4
:1000E0000D0600080D0600080D0600080D060008A4
:1000F0000D0600080D0600080D0600080D06000894
:100100000D0600080D0600080D0600080D06000883
:100110000D0600080D060008952200080D060008CF
:100120000D0600080D0600080D0600080D06000863
:100130000D0600080D0600080D0600080D06000853
:100140000D0600080D0600080D0600080D06000843
:100150000D0600080D0600080D0600080D06000833
:100160000D0600080D0600080D0600080D06000823
:100170000D0600080D0600080D060008000000002E
:100180000D0600080D0600080D0600080D06000803
:100190000D0600080D0600080D0600080D060008F3
:0C01A000A12200080D060008AD22000896
:1001B00010B5054C237833B9044B13B10448AFF3A1
:1001C00000800123237010BDF40000200000000017
:1001D0003071010808B5034B1BB103490348AFF365
:1001E000008008BD00000000F80000203071010808
:1001F00001F0FF01102A2BDB10F0070F08D010F8D8
:10020000013B013A8B422DD010F0070F42B3F6D1DB
:10021000F0B441EA012141EA014122F007047FF0F4
:1002200000070023F0E80256083C85EA010586EA4B
:10023000010685FA47F5A3FA87F586FA47F6A5FA87
:1002400087F68EB9EED1F0BC01F0FF0102F0070293
:1002500032B110F8013B013A83EA010313B1F8D13E
:100260000020704701387047002D06BF354603381F
:10027000073815F0010F07D1013015F4807F02BF58
:10028000013015F4C03F0130F0BC0138704700BFA9
:1002900053B94AB9002908BF00281CBF4FF0FF31ED
:1002A0004FF0FF3000F088B9ADF1080C6DE904CED5
:1002B00000F006F8DDF804E0DDE9022304B0704741
:1002C0002DE9F047089D0F4604468C46002B48D187
:1002D0008A42164661D9B2FA82F34BB1C3F12002C9
:1002E00001FA03FC20FA02F29E4042EA0C0C9C4008
:1002F0004FEA164EB7B2BCFBFEF1220C0EFB11CC3E
:1003000042EA0C4201FB07F0904209D9B21801F110
:10031000FF3C80F0EE80904240F2EB8002393244A4
:10032000121AA4B2B2FBFEF00EFB102244EA024401
:1003300000FB07F7A74209D9341900F1FF3280F01A
:10034000DA80A74240F2D7803444023840EA0140C4
:10035000E41B00211DB1DC400023C5E90043BDE8DA
:10036000F0878B4206D90DB1C5E90001002108468E
:10037000BDE8F087B3FA83F1002948D1BB4202D32C
:10038000824200F20781841A67EB0302012094463F
:10039000002DE4D0C5E9004CE1E7002A00F092808E
:1003A000B2FA82F3002B40F0A8808A1A4FEA164E68
:1003B0001FFA86FC0121200CB2FBFEF70EFB172270
:1003C00040EA02420CFB07F0904207D9B21807F14D
:1003D000FF3802D2904200F2E2804746121AA4B2DD
:1003E000B2FBFEF00EFB102244EA02440CFB00FCC0
:1003F000A44507D9341900F1FF3202D2A44500F216
:10040000CB801046A4EB0C0440EA0740A2E7C1F100
:1004100020068B4022FA06FC4CEA030C07FA01F492
:1004200020FA06F3F7404FEA1C49234300FA01F88B
:100430001FFA8CFEB7FBF9F01C0C09FB107744EA9D
:10044000074400FB0EF7A74202FA01F20AD91CEB9F
:10045000040400F1FF3A80F09B80A74240F29880AC
:1004600002386444E41B9FB2B4FBF9F309FB134464
:1004700047EA044403FB0EFEA64509D91CEB04041D
:1004800003F1FF3780F08280A6457FD9023B6444A8
:1004900043EA0040A4EB0E04A0FB02E7BC42734613
:1004A000B94663D360D05DB1B8EB030264EB0904D5
:1004B00004FA06F622FA01F31E43CC40C5E90064B3
:1004C00000214CE76208480842EAC1710B0C43EA7C
:1004D00000438AB242EA0342B3FBF6F1E407B446B2
:1004E0003746B6461F23B0FBF6F0D21B41EA004167
:1004F00061E7614614E7104628E7C3F1200120FABE
:1005000001F29E4027FA01F19F403A434FEA164E0E
:100510001FFA86FCB1FBFEF70EFB1710110C41EA27
:10052000004107FB0CF8884504FA03F43AD9711826
:1005300007F1FF3001D288451FD8A1EB0801B1FBBC
:10054000FEF808FB0CF70EFB181192B242EA0142CA
:10055000BA422FD2B21808F1FF31C6D2BA42C4D281
:10056000A8F102013244C0E7F0459CD2BEEB020381
:1005700067EB0C070138B94695E7A6EB080841443C
:10058000B81EB1FBFEF808FB0CF7DCE73B467FE743
:10059000504667E70846FBE63444023832E7023F3C
:1005A00032441BE7A1EB08013846B1FBFEF808FB1B
:1005B0000CF7C8E7414698E7704700BFDFF834D032
:1005C000002103E00C4B5B58435004310B480C4BAB
:1005D00042189A42F6D30B4A02E0002342F8043B49
:1005E000094B9A42F9D305F045F816F039F800F0B6
:1005F0009BFF704700000320209F1608000000208A
:10060000F4000020F4000020483B0120FEE7704782
:1006100008B500F06FFDBDE8084000F0F5BC00F043
:100620006BBD704710B50421044615F0DBFC204675
:1006300010BD000038B50C4B0C4C18800C4B8220C0
:1006400019806368984740F6110398420AD1094D12
:1006500023682C60822098472B688220DB689847AB
:10066000002038BD0120FCE71A01002050000020C6
:10067000180100201C0100204FF4A071F020FFF7AA
:10068000D9BF0000F7B5354D2B6804461B698220A1
:100690009847208000284BD02B680DF106025B693B
:1006A00001A982209847BDF8063040F67462934253
:1006B00040D9ADF80620BDF80630D21A92B20A2A07
:1006C0003ED90B23B2FBF3F2254B1B889A4201D98A
:1006D000013B9AB2BDF80430224840F6B8318B4253
:1006E00030D8C3F571630E3301689BB20F25B3FB9D
:1006F000F5F31D4D2D88AB4284BF05F1FF35ABB23C
:100700008B421D468EB226D99B1B99B2174F3E686D
:10071000B3B2B2428CBFD31A9B1A9BB219440529BB
:10072000C8BF05600368C4BF3A6016466380A680F0
:1007300003B0F0BDB32B9CBFB423ADF80630BAE7CD
:100740000022C7E7C3F56D6308339BB20E2B016827
:10075000CCD800252B46C91A89B2D7E71C01002046
:1007600018010020140100201A01002010010020AF
:1007700037B568460D461446FFF784FFBDF8000004
:1007800030B1BDF802302B60BDF804302360012089
:1007900003B030BD032821D8DFE800F0020B1219A6
:1007A0000F4B1A68B2FA82F2520904210D4805F083
:1007B000CBBB0B4B5A68B2FA82F252090821F5E71B
:1007C000074B9A68B2FA82F252091021EEE7044B05
:1007D000DA68B2FA82F252092021E7E7704700BFD7
:1007E0002001002000100240032821D8DFE800F09B
:1007F000020B12190F4B1A68003A18BF012204218C
:100800000D4805F0A1BB0B4B5A68003A18BF0122F6
:100810000821F5E7074B9A68003A18BF012210211A
:10082000EEE7044BDA68003A18BF01222021E7E71F
:10083000704700BF200100200010024003280DD89F
:10084000DFE800F00206080A0421054805F081BB34
:100850000821FAE71021F8E72021F6E7704700BFEA
:100860000010024008B5032811D8DFE800F0020AA2
:100870000C0E0421074805F061FB431E5842584105
:1008800008BD0821F6E71021F4E72021F2E7002057
:10089000F3E700BF0010024070B5084D00240126A8
:1008A000E0B2FFF7DFFF18B12B68012B18BF2E60F5
:1008B0000134052C05F10405F2D170BD20010020A2
:1008C000012380F8781080F8793070477047002055
:1008D00070470000034B4164003918BF01211970B3
:1008E000704700BFCB370120704700207047836BF3
:1008F0000BB10846184770474FF6FF7070474068C5
:1009000003689B6918477047704770477047704786
:1009100070B5044600F09AFC2368D3F88C50044B61
:10092000D4E90F122046AC46BDE87040604700BFD6
:10093000000000D008B503680446D3F88430984717
:1009400023682046DB6F984700F0ECF823682046C8
:100950005B6F9847292001F0FFF800F0E3F8236867
:1009600020465B6F9847F8E710B504460BF0B6F8E1
:1009700023682046D3F8BC30BDE81040184700F08B
:1009800057BC00F05BBC00F07FBC00F02DBC00F059
:100990007FBC00F087BC00F031BC0AF0C1BA10B5D2
:1009A0008421044615F01EFB204610BD10B590F8BA
:1009B000341090F878400C4B8C421A7809D03AB930
:1009C0000A4A0B491488088810800C8001221A708A
:1009D00010BD002AFCD0054A0549148808881080FB
:1009E0000C800022F3E700BFC4370120C03701208C
:1009F000C237012070B50D46194635B9094B0A4A70
:100A00000A4840F2FF2115F01BFBC0E90F52084BCA
:100A1000003A18BF01221A700368BDE87040D3F88D
:100A200090301847A0710108D8710108267201089A
:100A3000CA37012008B5094B1B888B4203D8084BE5
:100A40001B88934205D9074B074A0848A32115F094
:100A5000F7FA074B1980074B1A8008BDC0370120F1
:100A6000C23701206B720108CE720108267201089C
:100A7000C6370120C8370120034690F87A0018B124
:100A8000586803681B68184770470000012108B5C3
:100A90000022084607F072FC0A4B186028B90A4B7E
:100AA0000A4A28210A4815F0CBFA00220421012025
:100AB00007F00BFD074B186018B9074B034A2C21B0
:100AC000F0E708BD34010020117301085A730108D2
:100AD0008973010830010020D1730108024B4FF0E7
:100AE000FF31186807F094BC34010020014B1868EE
:100AF00007F0BABC34010020024B0021186807F04F
:100B000087BC00BF34010020FFF7F0BF0348044951
:100B1000006800231A4607F013BD00BF3001002013
:100B20000400002013B5084C00231A4601A92068D0
:100B300007F037FD20684FF0FF33002201A907F0CE
:100B400030FD02B010BD00BF3001002003685B6CB7
:100B500018470120704703689B6A1847FEE740F278
:100B6000EF307047054B0360054B4FF08062C3F8D0
:100B70008820BFF34F8FBFF36F8F7047B481010898
:100B800000E100E010B504464FF45A61FFF7EAFFB8
:100B9000204615F027FA204610BD000082B0002341
:100BA00001930E4B1A6B42F400021A631A6B02F4A3
:100BB00000020192019A1A6942F400021A611A694C
:100BC00022F400021A61064B064A1A61064A5A616B
:100BD000064B4FF080629A6002B0704700380240C6
:100BE000F8270020390E00085D0B000800E100E046
:100BF00008B50A2809D8DFE800F006100E08080832
:100C0000081010101000022008BD054B054A0648C8
:100C1000902115F015FA0020F6E70120F4E700BF57
:100C2000137401082E7401087974010870B50C461C
:100C3000887FFFF7DDFFA18AE28A164B256958639A
:100C400042EA01425A64628BDD63521A1A642668D2
:100C5000E168082E0DD19A611A615862207F0E4A10
:100C600042EA0062DA610D4A19625D61DD601A6074
:100C700070BD0022D8611A6148090A0A02F478425C
:100C800000F4FC600243C1F3C4010A439A63044ABE
:100C9000EDE700BF00B0024009000100012302009F
:100CA0000123030008B50B280BD8DFE800F006127B
:100CB000100A0A0A0A0808080808022008BD0520C8
:100CC000FCE7054B054A06486F2115F0B9F90020ED
:100CD000F4E70120F2E700BF13740108BF740108B4
:100CE000797401082DE9F04191F81D800C464046C9
:100CF000FFF7D8FFA77F05463846FFF7D3FF064624
:100D00003846FFF775FFA18A628B454B521A1A6469
:100D10009A61228B521A1A61E28A586342EA0142AE
:100D20005A6421696268D963DA60D4F800C0207F10
:100D3000BCF1800F4FEA006229D013D8BCF1200F1C
:100D400045EA020064D0BCF1400F61D0BCF1040F51
:100D50005ED0334B154345F40035B845DD615BD0BB
:100D6000304A40E0BCF5807F07D0BCF5007FF0D171
:100D700042F4003242F0090203E042F4003242F051
:100D80000A02DA61E2681A625E6259612AE0A468C6
:100D90002A4342F40032271DDF62DA6122785E6264
:100DA000596142B1012A21D01F4B204A20484FF4FB
:100DB0008D7115F045F9DA69618822F47F420139B5
:100DC00022F0100242EA0122DA610121144BDA69B1
:100DD00042F02002DA61DA699206FCD410229A60AD
:100DE0000029BDD0134A1A60BDE8F081DA69B0F17C
:100DF000FF01608822F47F4200F1FF3022F01002F0
:100E000042EA002242F0100218BF0121DA61DDE758
:100E100040F40030D861B7E742F20132E3E700BFA7
:100E200000B0024001230100097501082375010883
:100E30007974010801230200024B1B68586803689B
:100E40005B691847CC37012070B5044625460A4B2C
:100E50000C30002660602672667245F8203B6022E6
:100E600029460AF091FF04F55A63EE6024359D424D
:100E7000FBD1204670BD00BFB4810108034B1A6846
:100E8000D207FCD423229A60704700BF00B0024012
:100E900030B50F4C2568ED07FCD423250904A56067
:100EA00041F001010225FF2B65636164E0630AD014
:100EB0000849656241EA0363E361074B22626061AE
:100EC000E060236030BDE561039BA363034BF8E75B
:100ED00000B002400900010001000200010003000F
:100EE000012070474020704700EB811008307047A8
:100EF00000EB8110083070470120704741F2E43068
:100F0000704741F2E43303FB01000830704741F2BF
:100F1000E43303FB010008307047012070471020C4
:100F2000704700EB01100830704700EB01100830EB
:100F30007047084601F034BD10B5034B036004460A
:100F400009F0C7FA204610BD6C82010810B50446AE
:100F5000FFF7F2FF2046482115F044F8204610BD67
:100F600010B5034B0360044609F0B3FA204610BDE8
:100F70003882010810B50446FFF7F2FF204641F21F
:100F8000EC3115F02FF8204610BD000010B5034BD2
:100F90000360044609F09DFA204610BD0482010852
:100FA00010B50446FFF7F2FF2046182115F01AF895
:100FB000204610BD10B5094B0360044600F5A05053
:100FC0001830FFF7B9FF04F12C00FFF7C9FF04F157
:100FD0001400FFF7DBFF204610BD00BFA082010810
:100FE00008B50248FFF7E6FF08BD00BFF40F002078
:100FF00010B50446FFF7DEFF204641F2C85114F059
:10100000F1FF204610BD0000F7B501F0DBF9054601
:1010100001F0DCF9002401460094234622462846CC
:1010200011F046FD274B284A1A60204603F0BCF910
:101030002648274C11F0A4FC2368BFF35B8FDB0725
:101040003AD4204614F0D0FF002835D0214A224E51
:10105000224B136002F12C0702F1140006F1540533
:1010600097605060D660156109F034FA1C4B47F860
:10107000183C384609F02EFAA7F12C021746194BF6
:10108000D362304609F026FA07F58053164AC3F8B2
:10109000182407F5A35003F003FA3A4607F5A351C5
:1010A000284603F0F3F9284601F07AFC0F4814F0C3
:1010B000E5FF204614F0A4FF0D4803B0BDE8F04062
:1010C000FFF726BC30380120BC01002008000020BA
:1010D000F00F0020F40F00200C240020A082010853
:1010E00004820108388201086C820108E10F0008BF
:1010F00038010020704700000148FFF71BBC00BF0B
:101100003801002070B5254E254C264D264B236016
:101110003046FFF799FE284612F02AFB234B24485D
:10112000DC6000224FF48071C3E9121221491A8653
:10113000C3E91A12204983F85820C3E91E011F4948
:10114000C3F880101E491F480B60F021C3E9042238
:10115000C3E90622C3E90822C3E90A22C3E90E2231
:10116000C3E91022C3E91422C3E917225A6683F89F
:1011700070205A67C3E90165018013480180134854
:101180004FF4A07101801248018012490A700122B7
:1011900083F83420104A1A6070BD00BF4C02002052
:1011A000EC0F0020C00100209071010838010020E0
:1011B0000000010101000001000450001A001400A9
:1011C000CC370120C0370120C6370120C2370120AB
:1011D000C8370120C4370120C88001080148FFF743
:1011E000C1BC00BF4C020020034B902283F85A235D
:1011F00083F85823704700BF00E100E0094A0A491C
:10120000D3680A48C3F30A03013B9BB20B80116900
:10121000C1F30A01013901801364536B43F00103E8
:101220005363704700680140BE250020BC250020A4
:10123000014BD3F8AC00704700680140024B01221B
:10124000C3F8AC105A6270470068014070B504469C
:1012500009F0BBFE23689D6E0EF0F6F801462046AD
:10126000A8472368054AD3F88C502046AC46002393
:10127000BDE87040A2F51631604700BF00B004D051
:1012800009F08ABE09F094BE09F050BE09F0BFBF54
:10129000034B4FF080629A604FF080729A60704703
:1012A00000E100E0084B4FF08062C3F88820BFF3F4
:1012B0004F8FBFF36F8F4FF08072C3F88820BFF35A
:1012C0004F8FBFF36F8F704700E100E038B5184CC7
:1012D00023685BB3174B184A1B6C11888B4216D1DD
:1012E000164B198805F032FC236893F86A20002514
:1012F000013283F86A2083F87C50FFF707FC2068EE
:101300000AF0ECFB2846BDE83840FFF743BA05F089
:101310001DFC2468236820461B6A9847012384F833
:101320007C300020BDE83840FFF75EBA38BD00BF12
:10133000CC37012000680140BE250020BC250020DC
:1013400007B5064BADF806001B68054801220DF1F4
:10135000060106F071F903B000BD00BF0C000020CB
:10136000A426002007B5124C012500231148ADF832
:101370000630042104F0E2FD10B90223ADF8063076
:101380000C48082104F0DAFD48B9ADF806500023F6
:1013900020681A460DF1060107F0D2F803E0BDF807
:1013A0000630002BF3D1012006F0DCFFDDE700BFA3
:1013B000D02500200018024008B5334C2378013BAB
:1013C000042B58D8DFE803F003242B4F14002F48D8
:1013D0000122102104F0B8FD4FF4FA7006F0C2FFAC
:1013E0002A480022102104F0AFFD00232370E5E716
:1013F00001221021254804F0A7FD322006F0B2FF9B
:1014000022480022102104F09FFD322006F0AAFF9E
:101410001E480122102104F097FD3220DEE7012250
:1014200010211A4804F090FD4FF4FA7006F09AFF6C
:1014300000221021154804F087FD4FF4FA7006F0E1
:1014400091FF01221021114804F07EFD4FF4FA7043
:1014500006F088FF0D480022102104F075FD4FF4BE
:10146000FA7006F07FFF09480122102104F06CFD9C
:1014700040F2EE20B2E705480022102104F064FD9E
:101480000A2006F06FFF99E7C825002000040240FB
:1014900030B595B0102200210AA814F0DBFF142209
:1014A000002103A814F0D6FF00241D4B01941A6CF0
:1014B00042F080521A641B6C03F080530193019B2D
:1014C000184B02941A6842F440421A601B6803F4F5
:1014D000404302930122029B4FF48033CDE908235D
:1014E00002254FF48003CDE90E5308214FF4A87371
:1014F000CDE9101308A804231393129505F044FBBB
:101500000F23CDE903354FF4A0504FF48053CDE9BC
:101510000603052103A8059405F012FD15B030BDA2
:1015200000380240007000402DE980489BB004F074
:10153000AFF8FFF7ADFF142200210DA8002414F02E
:1015400089FFC04B00941A6BBF4842F010021A6327
:101550001A6B02F010020092009A01941A6B42F08A
:1015600020021A631A6B02F020020192019A02947F
:101570001A6B42F080021A631A6B02F08002029228
:10158000029A03941A6B42F004021A631A6B02F077
:1015900004020392039A04941A6B42F001021A6344
:1015A0001A6B02F001020492049A05941A6B42F03D
:1015B00002021A631A6B02F002020592059A06945F
:1015C0001A6B42F040021A631A6B02F04002069254
:1015D000069A07941A6B42F008021A631B6B03F019
:1015E0000803079322463C21079B04F0ADFC974873
:1015F0002246042104F0A8FC95482246802104F0EC
:10160000A3FC944822464FF4405104F09DFC22462E
:1016100091481021012504F097FC4FF0030A3C2368
:101620008948CDF840A00DA902264FF00409CDE964
:101630000D350F9404F09EFB84480F940DA9CDE95D
:101640000D95109604F096FB802381480DA9CDE9F5
:101650000D35CDE90F4404F08DFB4FF440537D4828
:101660000DA9CDE90D354FF00C0BCDE90F4604F077
:1016700081FB7A480F950DA91027CDE90DB404F030
:1016800079FB0DA97448CDE90D75CDE90F4404F03F
:1016900071FB734A734B1360104604F061FA724A8F
:1016A000724B1360724BD460C2E9013410464FF4A0
:1016B0008043C2E90434C2E90644146204F06CFEBB
:1016C0003946694805F0AEF82146674805F0C9F883
:1016D000684A694B13604FF48273C2E901344FF4D6
:1016E00000711823C2E9061310460A23D362C2E927
:1016F0000344C2E908445461946205F041FF5F4A23
:101700005F4B1761C2E9003540204FF4C073C2E956
:1017100005034FF40063C2E908344FF400539362A9
:101720000DA907231046CDE90E39CDE9103A4FF047
:101730000808C2E90249D461CDE912660D9605F0A8
:1017400003FE4FF6FF7209A94C480894CDE90A85BB
:1017500009950C9405F018FE284603F0C5FF4FF6D6
:10176000FF7209A94548CDE90968CDE90B5405F098
:101770000BFE4FF6FF7209A94048CDE909A8CDE953
:101780000B9405F001FE4FF40C730893089B3B4843
:101790000C934FF6FF7209A9CDE909980B9505F056
:1017A000F3FD40F26A51354805F00CFE3422214623
:1017B0000DEB020014F04EFE324A334B1461C2E9C5
:1017C00000340923C2E905351D2340F20D1CC2E98E
:1017D000073A40F24313C2E909C340F2171E40F230
:1017E00047131046C2E90BE3C2E90244948682F82B
:1017F000364005F0C9F8FF21F022CDE912144FF070
:1018000005094FF480614FF4A073CDE90E24CDE9B2
:101810001419CDE916420DA922461A48DFF870A026
:101820001893CDE910360D94ADF864408DF86640FC
:1018300005F05EF9154BCAF800301B689847DAF8D6
:10184000003027E00038024000100240000802404B
:1018500000000240000C0240000402400018024058
:101860003828002000300240A4270020005C0040FF
:10187000A0860100A426002000500140E0250020A1
:10188000400100A0FC260020006801401800002054
:10189000C4250020DFF8D0A1DB6898475B4A5C4B89
:1018A0001046C2E90034C2E90264C2E90A46C2E94C
:1018B0000C4404F065F92946544804F017FA21460F
:1018C0003A460DA814F0C6FD524A534B1360104619
:1018D0004FF48033C2E901341461147682F8204059
:1018E000D462C2F828A0D460D56182F83040556136
:1018F00003F00EFF0D220DA946480F94CDE90D25EA
:1019000004F03EF821463A460DA814F0A3FD434BDF
:10191000434A1A601A4610464FF48033C2E9013434
:10192000C2E90AA41461147682F82040D460D5611B
:1019300082F83040556103F0EBFE0DA937480F9453
:10194000CDE90D9504F01CF8364A374B136010466C
:101950004FF4E133C2E90134C2E90344C2E905B4FA
:10196000D46106F0BBFB21463A460DA814F072FD87
:101970002E4A2F4B13605923C2E90134104640F21E
:10198000E733C2E903349461CDE9094406F0CAF9AA
:101990004FF480530DA925480D9306F0F9F909A9D4
:1019A0002248CDE9094406F0FBFAFEF731FEFEF7C6
:1019B0002EFE21461D4806F0F1FA06F063FC1D4A92
:1019C0003146384606F081FD1B4B1C4A18602946FB
:1019D000404606F07AFD1A4B1A4A186021461A480A
:1019E00006F07CFC194B1A4A18602146194806F08B
:1019F00075FC194B194A18602146194806F06EFC0F
:101A0000184B186006F050FCFEE700BFF8270020D6
:101A100000B002408828002000200140402800201B
:101A20000021014014260020001001405C26002007
:101A300000040040C4820108D0250020AC820108C7
:101A4000CC2500202483010865130008DC25002034
:101A5000008301081F060008D8250020DC82010849
:101A6000B9130008D42500200100000F704770470B
:101A70007FB5084B8DF817201B6802930DF11702F4
:101A80000123009201930A460146034804F02CFD0D
:101A900007B000BD10000020A42700207FB5002360
:101AA0008DF81730084B1B6802930A4601230DF18D
:101AB0001701009101930146044804F0A5FD9DF82B
:101AC000170007B000BD00BF10000020A4270020B1
:101AD0001FB5084C24680092CDE901340A46012361
:101AE0000146054804F090FD003818BF012004B0FD
:101AF00010BD00BF10000020A427002003F0F4BD9B
:101B000008B506480022042104F01EFABDE808408A
:101B100002480122042104F017BA00BF0008024065
:101B200010B5012204464FF40051094804F00CFAA4
:101B300000220421074804F007FA2046FFF700FCC2
:101B4000BDE8104003480122042104F0FDB900BFA4
:101B5000000C02400008024010B5002204464FF479
:101B60000051094804F0F0F900220421074804F06C
:101B7000EBF92046FFF7E4FBBDE8104003480122E3
:101B8000042104F0E1B900BF000C0240000802404B
:101B900037B505460C4612480022042104F0D4F95A
:101BA00000224FF400510F4804F0CEF92846FFF709
:101BB000C7FB0D4B0D481B68224601A905F0E8FE46
:101BC0000848019C01224FF4005104F0BDF904487B
:101BD0000122042104F0B8F9204603B030BD00BF53
:101BE00000080240000C02400C000020A426002047
:101BF00003F07ABD0268034B9A4201D103F062BD43
:101C0000704700BF001000407047000082B00E4BCC
:101C100000220092596C41F480415964596C01F4DE
:101C20008041009100990192196C41F08051196432
:101C30001B6C03F080530193019B0F216FF0010097
:101C400002B003F04DBF00BF0038024010B51422AF
:101C50008AB0044600210DEB020014F0FBFB236860
:101C6000254A934227D1254B2548002401945A6CDC
:101C700042F480725A645A6C02F480720192019AA2
:101C800002941A6B42F004021A631B6B03F0040304
:101C900002930821029B0323CDE9051305A904F053
:101CA00069F812202246052103F01AFF122003F0E2
:101CB00049FF0AB010BD134A9342FAD10F4B1248A4
:101CC000002403945A6C42F400725A645A6C02F471
:101CD00000720392039A04941A6B42F001021A6391
:101CE0001B6B03F001030493049B20220323CDE923
:101CF000052305A9D3E700BF0020014000380240BA
:101D00000008024000210140000002400268094B27
:101D10009A4282B00BD100230193074B1A6B42F415
:101D200080521A631B6B03F480530193019B02B032
:101D3000704700BF003002400038024007B50E4B2C
:101D400002689A4216D10022A3F5F0430192196B62
:101D500041F4000119631B6B03F400030193052197
:101D60005A20019B03F0BCFE5A2003B05DF804EB3F
:101D700003F0E8BE03B000BD00B002402DE9F0431F
:101D8000044689B01422002103A814F063FB2268E2
:101D9000244B9A4243D1244C244800250095236BC0
:101DA00043F004032363236B03F004030093009BBD
:101DB0000195236B43F001032363236B03F00103BD
:101DC0000193019B4FF012094FF400734FF001088B
:101DD0000327042603A9CDE90339CDE90587079632
:101DE00003F0C8FF4FF480731148079603A9CDE9AB
:101DF0000339CDE9058703F0BDFF0295236C43F459
:101E000000032364236C03F400030293029B236A00
:101E100043F400032362236A23F40003236209B01E
:101E2000BDE8F083005C004000380240000802403A
:101E300000000240F0B599B004461422002107A822
:101E400014F008FB30220DEB0200002114F002FB1D
:101E500022685E4B9A4240F0B78008230C93C0235F
:101E60001093042312930CA84FF40033159305F03C
:101E70003FF908B1FFF7C8FE554B564800240094BF
:101E80005A6C42F080625A645A6C02F0806200928E
:101E9000009A01941A6B42F020021A631A6B02F046
:101EA00020020192019A02941A6B42F001021A6315
:101EB0001A6B02F001020292029A03941A6B42F02A
:101EC00002021A631A6B02F002020392039A04944C
:101ED0001A6B42F040021A631A6B02F0400204923D
:101EE000049A05941A6B42F004021A631A6B02F00A
:101EF00004020592059A06941A6B42F008021A63CE
:101F00001B6B03F00803069302250E26069B0B9617
:101F10004FF4806307A9CDE90735CDE9094503F002
:101F200029FF41F658032C480B9607A9CDE9073540
:101F30000927CDE9094503F01DFF032327480B9727
:101F400007A9CDE90735CDE9094503F013FF4FF4A3
:101F5000706322480B9607A9CDE90735CDE90945FD
:101F600003F008FF4FF40C631D480B9607A9CDE959
:101F70000735CDE9094503F0FDFEC02319480B964E
:101F800007A9CDE90735CDE9094503F0F3FE08239C
:101F900015480B9607A9CDE90735CDE9094503F0AA
:101FA000E9FE4FF4A0530E480B9707A9CDE907357A
:101FB000CDE9094503F0DEFE58202246052103F055
:101FC0008FFD582003F0BEFD19B0F0BD0068014040
:101FD00000380240001402400000024000040240A9
:101FE0000018024000080240000C024010B50446F0
:101FF00088B01422002103A814F02CFA2268144B94
:102000009A4223D103F56843002101915A6C11488B
:1020100042F480125A645A6C02F480120192019ABE
:1020200002911A6B42F020021A631B6B03F020032B
:102030000293029B4FF4607202230321CDE9032334
:102040000523CDE9061303A903F094FE08B010BDE3
:1020500000500140001402400268094B9A4282B0CD
:102060000BD100230193074B1A6C42F002021A6451
:102070001B6C03F002030193019B02B0704700BF89
:10208000000400400038024010B5044688B0142215
:10209000002103A814F0DEF92268144B9A4223D1E0
:1020A00003F59433002101915A6C114842F010025B
:1020B0005A645A6C02F010020192019A02911A6B52
:1020C00042F001021A631B6B03F001030293029BAF
:1020D0004FF4C06202230321CDE903230723CDE996
:1020E000061303A903F046FE08B010BD001001401E
:1020F000000002402DE9F04186B0002303932B4BF2
:102100001C68002C4FD14FF00108C3F80080284B09
:1021100000949A6B274842EA08029A639B6B03EA91
:1021200008030093022703260C25009B01A94FF604
:102130003F03CDE90137CDE9046503F01BFE1E48DE
:10214000059501A9CDE90187CDE9034603F012FE0B
:1021500048F233131948059501A9CDE90137CDE9B6
:10216000034603F007FE4FF683731548059501A952
:10217000CDE90137CDE9034603F0FCFD4CF20373D2
:102180001048059501A9CDE90137CDE9034603F0D3
:10219000F1FD60230C48059501A9CDE90137CDE992
:1021A000034603F0E7FD06B0BDE8F081D02800202B
:1021B00000380240001402400008024000180240AB
:1021C00000100240000C02400004024030B589B00B
:1021D00000230293204B1A6C42F010021A641B6C0D
:1021E00003F010030293054601A903A8029B04F023
:1021F00061FF069B4BBB04F03DFF184A184B136070
:1022000040F2E733D360174BB0FBF3F3013B53606D
:102210001046002313619360936105F083FD04462B
:1022200080B90E4805F058FC044658B9362003F032
:1022300089FC0F2D0DD822462946362003F050FC8C
:10224000094B1D60204609B030BD04F013FF40006B
:10225000D3E70124F6E700BF00380240D42800206D
:102260000010004040420F00800000207047FEE751
:10227000FEE7FEE7FEE7704708B5044803F0F1FA11
:10228000BDE80840024803F0ECBA00BF88280020EF
:1022900040280020014805F05DBC00BFD428002084
:1022A000014804F0C8BB00BFFC260020014803F031
:1022B00093BC00BFF827002013B50B4C206806F034
:1022C000A0F9012809D841238DF807302068C823D8
:1022D00000220DF1070106F033F9012002B0BDE83C
:1022E000104003F041BE00BFCC2500200120704704
:1022F00008B514F0AFF9162303604FF0FF3008BDA6
:1023000008B514F0A7F916230360FEE770B50D4673
:1023100014460E46731B9C4201DC204670BDAFF391
:10232000008006F8010BF5E770B50D4614460E4621
:10233000731B9C4201DC204670BD16F8010BAFF305
:102340000080F5E74FF0FF3070474FF400534B60CB
:10235000002070470120704700207047094A08B5E7
:102360000346106808B908481060034469468B4268
:1023700006D914F06FF90C2303604FF0FF3008BD4D
:102380001360FCE71C290020483B0120704710B572
:102390000421044613F026FE204610BD012908B58D
:1023A00006D0022908D059B902F04AF8006808BDE1
:1023B00002F046F84068FAE702F042F88068F6E773
:1023C0000020F4E7004870475C830108172070473D
:1023D00013B5002451B1036801948DF8034001AA9C
:1023E0009C680DF10303A04702B010BD0846FBE74F
:1023F000C0897047008A7047C088704780887047DE
:10240000807A00F07F007047807AC0097047002012
:10241000704700009FED010A704700BF00000000F8
:10242000704710B50821044613F0DCFD204610BDAE
:102430007047704700F598730868496803C3704790
:10244000704770474160704770477047064BC0F84F
:102450004C310023C0F8503100F5A273C0F8480198
:10246000C0F84031704700BFAD2B00080123037254
:10247000704770477047704770477047D0E9023225
:10248000416810B4541001EB6200D20748BF0A59EA
:102490005DF8044B48BFD35818470346406830B135
:1024A0009A681AB9D86800F0010070470120704797
:1024B00010B50C21044613F095FD204610BD10B553
:1024C0001421044613F08EFD204610BD10B51021D6
:1024D000044613F087FD204610BD10B54FF4AE71D1
:1024E000044613F07FFD204610BD10B54021044680
:1024F00013F078FD204610BD10B54021044613F0BE
:1025000071FD204610BD10B50CF09EFF0368BDE8BC
:102510001040DB6B184710B50CF096FF0368BDE860
:1025200010405B6B1847000013B50446807A637A4D
:102530000130C0B29842A07205D901232372002352
:10254000A37202B010BDB4F90C2000210EF0C8FE39
:10255000C30706D500284FF6FF73C8BF01231844F0
:1025600000B2144AE08112880023ADF8023083B231
:10257000D21AADF80020228A20829B1AADF80430CE
:102580000D4B1B88ADF806300CF05EFF036802AA05
:102590001B6C12E906009847A37A012BD1D1074B97
:1025A0001B78002BCDD00CF04FFF02B0BDE81040DF
:1025B0000CF050BFC0370120C2370120CA370120BC
:1025C000054B1B7801462BB1406818B103680C31EC
:1025D0005B6E1847704700BFCB370120054B1B7857
:1025E00001462BB1406818B103680C315B6E184787
:1025F000704700BFCB370120037A70B50546BBB9E1
:1026000040680368DB69984704463CB9686803681A
:1026100005F10C011B6EBDE870401847A1886B8F57
:10262000C91A236820461B6B09B29847A469ECE7D6
:1026300070BD037A70B50546BBB940680368DB69B5
:10264000984704463CB96868036805F10C011B6EA5
:10265000BDE870401847A1886B8FC91A23682046CF
:102660001B6B09B29847A469ECE770BD10B504462E
:10267000D0F8400158B10368DB68984738B1D4F806
:10268000400103689B6898470023C4F8403110BD9F
:1026900070B5044690F8390094F838300130C0B273
:1026A000984284F8390005D901232372002384F865
:1026B000393070BDB4F93A2000210EF011FEC30785
:1026C00006D500284FF6FF73C8BF0123184400B297
:1026D000238AC01AA08760680368DB6998470546AB
:1026E0002DB960680368BDE870405B691847A98828
:1026F000A38F19442B6828461B6B09B29847AD6914
:10270000EEE770B5044690F8390094F8383001309F
:10271000C0B2984284F8390005D9012323720023FE
:1027200084F8393070BDB4F93A2000210EF0D8FD9C
:10273000C30706D500284FF6FF73C8BF012318440E
:1027400000B2238AC01AA08760680368DB699847D3
:1027500005462DB960680368BDE870405B6918479D
:10276000A988A38F19442B6828461B6B09B2984788
:10277000AD69EEE72DE9F0411D460368BDF918701B
:102780001B6B0446164698472368314620465B6B10
:1027900098472368294620469B6B9847236839460B
:1027A0002046DB6BBDE8F041184700002DE9F74FEC
:1027B000D0E9556A0746B06803681B6A9847B0F5C8
:1027C000E67F05D2534B544AA321544813F038FCFA
:1027D000706803681B6A98470F2803D8504B4E4A0D
:1027E000A421F2E7F06803681B6A98473F2803D8E2
:1027F0004C4B494AA521E8E70CF026FEDFF834915E
:1028000004300CF087FED9F8000010B10368DB68D3
:102810009847D9F8000010B103681B689847DFF8A3
:102820001881D8F8000010B103685B699847D7F8A1
:102830003C0110B103685B689847D8F8000010B1FC
:1028400003681B689847D7F83C0110B103689B6880
:102850009847F068036800215B6A984705460022A4
:10286000314B4260027245F80C3B0446284609F0A1
:1028700029FF142323872D4B1B780022A287002BCE
:1028800035D101232372B068036800215B6A984741
:10289000054602F0C7FB7068036800215B6A984731
:1028A0002946064602F08EFB331DC7F83C61CAF884
:1028B00008302B68C6F808A02846DB68C9F8004035
:1028C000C8F80050EE639847336830461B68984755
:1028D000214628460EF0FEFC236820461B699847D7
:1028E00023685B69204603B0BDE8F04F1847104BE2
:1028F000DFF848B0B3F900300093BBF9003011465F
:102900002846FFF737FF284609F057FEBBF800308E
:102910006387B8E7947501082276010807770108F4
:102920004E770108F1770108D0850108CB370120E7
:10293000C23701201438012010380120C03701208F
:10294000F8B5044617460E460CF0B2FE104B0025B3
:10295000C4E955760F4E1C60C4E953550E4B3068E0
:1029600023600E4BC4E95135036801219B68C4E91B
:102970004F559847284601F017FD336893F85820C3
:102980000AB1D86C00B9986812F02EFA2046F8BD4A
:1029900020380120CC3701205885010840850108E6
:1029A000064BC0F84C310023C0F8503100F5A2733B
:1029B000C0F84801C0F84031704700BFAD2B000897
:1029C000064BC0F84C310023C0F8503100F5A2731B
:1029D000C0F84801C0F84031704700BF4D2A0008D8
:1029E000064BC0F84C310023C0F8503100F5A273FB
:1029F000C0F84801C0F84031704700BF9D2E000864
:102A0000064BC0F84C310023C0F8503100F5A273DA
:102A1000C0F84801C0F84031704700BF612D000880
:102A2000064BC0F84C310023C0F8503100F5A273BA
:102A3000C0F84801C0F84031704700BFAD2700081A
:102A400003685B6A184703685B6A18472DE9F14F12
:102A5000D0E955BA0746DBF8080003681B6A9847B7
:102A6000B0F5FA7F05D2484B484AA321484813F0F5
:102A7000E7FADBF8040003681B6A98470F2803D8BD
:102A8000444B424AA421F1E7DBF80C0003681B6ABF
:102A90009847132803D8404B3C4AA521E6E70CF0A1
:102AA000D3FCDFF8009104300CF034FDD9F80000BD
:102AB00010B10368DB689847D9F8000010B10368CB
:102AC0001B689847DFF8E080D8F8000010B1036871
:102AD0005B699847D7F83C0110B103685B68984779
:102AE000D8F8000010B103681B689847D7F83C017C
:102AF00010B103689B689847DBF80C00036800215D
:102B00005B6A9847254B036014234372244B0026CD
:102B10001B88867204468381314646600672C681F0
:102B20000682DBF80800FFF78BFF054601F0F8FC92
:102B30003146DBF80400FFF786FF2946064601F020
:102B4000C7FC331DC7F83C61CAF808302B68C6F8CB
:102B500008A02846DB68C9F80040C8F80050EE63BA
:102B60009847336830461B689847214628460EF040
:102B7000B1FB236820461B69984723685B692046A0
:102B800001B0BDE8F04F184794750108947801082A
:102B9000077701084E770108F1770108F4850108ED
:102BA000C037012014380120103801202DE9F14FE1
:102BB000D0E9556A0746B06803681B6A9847B0F5C4
:102BC000FA7F05D2434B444AA321444813F038FA14
:102BD000706803681B6A98470F2803D8404B3E4A29
:102BE000A421F2E7F06803681B6A98470B2803D812
:102BF0003C4B394AA521E8E70CF026FCDFF8EC90C5
:102C000004300CF087FCD9F8000010B10368DB68D1
:102C10009847D9F8000010B103681B689847DFF89F
:102C2000D080D8F8000010B103685B699847D7F8E6
:102C30003C0110B103685B689847D8F8000010B1F8
:102C400003681B689847D7F83C0110B103689B687C
:102C50009847F068036800215B6A98474FF0000BC3
:102C6000214B036004465946C0F804B080F808B010
:102C7000B068FFF7E5FE054601F052FC5946706862
:102C8000FFF7E1FE2946064601F022FC331DC7F896
:102C90003C61CAF808302B68C6F808A02846DB68F3
:102CA000C9F80040C8F80050EE63984733683046D2
:102CB0001B689847214628460EF00CFB23682046E7
:102CC0001B69984723685B69204601B0BDE8F04F57
:102CD000184700BF94750108787901080777010843
:102CE0004E770108F1770108AC85010814380120FE
:102CF00010380120F7B505460026154B46600672D0
:102D000045F80C3B044628460F4609F0DBFC114B06
:102D100084F838701B7884F83960A68723B90123BA
:102D20002372204603B0F0BD0B4B0C4FB3F90030BB
:102D30000093B7F90030324631462846FFF71AFDB6
:102D4000284609F03AFC3B885B426387E9E700BF0D
:102D500018860108CB370120C2370120C037012077
:102D60002DE9F047D0E9556A0746B06803681B6A49
:102D7000984741F2E333984205D8414B414AA32199
:102D8000414813F05DF9706803681B6A98470F2883
:102D900003D83E4B3B4AA421F2E7F06803681B6A64
:102DA00098473F2803D83A4B364AA521E8E70CF06C
:102DB0004BFBDFF8E09004300CF0ACFBD9F80000DE
:102DC00010B10368DB689847D9F8000010B10368B8
:102DD0001B689847DFF8C080D8F8000010B103687E
:102DE0005B699847D7F83C0110B103685B68984766
:102DF000D8F8000010B103681B689847D7F83C0169
:102E000010B103689B689847F068036800215B6A0B
:102E1000984714210446FFF76DFFB068036800214E
:102E20005B6A9847054601F0DBFB70680368002188
:102E30005B6A98472946064601F0A4FB331DC7F894
:102E40003C61CAF808302B68C6F808A02846DB6841
:102E5000C9F80040C8F80050EE6398473368304620
:102E60001B689847214628460EF034FA236820460E
:102E70001B699847236820465B69BDE8F0471847FF
:102E8000947501084A7A0108077701084E7701080E
:102E9000F177010814380120103801202DE9F0479E
:102EA000D0E9556A0746B06803681B6A9847B0F5D1
:102EB000FA7F05D2404B414AA321414813F0C0F8A4
:102EC000706803681B6A98470F2803D83D4B3B4A3C
:102ED000A421F2E7F06803681B6A98473F2803D8EB
:102EE000394B364AA521E8E70CF0AEFADFF8DC9062
:102EF00004300CF00FFBD9F8000010B10368DB6858
:102F00009847D9F8000010B103681B689847DFF8AC
:102F1000C080D8F8000010B103685B699847D7F803
:102F20003C0110B103685B689847D8F8000010B105
:102F300003681B689847D7F83C0110B103689B6889
:102F40009847F068036800215B6A9847142104469B
:102F5000FFF7D0FE0021B068FFF772FD054601F0D3
:102F6000DFFA70680021FFF76EFD2946064601F082
:102F7000AFFA331DC7F83C61CAF808302B68C6F8B1
:102F800008A02846DB68C9F80040C8F80050EE6386
:102F90009847336830461B689847214628460EF00C
:102FA00099F9236820461B699847236820465B6986
:102FB000BDE8F047184700BF947501082F7B010852
:102FC000077701084E770108F177010814380120CE
:102FD00010380120406A7047806A704770478A88BD
:102FE0000B8810B5D20A4C88C1699BB251F82200F7
:102FF00043EA0443184410BD10B50446BAB1107B2F
:1030000068B1537BD27A1B0203F4E0631A43236A4C
:1030100003EB82031A888A4202D193F9020010BDA1
:1030200005D8013880B204330028F3D1F7E7002037
:10303000F5E710B52C21044612F0D4FF204610BD50
:1030400030B58BB00446BDF860500895BDF85C50B3
:1030500007959DF8505006959DF84C5005959DF8A4
:10306000485004959DF8445003959DF840500295B2
:103070009DF83C500195BDF8385000950DF0B6FC18
:10308000064B2360159BE361169B2362199B6362C9
:103090001A9BA36220460BB030BD00BF3C860108DE
:1030A0000020704781807047C18070470181704760
:1030B000418170477047704770477047704710B440
:1030C000C4880368121B84885B6D091B12B25DF80B
:1030D000044B09B218474FF6FF7383814FF0FF335B
:1030E00003621368C3611060704770477047704790
:1030F0007047704730B5036885B0D3F884300181DC
:1031000004460146684698479DE807003C3484E839
:10311000070005B030BD30B5036885B0D3F8843002
:10312000418104460146684698479DE807003C34C3
:1031300084E8070005B030BD002202804280828012
:10314000C280704780F83610704770B50368044637
:103150001B6B154698472368294620465B6EBDE8E1
:103160007040184700207047806C70477047704768
:10317000704770477047D0E9023230B44468551048
:1031800004EB6200D20748BF625930BC48BFD35835
:1031900018470346406830B19A681AB9D86800F0F9
:1031A0000100704701207047A0F850107047B0F838
:1031B0005000704710B54C21044612F013FF204612
:1031C00010BD10B56021044612F00CFF204610BD62
:1031D00010B51021044612F005FF204610BD10B5B1
:1031E0004FF4F871044612F0FDFE204610BD90F831
:1031F000252012B103685B691847704708B5FFF7CF
:10320000F6FF08BD90F825201AB190F8242002B1ED
:1032100018607047036870B55E6B124B1B680446FC
:103220008DB22BB9104B114A6C21114812F008FFD6
:103230001049828D0988914203D80F4B0B4A6D21AA
:10324000F3E713F812200D4B1B6853F822000368B4
:103250001B6B9847291A3346204609B2BDE87040D7
:10326000184700BF24380120147C0108567C01084F
:10327000917C010828380120D87C01082C380120D5
:1032800038B500F19803994204460D4603D10CF07D
:10329000DBF8FFF7B5FB04F59674A54205D10CF0F9
:1032A000D3F8BDE83840FFF7BBBB38BD90F84C30D1
:1032B00070B50446002B4AD0B0F84E00B4F8503038
:1032C000013080B29842A4F84E0040D3B4F8545074
:1032D000B4F85620A66D521BC01A12B2B4F8523080
:1032E000002180B2B04794F836200544ABB22DB22D
:1032F000AA4205D02DBB2046FFF779FF84F836504F
:10330000B4F85030B4F85210B4F84E200B449A423E
:103310001DD3002384F84C30A4F852300CF094F8FC
:10332000214604300CF0DDF8E06D80B10368DB6805
:10333000984760B1E06D036821469B68BDE8704026
:10334000184784F836302046FFF751FFD8E770BDA4
:1033500000224FF0FF31C0E900218260704770B554
:10336000036804461B6B1546984723682946204688
:103370005B6BBDE8704018470022C0E90122C0E93C
:103380000322C0E90522C0E907224FF4807282843B
:10339000014A0260704700BFA486010810B52622CA
:1033A0000446002113F056F82046FFF7E5FF0023FE
:1033B000A36284F82C30012384F82430044B23606A
:1033C0004FF6FF7384F83230E3852386204610BD24
:1033D000649101082DE9F04F04468BB0A04600250A
:1033E0000DF0CCFD804BE56348F8403B2946262292
:1033F000404613F02FF84046FFF7BEFF04F16C077C
:103400007A4B2364FF26262229464FF6FF7984F85B
:103410006660A5663846ADF8209013F01BF8384674
:10342000FFF7AAFF724BE366BDF82030A4F8923094
:1034300004F1980B08A9384684F8946009F0F5FB6C
:1034400004F1CC065846FFF7A9FF2946262230464C
:1034500013F000F83046FFF78FFF664BC4F8F430E6
:103460004FF47F03C4F80031634BC4F8CC3004F54B
:10347000967A4FF0FF33C4E94335A4F8F890C4F8C6
:10348000FC50A4F80451C4F80851C4F8145184F84D
:103490001851A4F81A51A4F81C51C4F828515046E8
:1034A000FFF77CFF554BC4E97834554BC4E97A35B6
:1034B0004FF4A0732A46294600934046F023FFF7B5
:1034C00059F904F104094FF07F43A3664146484689
:1034D00007F090FA6FF00E0238466FF00A01FFF71E
:1034E0003EFF0F23384608A9ADF8203009F09DFBB8
:1034F0003946484607F07EFAC42213215846FFF7A2
:103500002EFF04F5F077152308AA07A95846ADF851
:103510001C30ADF8203009F04FFA59464846C4F83F
:10352000C07007F067FA1C23092200930621E223EA
:103530003046FFF71FF9334BC4F8FC30D4F8CC30D9
:10354000A4F8005102AD2846D3F88430314698479C
:1035500095E8070004F5847383E807002A4B1B688D
:1035600004F5B0752BB9294B294A6021294812F07E
:1035700067FD294B1B88022B03D8284B244A612165
:10358000F4E7274B0221186800F04AFF254A03465A
:10359000402128460FF0E6F9164B089308A90523A9
:1035A0003046C4F81451ADF8243009F0A7F931467B
:1035B000484607F01FFA504674221321FFF7CFFE4A
:1035C0000E2308AA07A95046ADF81C30ADF82030EC
:1035D00009F0F2F94846C4F85471514607F00AFA66
:1035E00020460BB0BDE8F08FBC870108FC900108B5
:1035F000D8910108308501080C870108A4870108CB
:1036000081320008050505FF24380120147C0108DB
:10361000167D0108917C010828380120D87C01081A
:1036200030380120617D0108806A704700207047B2
:103630008B888380012070477047704770477047C0
:103640007047D0E9023230B44468551004EB620090
:10365000D20748BF625930BC48BFD3581847034609
:10366000406830B19A681AB9D86800F00100704714
:103670000120704790F82D3080F860307047014687
:10368000383091F82C3013B1363109F0CEBA3431DC
:10369000FBE710B56421044612F0A4FC204610BDDF
:1036A00010B51021044612F09DFC204610BD00000C
:1036B00010B5034B036004460AF0CCF9204610BD58
:1036C0005889010810B5064B036004460AF0C2F998
:1036D000204641F2883112F085FC204610BD00BF23
:1036E0005889010810B50446006B50B10368DB68C7
:1036F000984730B1206B036821469B68BDE81040B5
:10370000184710BD0B7970B590F82C6004460D4633
:103710000BB916B170BD002EFCD0B3FA83F35B0970
:1037200084F82C3023682046D3F88C3098472368DF
:1037300020465B699847002EECD02B79012BE9D10C
:1037400023682046D3F88830BDE87040184700F160
:10375000F0038B4210B5044609D10BF075FEFFF75C
:103760002FF923682046DB6ABDE81040184710BDDA
:103770000B882DE9F04183861388B0F90850C38681
:103780000446104690460FF0A7F9B4F90A300746F0
:1037900003EBD3734046C3F34F060FF0D1F905EBAB
:1037A000D575C5F34F0500EBD07007EBD777A6EBC7
:1037B0006002A5EB670104F1380012B209B2FFF70D
:1037C000CEFD23682046D3F88C30BDE8F041184781
:1037D00038B5262204460D46002112F03BFE204655
:1037E000FFF7CAFD064B23602B88E384FF232046A6
:1037F00084F82830294609F018FA204638BD00BF61
:10380000D891010810B526220446002112F022FEAC
:103810002046FFF7B1FD0A4BA3624FF6FF73A38565
:103820004FF47F020023C4E90C32064A22604FF0B5
:10383000FF32C4E910232387E363A364204610BD4D
:1038400030850108F087010870B50023124E83808F
:10385000124B0360336893F8582005460AB1D86CC0
:1038600000B998680368DB6A98473368B0FA80F457
:10387000D86C640930B10368DB6A9847002808BF38
:1038800044F001042CB9064B064A07482C2112F0DB
:10389000D7FB284670BD00BFCC37012080880108C7
:1038A000647D0108C27D0108FB7D01082DE9F04F10
:1038B00004468DB0A04600250DF060FBCC4BE563BF
:1038C00048F8403B26222946404612F0C3FD4046B8
:1038D000FFF752FDC74B236404F16C0BFF234FF637
:1038E000FF7604F1980A84F866300AA95846A5665E
:1038F00004F1C409ADF82860FFF76AFF0AA9504631
:10390000ADF82860FFF764FF0AA94846ADF82860C3
:10391000FFF75EFF40F20113C4E945354FF47F43E2
:1039200004F59477C4E94735B34BC4F8F030A4F8F4
:103930002461A4F826610AA93846C4E93D55C4E9C2
:103940003F55C4E94155C4E94355ADF82860FFF738
:103950003FFF394604F1F00007F04CF80AA904F5DE
:10396000AA70ADF82860FFF733FF0AA904F5C0700C
:10397000ADF82860FFF72CFF0AA904F5D670ADF862
:103980002860FFF725FF0AA904F5EC70ADF8286060
:10399000FFF71EFF04F50173184604F5147703932F
:1039A000FFF730FF384606F057FE04F561731846FE
:1039B0000393FFF749FF914BC4F884332433C4F8D1
:1039C0008C3304F566730AA91846C4F89053039320
:1039D000ADF82860FFF7FCFE04F571730AA91846DC
:1039E0000393ADF82860FFF7F3FE04F57C731846E7
:1039F0000393FFF707FF04F23C430AA91846039319
:103A0000ADF82860FFF7E4FE7D4A04F58053C3E972
:103A1000DE247C4A4FF46161C3E9E02504F5AD6022
:103A20000AF00EF84FF4A0732A4640460093294648
:103A3000F023261DFEF79EFE4FF07F43A36641460E
:103A4000304606F0D7FF2A4658462946FFF787FC3E
:103A50004FF0010858460AA9ADF8288009F0E5F8AA
:103A60005946304606F0C6FF2A4650462946FFF71B
:103A700076FC50460AA9ADF8288009F0D6F85146E0
:103A8000304606F0B7FF2A4648462946FFF767FC4E
:103A9000102348460AA9ADF8283009F0C6F849466F
:103AA000304606F0A7FF02230AAA09A904F1F00094
:103AB000ADF82430ADF82830FFF75AFE04F59B53DB
:103AC00020221833C4F82031C4F82C511346009238
:103AD000CC214FF48D7204F1F000FEF74BFE04F19F
:103AE000F001304606F086FF9022BC2104F5AA7052
:103AF000FFF735FC4FF013080AA904F5AA70ADF8DA
:103B0000288009F092F804F5AA71304606F072FF99
:103B10009022414604F5C070FFF721FC4FF0030BE3
:103B20000AA904F5C070ADF828B009F07EF804F5D4
:103B3000C071304606F05EFF6FF04702842104F545
:103B4000D670FFF70CFC06230AA904F5D670ADF871
:103B5000283009F06AF804F5D671304606F04AFFBD
:103B6000B622842104F5EC70FFF7F9FB4FF005084D
:103B70000AA904F5EC70ADF8288009F056F804F5B0
:103B8000EC71304606F036FF19232A4600933521A2
:103B90009F2304F50170FEF7EDFD4FF07F43C4F85D
:103BA0003432D4F80432A4F838520DF110094846E2
:103BB000D3F88430DFF864A004F50171984799E8E0
:103BC000070004F5107383E80700DAF8003004F505
:103BD0008D692BB90C4B0D4A60210D4812F030FA5B
:103BE0000C4B1B88032B1BD80B4B084A6121F4E7B5
:103BF00058890108FC900108A0880108C88E0108B6
:103C0000408901084F370008147C0108167D01081F
:103C1000917C010828380120D87C01082438012033
:103C2000704B5946186800F0FBFB6F4A0346402171
:103C300048460EF097FE0423C4F84C920AA904F5F6
:103C40000170DFF8B091ADF82C30CDF8289008F075
:103C500055FE04F50171304606F0CCFE4FF0C80B5E
:103C6000384672220921FFF77AFB38460A232A4692
:103C70002946CDF800B006F0D6FC64222B46384623
:103C80002946009506F01AFD38460AA9ADF82850D5
:103C900006F042FE4FF0FF33C4F89033A4F894339B
:103CA000384604F5617106F01DFC38465A46414617
:103CB00006F043FC2A463846414606F023FC3846C7
:103CC0000A2106F043FC3846012106F04AFC38463A
:103CD000642106F05CFC3946304606F08BFE752206
:103CE0003F2104F56670FFF73AFB09220AA904F5A3
:103CF0006670ADF8282008F098FF04F5667130462C
:103D000006F078FE5B22142104F57170FFF727FBA3
:103D10000A220AA904F57170ADF8282008F085FF81
:103D200004F57171304684F8E95306F063FEE7222A
:103D30004E2104F57C70FFF712FB4FF0FF33C4F8FF
:103D40003034DAF80030294AC4F82024A4F8245486
:103D5000C4F82C54C4F8345404F59D67002B3FF488
:103D600039AF234A1388002B3FF43EAF1D4B294641
:103D7000186800F055FB1C4A0346402138460EF0F7
:103D8000F1FD04F57C70C4F8387408F097FD4FF02D
:103D900001030AA904F57C70ADF82C30CDF8289009
:103DA00008F0ACFD04F57C71304684F8155406F03B
:103DB00021FE972204F23C402021FFF7D0FA16237F
:103DC0000AA904F23C40ADF8283008F02EFF304636
:103DD00084F8615404F23C4106F00CFE20460DB01C
:103DE000BDE8F08F30380120617D0108FCFCFCFF4C
:103DF00028380120308501087047704770477047A8
:103E0000D0E9023230B44468551004EB6200D207A6
:103E100048BF625930BC48BFD35818470346406872
:103E200030B19A681AB9D86800F0010070470120D3
:103E3000704790F82D3080F8603070470146383078
:103E400091F82C3013B1363108F0EFBE3431FBE776
:103E500010B56421044612F0C5F8204610BD10B517
:103E60001021044612F0BEF8204610BD10B54FF4E4
:103E7000DE71044612F0B6F8204610BD70B50D791B
:103E800090F82C3004463DB93BB123682046D3F866
:103E90008830BDE8704018477BB1B5FA85F35B09FF
:103EA00084F82C3023682046D3F88C309847236858
:103EB00020465B699847002DE7D070BD9830884256
:103EC00008B505D10BF0C0FABDE80840FEF788BD83
:103ED00008BD0000074A02600022C0E90122C0E9D3
:103EE0000322C0E90522C0E907224FF480728284D0
:103EF000704700BFA89201080B882DE9F041838626
:103F00001388B0F90850C3860446104690460EF058
:103F1000E3FDB4F90A30074603EBD3734046C3F31D
:103F20004F060EF00DFE05EBD575C5F34F0500EB02
:103F3000D07007EBD777A6EB6002A5EB670104F121
:103F4000380012B209B2FFF70AFA23682046D3F804
:103F50008C30BDE8F04118472DE9F04F044685B09C
:103F6000274600250DF00AF8744BE56347F8403BFF
:103F700026222946384612F06DFA3846FFF7AAFF86
:103F80006F4B236404F16C0BFF234FF6FF7604F1B3
:103F9000980884F8663003A9A5665846ADF80C6009
:103FA000FFF716FC4046FFF795FF4FF47F43A4F858
:103FB000C430012384F8BC30624BC4F8983004F15B
:103FC000D0094FF0FF33C4F8CC3003A9C4F8C05077
:103FD000C4F8C8504846ADF80C3004F1FC0AFFF7AD
:103FE000F7FB4946404606F005FD04F5947903A920
:103FF0005046ADF80C60FFF7EBFB03A94846ADF85F
:104000000C60FFF7E5FB03A904F5AA70ADF80C609E
:10401000FFF7DEFB03A904F5C070ADF80C60FFF7F5
:10402000D7FB494BC4E96B34484BC4E96D354FF4B9
:10403000A0732A46009329463846F023261DFEF732
:1040400099FB4FF07F43A3663946304606F0D2FC19
:104050002A4629465846FFF782F90D2303A95846F8
:10406000ADF80C3008F0E1FD5946304606F0C2FCD0
:10407000022303AA02A94046ADF80830ADF80C307F
:10408000FFF73AFF04F5D673C4F8C8302023C4F80C
:10409000D4504FF48D7200934046CC21FEF76AFB5A
:1040A0004146304606F0A6FCEB2250460A21FFF7B7
:1040B00056F9122303A95046ADF80C3008F0B5FDAF
:1040C0005146304606F096FCA02248467821FFF77C
:1040D00046F9102303A94846ADF80C3008F0A5FDB9
:1040E0004946304606F086FCEA2204F5AA70AA2169
:1040F000FFF735F9112303A904F5AA70ADF80C30C8
:1041000008F093FD04F5AA71304606F073FCDC223A
:1041100004F5C0700A21FFF722F9042303A904F56E
:10412000C070ADF80C3008F080FD304604F5C07169
:1041300006F060FC204605B0BDE8F08F488A010813
:10414000FC90010890890108308A0108BD3E0008F2
:104150007047000030B5174D8FB02C68BFF35B8FF0
:1041600014F0010422D1284611F03EFFF0B13F23A4
:104170000993114B0893114B079302230122CDE9B8
:1041800005430423CDE9033228230D490093CDE9EB
:104190000B442923CDE901440A480A94FEF750FF55
:1041A000094811F06BFF284611F02AFF05480FB0AF
:1041B00030BD00BF20290020BC9D0108C89D01081A
:1041C000749C010824290020514100087047000018
:1041D00030B5164D8FB02C68BFF35B8F14F001041F
:1041E00020D1284611F000FFE0B13F230993104B86
:1041F0000893104B104911480A940122CDE9064357
:104200000423CDE903320A230093CDE90B44CDE921
:1042100001440594FEF714FF094811F02FFF2846CA
:1042200011F0EEFE05480FB030BD00BF5029002050
:10423000C09D0108CC9D0108849C010854290020E0
:10424000CD4100087047000030B5164D8FB02C6886
:10425000BFF35B8F14F0010421D1284611F0C4FE96
:10426000E8B13F230993104B0893104B07930123A8
:104270001522CDE9054304930423CDE902430C49FB
:1042800000921923CDE90B440A480A940194FEF7E1
:10429000D7FE094811F0F2FE284611F0B1FE05489C
:1042A0000FB030BD80290020C49D0108D09D0108B9
:1042B000949C010884290020454200080020704792
:1042C000002070470EB403B503AB002153F8042B54
:1042D00001930CF0B3F902B05DF804EB03B0704742
:1042E0000CB407B504AB53F8042B01930CF0A6F9FA
:1042F00003B05DF804EB02B070470000436C10B5EA
:10430000044673B3038F2BB9184B194AC5211948BA
:1043100011F096FEC38E00EB43035B8C0BB30DF0E4
:1043200078FD238F012B03D8134B144ACB21EEE7E2
:10433000E28E531C9BB2092B194688BFA3F10A01D8
:1043400004EB410140F63F10498C814209D10A2B10
:1043500004EB420228BF002304EB4303508C588433
:1043600051842046BDE810400DF056BC5D7E01082A
:10437000667E0108117F01085B7F0108697F0108E3
:104380000DF011BC10B586B002AC84E806001A46E8
:104390000AAB05930193099B00932146089B0AF001
:1043A000F1FB06B010BD000038B518BB124B134826
:1043B0001C681349B4B12268224402606268224436
:1043C0000A60A26814440F4B00221A8000F038F8EB
:1043D000054600F033F80C4B1C600C4B1D600C4B79
:1043E000188007E00B4B03600B4B0B600B4B1C68FA
:1043F000002CE8D138BD00BFBC290020B429002022
:10440000B0290020B8290020243801202C380120B0
:1044100028380120EC9D0108D49D0108249E010844
:10442000044B1B6853F82100034B1B6803EB40004F
:10443000704700BFB0290020B42900200620704733
:1044400000487047C029002010B5FFF7FDFE044C5E
:104450002060FFF77FFE6060FFF7BAFEA06010BD2E
:10446000C0290020704710B54FF4AE71044611F01A
:10447000B9FD204610BD10B50446D0F8580100F033
:1044800015F82046BDE810400BF0A2B810B5044660
:10449000FEF756FA014B2360204610BD7C8A0108C6
:1044A00000225F21C0E90021826070470368013368
:1044B00003607047704704387047704710B510218B
:1044C000044611F08FFD204610BDA0F10400F5E771
:1044D00000228260024A026018324260C160704766
:1044E000D08A01087047D0F8F0310133C0F8F031BC
:1044F0007047000010B5034B03600446FEF739FE19
:10450000204610BDF88A010810B50446FFF7F2FFF7
:1045100020464FF4FA7111F065FD204610BD0000F1
:1045200010B50446FEF756FF034B23600023C4F882
:10453000F031204610BD00BFF88A010810B50446CE
:10454000FEF718FE064B074A1B6804F5B0704021C1
:104550000EF008FA04F1CC00BDE810400CF098B958
:10456000C02500203B800108704704387047704721
:1045700010B51021044611F035FD204610BDA0F104
:104580000400F5E700228260024A026018324260AD
:10459000C16070472C8B01087047000010B5034BB9
:1045A00003600446FFF784F8204610BD548B0108D1
:1045B00010B50446FFF7F2FF204641F2E43111F056
:1045C00011FD204610BD0000044B186880EA403001
:1045D00080EA504080EA40101860704714000020C4
:1045E00010B50446FFF762F91F4B236004F58053B2
:1045F0009622A021C3F8C8231C48C3F89C0332228A
:10460000C3E9E22114200022C3F89023C3F8A003D9
:104610004FF4A0720320C3E9E921C3F89403642294
:104620001348C3F8AC2300220260F020C3F8DC0377
:1046300040F2EF10C3E9ED010121C3E9F02283F854
:10464000B023C3F89823C3F8D02383F8D423C3F846
:10465000D823A3F8BC13C3F8CC23C3F8E023054B3D
:104660001A70204610BD00BF548B01080000704333
:10467000C0250020C825002013B50446FEF7E0FF42
:10468000002384F8A53184F8D13184F8FD3184F811
:10469000793184F8753284F8293284F8E93384F862
:1046A000613484F8E930012384F8BD33FFF78CFFCF
:1046B0000323B0FBF3F303EB4303C31A04F1C40079
:1046C0001AD1102301A9ADF8043008F0AEFAFFF7B3
:1046D0007BFF10F0010F14BF0423032304F5C07007
:1046E0000BBF01A90DEB0301ADF80430ADF80430A8
:1046F00008F09BFA02B010BD012B0CBF112312234E
:10470000E0E7000000F580523B4B73B50446D2F859
:10471000D01318688142C8BF1960A0253223C2E9AE
:10472000E2350023C2F890334FF4A073C2E9E935B3
:1047300050230021C2F8AC33304B82F8B013C2F8DA
:104740009C33FFF741FF3C23B0FBF3F606FB13005D
:10475000F023C2F8DC3340F2EF13C2E9ED35143038
:1047600001230326C2E9F011C2F89813C2F8D0134E
:1047700082F8D413C2F8D813C2F8CC13C2F8E013ED
:10478000A2F8BC33C2F8A003C2F894631C4A84F8B0
:10479000E91384F8611484F8D11184F8FD1184F8C8
:1047A000A51184F8791184F8751284F8291284F817
:1047B000E91084F8BD331170FFF706FF10F0010F08
:1047C00018BF042304F5C0700BBF01A90DEB030152
:1047D000ADF80460ADF8043008F027FA201D0CF0A5
:1047E00057F8084C206800231A4601A903F0D9FEA7
:1047F0000028F7D002B070BDC02500200000704333
:10480000C8250020D02500202DE9F04F00F5805567
:1048100087B0D5F8E03395F8D493002BC8BF03F1E7
:10482000FF330446C8BFC5F8E033B9F1000F0DD01F
:10483000D5F8D8330133B32BC5F8D8337ADD0AF075
:1048400003FE07B0BDE8F04FFEF7AAB8D5F8DC3399
:10485000DFF818B1002B40F38D80013BEF2BC5F83A
:10486000DC3303D0B32B01D0772B66D1D5F8E033FE
:104870002BB93D4B01221A700F23C5F8E0330023FA
:10488000DBF800001A460DF1160103F08AFE00283D
:10489000F5D0D5F8DC33B42B04F5667656DD092364
:1048A000ADF8143005A9304608F0BFF9B4F8BE33AE
:1048B000ADF8143005A80EF00FF9B4F8BE33A4F823
:1048C000A00305A8ADF814300EF03AF9B4F9A0131E
:1048D000A4F8A203C1F1F001C0F5A07000EBD07004
:1048E00001EBD17140F34F0241F34F013046FEF727
:1048F00036FD30460BF0CCFF04F16C000BF0C8FF26
:10490000D5F8DC33B3B984F8BD33012384F8A5317D
:1049100084F8D13184F8FD3195F8BC230AB184F8CC
:10492000793184F8753284F8293284F8E930201D11
:104930000BF0AEFF07B0BDE8F08F3B2B9FD1D5F851
:10494000E033002B9BD1084B042294E7782B01DD48
:104950000823A5E73C2B01DD0723A1E71423ADF8CD
:1049600014300DEB03019EE7C8250020D025002060
:10497000000070C200F5C073184600930BF088FF6A
:1049800004F5D673184604F5EC7A01930BF080FF1A
:1049900050460BF07DFF04F16C03184602930BF0B8
:1049A00077FF04F19803184604F1C406039304F555
:1049B00014780BF06DFF30460BF06AFF40460BF0A9
:1049C00067FF95F8BC331BB104F5AA700BF060FFCC
:1049D00004F5717738460BF05BFF0023DBF800002D
:1049E0001A460DF1160103F0DCFD002840F021828B
:1049F000BDF8161004F58053012993F8BD2340F04B
:104A0000DE81002A00F0B38104F58053A022C3F8B0
:104A10008C230022C3F8902304F5805B0098BBF937
:104A20008813BBF98C23FEF79AFC9BF8BD13002971
:104A300000F02982DBF8C41364230139CBF8C413D6
:104A400040465943DBF8C83391FBF3F105F09FFD75
:104A5000DBF8C4230A2192FBF1F301FB1323042B9F
:104A6000CCBF00230123002A84F8D13184F8FD3122
:104A700084F8793140F3F5810C2507EE105A04F5DE
:104A80008052B8EEC77AD2EDE77AD2F89833F6EED4
:104A9000006AE7EE667A5B1B13F1F00F1FED4C7AAC
:104AA000D8BF0023F4EEC77AC2F89833F1EE10FABB
:104AB000A4F8703003F1F003A4F89C3000F10982EF
:104AC000C2EDE77A04F5805BDBEDE77ABBF9A02362
:104AD000FDEEE77A304617EE903A19B2FEF73FFC4A
:104AE000DBF8A413DBF8B423491B521B11F11E0F92
:104AF000CBF8A413CBF8B42380F20E824FF4A0714C
:104B0000CBF8A413FFF760FDA023B0FBF3F505FB82
:104B100013005030CBF8A803FFF756FD1E23B0FB5F
:104B2000F3F505FB13005A300023CBF8AC038BF8E8
:104B3000B033203214DA04F5805201F1AF03C2F829
:104B4000B433FFF741FDB423B0FBF3F505FB1300CD
:104B50003C300123C2F8B80382F8BC3384F87931C1
:104B600004F58055D5E9EA2303EBD3735B105B4270
:104B7000A2EB030B1A44C83A019812B209B2FEF72D
:104B8000EEFBB5F9A4130FFA8BF25046FEF7E7FBE4
:104B900095F8BC333BB1B5F9B823B5F9B41304F5B6
:104BA000AA70FEF7DCFBB4F9B021B4F9843102F14C
:104BB0001E018B4280F2F48103F123018A4280F2CC
:104BC000EF81B4F9B221B4F9861102F1C800814233
:104BD00080F2E68120318A42ACBF00220122B4F982
:104BE000DC1101F11E00834212DA03F1230081423D
:104BF0000EDAB4F9DE01B4F9861100F1C805A94254
:104C000006DA20318842ACBF4FF000094FF00109AD
:104C100004F5805595F8BD0380B9D5F8CC1300296B
:104C20000CDC12B9B9F1000F08D0012285F8D423A9
:104C3000CB4A03211170B422C5F8E02304F5805259
:104C400092F8BC1300293FD0B4F9581101F12005A6
:104C5000AB4239DA2333994236DAB4F95A11B4F94E
:104C6000863101F12005AB422EDA203399422BDA4E
:104C7000D2F8D013D2F8E0330431C2F8D0132BB9F4
:104C8000B74B05251D700F23C2F8E03348B904F572
:104C90008050D0F8C0330433082BC8BF0823C0F8B5
:104CA000C033002382F8BC3384F87931052391FBAB
:104CB000F3F30333082BA8BF0823C2F89433A94B9E
:104CC0001A689142C8BF196004F5805595F8D4332D
:104CD000FBB10023A44AC5F8D8334021D5F8D0331E
:104CE0004FF0010B04F59D600DF03CFE04F57C7067
:104CF00084F815B40BF0CCFD84F861B404F23C40A8
:104D00000BF0C6FD974BD5F8D02319688A42A8BF8F
:104D10001A6004F58055944AD5F8D033402104F543
:104D20008D600DF01FFE04F501700BF0B1FD0098D1
:104D30000BF0AEFD01980BF0ABFD50460BF0A8FD5B
:104D400002980BF0A5FD03980BF0A2FD30460BF086
:104D50009FFD40460BF09CFD38460BF099FD95F801
:104D6000BC33002B3FF4E6AD04F5AA70E0E54FF04C
:104D70004042C3F89023D5EDE47A9FED7C7AD5F8D4
:104D80008C2377EE877AC5EDE47AFDEEE77A17EEAD
:104D9000903A9B1859D4B3F58C7FC5F88C337FF7C4
:104DA0003BAED5F8CC33002B56DC012385F8D43349
:104DB0006B4B03221A70B423C5F8E0332CE60229AA
:104DC00037D1D3F8C013072933DD002A7FF41CAE96
:104DD000D3F8CC130029CEDC012183F8BD13D3F81E
:104DE000C813C3E9F021FFF7EFFB0323B0FBF3F394
:104DF00003EB4303C01A23D10A2305A93846ADF8B3
:104E0000143007F012FFB4F8EA33ADF8143005A8F7
:104E10000DF062FEA4F8CC03C0F1F00000EBD070FE
:104E200040F34F013C223846FEF799FA012384F8FB
:104E3000E93304F5805393F8BD33002B9BD0E3E5B1
:104E400001280CBF0B230C23D7E70023C5F88C33B4
:104E50000023C5F89033DFE54FF48C73C5F88C332D
:104E6000DAE500231E228BF8BD33CBF8CC2384F87F
:104E7000E933012384F8D13184F8FD319BF8BC3348
:104E800084F87931F8E5DBF8CC33DBF89453002B68
:104E900013DD013B0A20B3FBF0F200FB1232002BC2
:104EA00018BF042ACBF8CC33D4BF0123002384F8E5
:104EB000A531404605F06BFBDFE5DBF8C03364212C
:104EC0004B43B3F54A7FF4DA191EB8BF0731C91056
:104ED000EFE7274BC2F89C33FFF776FB6423B0FB68
:104EE000F3F101FB13000A30C2F8A003FFF76CFBDB
:104EF0000323B0FBF3F303EB4303C01A07D11023E2
:104F000005A93046ADF8143007F08FFEDAE5012828
:104F10000CBF11231223F3E79BF8B033002B7FF46F
:104F200008AE13293FF705AE01238BF8B0339BF889
:104F3000BD33DBF8D003EBB10230CBF8D00305234F
:104F400090FBF3F30333082B04F58055A8BF082327
:104F5000C5F89433034D2B688342B8BF2860E8E559
:104F6000C8250020C02500203B800108CDCCCC3DC9
:104F700000007043DBF8E0330130CBF8D0032BB9ED
:104F8000084B02251D700F23CBF8E03304F5805544
:104F9000D5F8C033072BDCBF0133C5F8C033CEE7EB
:104FA00000221CE6C825002070470438704770476F
:104FB00010B51021044611F015F8204610BDA0F1DF
:104FC0000400F5E700228260024A02601832426063
:104FD000C16070478C8B010813B5064C2068002314
:104FE0001A460DF1060103F0DCFA0028F6D002B0F3
:104FF00010BD00BFD025002010B5034B0360044650
:10500000FEF7FCFE204610BDB48B010810B5044627
:10501000FFF7F2FF20464FF4E67110F0E3FF204661
:1050200010BD000010B50446FEF796FF074B236045
:105030000A23C4F8C431064BC4F8BC310023C4F8B9
:10504000C031002384F8C831204610BDB48B01085C
:1050500000800945FEF7D3BE37B500F5C07504469C
:1050600028460BF015FC2F4800231A4600680DF166
:10507000060103F096FA94F8C831A8BBBDF80620E3
:10508000012A1DD143BB4FF04043C4F8C031D4EDD9
:10509000707A9FED257A77EE877A94ED6F7AC4ED7A
:1050A000707A77EE877A9FED217AF4EEC77AF1EE87
:1050B00010FA1CDD002384ED6F7AC4F8C03118E0CB
:1050C000022A11D143B9012384F8C831184BC4F81E
:1050D000BC310023C4F8C031D4F8C4310C33F02BF8
:1050E00018DCC4F8C43104E0002BD0D0F4E7C4EDE0
:1050F0006F7AD4ED6F7AD4F8C431A4F88431FDEE20
:10510000E77A284617EE903AA4F886310BF0C0FBF8
:1051100003B030BD0A23C4F8C431002384F8C83179
:10512000E7E700BFD0250020CDCCCC3D00005C439C
:1051300000005C43F02070474FF4A07070472920B6
:10514000FCF70ABD2820FCF707BD08B5FCF7D8FC22
:10515000CA20FCF701FDC320FCF7E2FC0820FCF7A5
:10516000DFFC5020FCF7DCFCCF20FCF7F5FC002036
:10517000FCF7D6FCC120FCF7D3FC3020FCF7D0FCB8
:10518000ED20FCF7E9FC6420FCF7CAFC0320FCF7E7
:10519000C7FC1220FCF7C4FC8120FCF7C1FCE8200E
:1051A000FCF7DAFC8520FCF7BBFC0020FCF7B8FC20
:1051B0007820FCF7B5FCCB20FCF7CEFC3920FCF7BF
:1051C000AFFC2C20FCF7ACFC0020FCF7A9FC342041
:1051D000FCF7A6FC0220FCF7A3FCF720FCF7BCFCC4
:1051E0002020FCF79DFCEA20FCF7B6FC0020FCF731
:1051F00097FC0020FCF794FCB120FCF7ADFC0020EC
:10520000FCF78EFC1B20FCF78BFCB620FCF7A4FC03
:105210000A20FCF785FCA220FCF782FCC020FCF7EA
:105220009BFC1020FCF77CFCC120FCF795FC1020B7
:10523000FCF776FCC520FCF78FFC4520FCF770FCE2
:105240001520FCF76DFCC720FCF786FC9020FCF7CE
:1052500067FC3620FCF780FCC820FCF761FCF220DC
:10526000FCF77AFC0020FCF75BFCB020FCF774FC38
:10527000C220FCF755FCB620FCF76EFC0A20FCF7B8
:105280004FFCA720FCF74CFC2720FCF749FC04202E
:10529000FCF746FC2A20FCF75FFC0020FCF740FCF2
:1052A0000020FCF73DFC0020FCF73AFCEF20FCF767
:1052B00037FC2B20FCF750FC0020FCF731FC0020D1
:1052C000FCF72EFC0120FCF72BFC3F20FCF728FC10
:1052D000F620FCF741FC0120FCF722FC0020FCF743
:1052E0001FFC0620FCF71CFC2C20FCF735FCC8201A
:1052F000FCF77EFC2620FCF72FFC0120FCF710FCBD
:10530000E020FCF729FC0F20FCF70AFC2920FCF721
:1053100007FC2420FCF704FC0C20FCF701FC0E2009
:10532000FCF7FEFB0920FCF7FBFB4E20FCF7F8FB2B
:105330007820FCF7F5FB3C20FCF7F2FB0920FCF79A
:10534000EFFB1320FCF7ECFB0520FCF7E9FB172033
:10535000FCF7E6FB1120FCF7E3FB0020FCF7E0FB89
:10536000E120FCF7F9FB0020FCF7DAFB1620FCF744
:10537000D7FB1B20FCF7D4FB0420FCF7D1FB11204A
:10538000FCF7CEFB0720FCF7CBFB3120FCF7C8FB7A
:105390003320FCF7C5FB4220FCF7C2FB0520FCF7DD
:1053A000BFFB0C20FCF7BCFB0A20FCF7B9FB282054
:1053B000FCF7B6FB2F20FCF7B3FB0F20FCF7B0FB8C
:1053C0001120FCF7C9FBC820FCF712FC2920FCF7D0
:1053D000C3FBBDE808402C20FCF7BEBB08B5FCF7BA
:1053E0008FFB0321D320FCF7D3FB80B208BD10B59F
:1053F000C4B2022203212046FCF73AFB0A20FCF744
:105400007DFB204600220321FCF732FBBDE8104063
:105410000220FCF773BB38B50446E4B2FCF726FB68
:1054200000212046FCF73AFB012105462046FCF707
:1054300035FB40EA052080B238BD10B5C4B240212A
:105440002046FCF72BFB030607D54C212046FCF732
:1054500025FB003818BF012010BD01224B2120463A
:10546000FCF706FB204600224B21FCF701FB002045
:10547000F2E773B50423C4B20E461546D7210DEBEF
:1054800003022046FCF724FB019B1BBA1A0DC3F351
:105490000B23328020462B8001224B21FCF7E8FAB7
:1054A00000224B212046FCF7E3FA02B070BD000059
:1054B00010B50A4A1378984204460DD051788842B4
:1054C0000AD00BB141B90123D454FCF7CFFA2046DE
:1054D000BDE81040FFF78BBF10BD00BFCC290020F6
:1054E00010B5C4B209212046FCF7D8FA40F00102F9
:1054F000D2B220460921BDE81040FCF7B9BA10B578
:10550000C4B209212046FCF7C9FA092100F0FE02C5
:105510002046BDE81040FCF7ABBA38B5C4B20D4622
:1055200020460A21FCF7BAFA40EA0502D2B2204628
:105530000A21BDE83840FCF79BBA10B50446FCF7D9
:1055400096FA20461F21FFF7E8FF2046BDE81040ED
:10555000FFF7C6BF38B5C4B20D4620460A21FCF796
:105560009DFA20EA0502D2B220460A21BDE8384061
:10557000FCF77EBA10B50446FFF7C1FF20461F2195
:10558000BDE81040FFF7E6BF10B5C0B20C460B21D6
:10559000FCF784FA204010BD1F21FFF7F5BF0A4633
:1055A000C0B20B21FCF764BA1F21FFF7F8BF38B572
:1055B000C4B20D4620461721FCF770FA20EA050216
:1055C000D2B220461721BDE83840FCF751BA70B579
:1055D000C4B2064604212046FCF760FA042100F01C
:1055E000FB0205462046FCF743FA3046F021FFF760
:1055F000DEFF05F0F80220460421FCF739FA4922C3
:1056000020212046FCF734FA0220FCF777FA2046E6
:1056100001222121FCF72CFA20469A224121FCF795
:1056200027FA204601224A21FCF722FA20460122CD
:105630004B21FCF71DFA204600224B21FCF718FAFB
:10564000204601225621FCF713FA20460122582158
:10565000FCF70EFA204601224021FCF709FA204609
:10566000FF220B21FCF704FABDE870400220FCF792
:1056700045BA0000054BD3F8882042F47002C3F805
:1056800088204FF000629A60704700BF00ED00E094
:1056900008B50B4B1A6842F400721A601A6842F49B
:1056A00080621A601A6842F480721A60032000F067
:1056B00005FA0020FCF78AFDFCF7A8FA002008BDD7
:1056C000003C0240034A044B11681B780B441360F2
:1056D000704700BFD02900207C000020014B1868D3
:1056E000704700BFD029002038B50446FFF7F6FF09
:1056F000631C1CBF054B1B78054618BFE418FFF759
:10570000EDFF431BA342FAD338BD00BF7C0000204D
:1057100038B50446002800F09B80056C25B9FCF7DD
:1057200095FA656484F83C50236CDB0600F18E80AA
:10573000236C23F4885323F0020343F00203236411
:10574000444B5A6822F440325A605A6861680A43EE
:105750005A60236821695A6822F480725A605A6834
:1057600042EA01225A605A68A16822F040725A60E7
:105770005A680A435A609A68E16822F400629A60A3
:105780009A680A439A603449A26A8A4252D0996858
:1057900021F07061996099680A439A609A68E16A99
:1057A00022F040529A609A680A439A609A6822F0FE
:1057B00002029A609A68217E42EA41029A6094F855
:1057C0002020002A3ED05A68616A42F400625A6082
:1057D0005A6822F460425A605A68013942EA4132FA
:1057E0005A60DA6AE16922F47002DA62DA6A01392F
:1057F00042EA0152DA629A6822F400729A609A6868
:1058000094F8301042EA41229A609A68616922F461
:1058100080629A609A68002042EA81229A606064FD
:10582000236C23F0030343F001032364002384F873
:105830003C3038BD9A6822F070629A609A6822F013
:105840004052B2E75A6822F40062C9E70120EDE74E
:105850000120EEE7002301400100000F7047704770
:105860007047036870B51E685D68B20704462BD5A3
:10587000A80629D5226CD1065EBF226C42F40072C4
:1058800022649A6812F0405F17D1227EAAB9DA6AC0
:1058900012F4700F02D09A6852050ED45A6822F0A2
:1058A00020025A60236C23F480732364236CD80491
:1058B0005EBF236C43F0010323642046FFF7CEFF55
:1058C00023686FF012021A60710733D52A0631D5AA
:1058D000236CDB065EBF236C43F400532364236810
:1058E0009A6812F4401F1ED19A6B12F4401F02D026
:1058F0009A68500517D45A68510514D49A6812F062
:10590000405F10D1227E72B95A6822F080025A603C
:10591000236C23F480532364236CDA055EBF236C6D
:1059200043F001032364204600F0C6F823686FF0BB
:105930000C021A60F30710D568060ED523681B68A1
:10594000D9070AD5236C43F4803323642046FFF73C
:1059500086FF23686FF001021A60B2060ED56B0154
:105960000CD5636C43F00203636423686FF0200579
:105970001D602046FFF774FF23681D6070BD0000A6
:10598000F7B50023019390F83C30012B054600F059
:105990008680012380F83C3008682B688E680928CF
:1059A00084B233D904EB4402DF681E3A4FF0070C8F
:1059B0000CFA02FC27EA0C07DF60DF6806FA02F245
:1059C0003A43DA604968062901EB81022DD8596B08
:1059D000053A1F26964021EA06015963596B04FADD
:1059E00002F20A435A632F4A93420AD1122837D14E
:1059F0002D4B5A6822F400025A605A6842F4800221
:105A00005A60002085F83C0003B0F0BD1A6900EB35
:105A1000400C072707FA0CF722EA07021A611A69F5
:105A200006FA0CF616431E61CCE70C294FF01F0155
:105A30000BD81E6B233A914026EA01011963196BBA
:105A400004FA02F20A431A63CDE7DE6A413A914052
:105A500026EA0101D962D96A94400C43DC62C2E7AC
:105A6000124B984201D01128CBD10F4B5A6822F427
:105A700080025A605A6842F400025A600B4B984206
:105A8000BFD10B4B0B4A1B68B3FBF2F30A22534303
:105A90000193019B002BB4D0019B013BF8E702204E
:105AA000B2E700BF002001400023014012000010B7
:105AB0007800002040420F00704700000749CA6884
:105AC00022F4E0620302120403F4E063120C1343B5
:105AD00043F0BF6343F40033CB60704700ED00E058
