:020000040800F2
:1000000000000320BD050008DD210008DF210008F5
:10001000E1210008E3210008E521000800000000BC
:10002000000000000000000000000000E177000870
:10003000E72100080000000071780008EB7000085C
:100040000D0600080D0600080D0600080D06000844
:100050000D0600080D060008292200080D060008FC
:100060000D0600080D0600080D0600080D06000824
:100070000D0600080D0600080D0600080D06000814
:100080000D0600080D060008E92100080D0600080D
:100090000D0600080D0600080D0600080D060008F4
:1000A0000D0600080D0600080D0600080D060008E4
:1000B0000D0600080D0600080D0600080D060008D4
:1000C0000D0600080D0600080D0600080D060008C4
:1000D0000D0600080D0600080D0600080D060008B4
:1000E0000D0600080D0600080D0600080D060008A4
:1000F0000D0600080D0600080D0600080D06000894
:100100000D0600080D0600080D0600080D06000883
:100110000D0600080D060008052200080D0600085F
:100120000D0600080D0600080D0600080D06000863
:100130000D0600080D0600080D0600080D06000853
:100140000D0600080D0600080D0600080D06000843
:100150000D0600080D0600080D0600080D06000833
:100160000D0600080D0600080D0600080D06000823
:100170000D0600080D0600080D060008000000002E
:100180000D0600080D0600080D0600080D06000803
:100190000D0600080D0600080D0600080D060008F3
:0C01A000112200080D0600081D220008B6
:1001B00010B5054C237833B9044B13B10448AFF3A1
:1001C00000800123237010BDF40000200000000017
:1001D000303A010808B5034B1BB103490348AFF39C
:1001E000008008BD00000000F8000020303A01083F
:1001F00001F0FF01102A2BDB10F0070F08D010F8D8
:10020000013B013A8B422DD010F0070F42B3F6D1DB
:10021000F0B441EA012141EA014122F007047FF0F4
:1002200000070023F0E80256083C85EA010586EA4B
:10023000010685FA47F5A3FA87F586FA47F6A5FA87
:1002400087F68EB9EED1F0BC01F0FF0102F0070293
:1002500032B110F8013B013A83EA010313B1F8D13E
:100260000020704701387047002D06BF354603381F
:10027000073815F0010F07D1013015F4807F02BF58
:10028000013015F4C03F0130F0BC0138704700BFA9
:1002900053B94AB9002908BF00281CBF4FF0FF31ED
:1002A0004FF0FF3000F088B9ADF1080C6DE904CED5
:1002B00000F006F8DDF804E0DDE9022304B0704741
:1002C0002DE9F047089D0F4604468C46002B48D187
:1002D0008A42164661D9B2FA82F34BB1C3F12002C9
:1002E00001FA03FC20FA02F29E4042EA0C0C9C4008
:1002F0004FEA164EB7B2BCFBFEF1220C0EFB11CC3E
:1003000042EA0C4201FB07F0904209D9B21801F110
:10031000FF3C80F0EE80904240F2EB8002393244A4
:10032000121AA4B2B2FBFEF00EFB102244EA024401
:1003300000FB07F7A74209D9341900F1FF3280F01A
:10034000DA80A74240F2D7803444023840EA0140C4
:10035000E41B00211DB1DC400023C5E90043BDE8DA
:10036000F0878B4206D90DB1C5E90001002108468E
:10037000BDE8F087B3FA83F1002948D1BB4202D32C
:10038000824200F20781841A67EB0302012094463F
:10039000002DE4D0C5E9004CE1E7002A00F092808E
:1003A000B2FA82F3002B40F0A8808A1A4FEA164E68
:1003B0001FFA86FC0121200CB2FBFEF70EFB172270
:1003C00040EA02420CFB07F0904207D9B21807F14D
:1003D000FF3802D2904200F2E2804746121AA4B2DD
:1003E000B2FBFEF00EFB102244EA02440CFB00FCC0
:1003F000A44507D9341900F1FF3202D2A44500F216
:10040000CB801046A4EB0C0440EA0740A2E7C1F100
:1004100020068B4022FA06FC4CEA030C07FA01F492
:1004200020FA06F3F7404FEA1C49234300FA01F88B
:100430001FFA8CFEB7FBF9F01C0C09FB107744EA9D
:10044000074400FB0EF7A74202FA01F20AD91CEB9F
:10045000040400F1FF3A80F09B80A74240F29880AC
:1004600002386444E41B9FB2B4FBF9F309FB134464
:1004700047EA044403FB0EFEA64509D91CEB04041D
:1004800003F1FF3780F08280A6457FD9023B6444A8
:1004900043EA0040A4EB0E04A0FB02E7BC42734613
:1004A000B94663D360D05DB1B8EB030264EB0904D5
:1004B00004FA06F622FA01F31E43CC40C5E90064B3
:1004C00000214CE76208480842EAC1710B0C43EA7C
:1004D00000438AB242EA0342B3FBF6F1E407B446B2
:1004E0003746B6461F23B0FBF6F0D21B41EA004167
:1004F00061E7614614E7104628E7C3F1200120FABE
:1005000001F29E4027FA01F19F403A434FEA164E0E
:100510001FFA86FCB1FBFEF70EFB1710110C41EA27
:10052000004107FB0CF8884504FA03F43AD9711826
:1005300007F1FF3001D288451FD8A1EB0801B1FBBC
:10054000FEF808FB0CF70EFB181192B242EA0142CA
:10055000BA422FD2B21808F1FF31C6D2BA42C4D281
:10056000A8F102013244C0E7F0459CD2BEEB020381
:1005700067EB0C070138B94695E7A6EB080841443C
:10058000B81EB1FBFEF808FB0CF7DCE73B467FE743
:10059000504667E70846FBE63444023832E7023F3C
:1005A00032441BE7A1EB08013846B1FBFEF808FB1B
:1005B0000CF7C8E7414698E7704700BFDFF834D032
:1005C000002103E00C4B5B58435004310B480C4BAB
:1005D00042189A42F6D30B4A02E0002342F8043B49
:1005E000094B9A42F9D303F085FF12F0B9FC00F0F1
:1005F00053FF704700000320601E08080000002021
:10060000F4000020F4000020082B0120FEE77047D2
:1006100008B500F039FDBDE8084000F0C3BC00F0AB
:1006200035BD704710B50421044612F05BF9204631
:1006300010BD000038B50C4B0C4C18800C4B8220C0
:1006400019806368984740F6110398420AD1094D12
:1006500023682C60822098472B688220DB689847AB
:10066000002038BD0120FCE71A01002050000020C6
:10067000180100201C0100204FF4A071F020FFF7AA
:10068000D9BF0000F7B5354D2B6804461B698220A1
:100690009847208000284BD02B680DF106025B693B
:1006A00001A982209847BDF8063040F67462934253
:1006B00040D9ADF80620BDF80630D21A92B20A2A07
:1006C0003ED90B23B2FBF3F2254B1B889A4201D98A
:1006D000013B9AB2BDF80430224840F6B8318B4253
:1006E00030D8C3F571630E3301689BB20F25B3FB9D
:1006F000F5F31D4D2D88AB4284BF05F1FF35ABB23C
:100700008B421D468EB226D99B1B99B2174F3E686D
:10071000B3B2B2428CBFD31A9B1A9BB219440529BB
:10072000C8BF05600368C4BF3A6016466380A680F0
:1007300003B0F0BDB32B9CBFB423ADF80630BAE7CD
:100740000022C7E7C3F56D6308339BB20E2B016827
:10075000CCD800252B46C91A89B2D7E71C01002046
:1007600018010020140100201A01002010010020AF
:1007700037B568460D461446FFF784FFBDF8000004
:1007800030B1BDF802302B60BDF804302360012089
:1007900003B030BD032821D8DFE800F0020B1219A6
:1007A0000F4B1A68B2FA82F2520904210D4804F084
:1007B0000BBB0B4B5A68B2FA82F252090821F5E7DB
:1007C000074B9A68B2FA82F252091021EEE7044B05
:1007D000DA68B2FA82F252092021E7E7704700BFD7
:1007E0002001002000100240032821D8DFE800F09B
:1007F000020B12190F4B1A68003A18BF012204218C
:100800000D4804F0E1BA0B4B5A68003A18BF0122B8
:100810000821F5E7074B9A68003A18BF012210211A
:10082000EEE7044BDA68003A18BF01222021E7E71F
:10083000704700BF200100200010024003280DD89F
:10084000DFE800F00206080A0421054804F0C1BAF6
:100850000821FAE71021F8E72021F6E7704700BFEA
:100860000010024008B5032811D8DFE800F0020AA2
:100870000C0E0421074804F0A1FA431E58425841C7
:1008800008BD0821F6E71021F4E72021F2E7002057
:10089000F3E700BF0010024070B5084D00240126A8
:1008A000E0B2FFF7DFFF18B12B68012B18BF2E60F5
:1008B0000134052C05F10405F2D170BD20010020A2
:1008C000012380F8781080F8793070477047002055
:1008D00070470000034B4164003918BF01211970B3
:1008E000704700BF93270120704700207047836B3B
:1008F0000BB10846184770474FF6FF7070474068C5
:1009000003689B6918477047704770477047704786
:1009100070B5044600F064FC2368D3F88C50044B97
:10092000D4E90F122046AC46BDE87040604700BFD6
:10093000000000D008B503680446D3F88430984717
:1009400023682046DB6F984700F0ECF823682046C8
:100950005B6F9847292001F0B7F800F0E3F82368AF
:1009600020465B6F9847F8E710B5044609F078FD1C
:1009700023682046D3F8BC30BDE81040184700F08B
:1009800021BC00F025BC00F049BC00F0F7BB00F032
:1009900049BC00F051BC00F0FBBB08F083BF10B5B0
:1009A0008421044611F09EFF204610BD10B590F83A
:1009B000341090F878400C4B8C421A7809D03AB930
:1009C0000A4A0B491488088810800C8001221A708A
:1009D00010BD002AFCD0054A0549148808881080FB
:1009E0000C800022F3E700BF8C270120882701201C
:1009F0008A27012070B50D46194635B9094B0A4AB8
:100A00000A4840F2FF2111F09BFFC0E90F52084B4A
:100A1000003A18BF01221A700368BDE87040D3F88D
:100A200090301847A03A0108D83A0108263B01083F
:100A30009227012008B5094B1B888B4203D8084B2D
:100A40001B88934205D9074B074A0848A32111F098
:100A500077FF074B1980074B1A8008BD88270120B4
:100A60008A2701206B3B0108CE3B0108263B010889
:100A70008E27012090270120034690F87A0018B1B4
:100A8000586803681B68184770470000012108B5C3
:100A90000022084606F0B2FB0A4B186028B90A4B40
:100AA0000A4A28210A4811F04BFF002204210120A4
:100AB00006F04BFC074B186018B9074B034A2C2172
:100AC000F0E708BD34010020113C01085A3C010840
:100AD000893C010830010020D13C0108024B4FF055
:100AE000FF31186806F0D4BB34010020014B1868B0
:100AF00006F0FABB34010020024B0021186806F012
:100B0000C7BB00BF34010020FFF7F0BF0348044912
:100B1000006800231A4606F053BC00BF30010020D5
:100B20000400002013B5084C00231A4601A92068D0
:100B300006F077FC20684FF0FF33002201A906F091
:100B400070FC02B010BD00BF3001002003685B6C78
:100B500018470120704703689B6A1847FEE740F278
:100B6000EF307047054B0360054B4FF08062C3F8D0
:100B70008820BFF34F8FBFF36F8F7047F047010896
:100B800000E100E010B504464FF45A61FFF7EAFFB8
:100B9000204611F0A7FE204610BD000082B00023C1
:100BA00001930E4B1A6B42F400021A631A6B02F4A3
:100BB00000020192019A1A6942F400021A611A694C
:100BC00022F400021A61064B064A1A61064A5A616B
:100BD000064B4FF080629A6002B0704700380240C6
:100BE000C0170020390E00085D0B000800E100E08E
:100BF00008B50A2809D8DFE800F006100E08080832
:100C0000081010101000022008BD054B054A0648C8
:100C1000902111F095FE0020F6E70120F4E700BFD7
:100C2000133D01082E3D0108793D010870B50C46C1
:100C3000887FFFF7DDFFA18AE28A164B256958639A
:100C400042EA01425A64628BDD63521A1A642668D2
:100C5000E168082E0DD19A611A615862207F0E4A10
:100C600042EA0062DA610D4A19625D61DD601A6074
:100C700070BD0022D8611A6148090A0A02F478425C
:100C800000F4FC600243C1F3C4010A439A63044ABE
:100C9000EDE700BF00B0024009000100012302009F
:100CA0000123030008B50B280BD8DFE800F006127B
:100CB000100A0A0A0A0808080808022008BD0520C8
:100CC000FCE7054B054A06486F2111F039FE00206C
:100CD000F4E70120F2E700BF133D0108BF3D010822
:100CE000793D01082DE9F04191F81D800C46404600
:100CF000FFF7D8FFA77F05463846FFF7D3FF064624
:100D00003846FFF775FFA18A628B454B521A1A6469
:100D10009A61228B521A1A61E28A586342EA0142AE
:100D20005A6421696268D963DA60D4F800C0207F10
:100D3000BCF1800F4FEA006229D013D8BCF1200F1C
:100D400045EA020064D0BCF1400F61D0BCF1040F51
:100D50005ED0334B154345F40035B845DD615BD0BB
:100D6000304A40E0BCF5807F07D0BCF5007FF0D171
:100D700042F4003242F0090203E042F4003242F051
:100D80000A02DA61E2681A625E6259612AE0A468C6
:100D90002A4342F40032271DDF62DA6122785E6264
:100DA000596142B1012A21D01F4B204A20484FF4FB
:100DB0008D7111F0C5FDDA69618822F47F42013935
:100DC00022F0100242EA0122DA610121144BDA69B1
:100DD00042F02002DA61DA699206FCD410229A60AD
:100DE0000029BDD0134A1A60BDE8F081DA69B0F17C
:100DF000FF01608822F47F4200F1FF3022F01002F0
:100E000042EA002242F0100218BF0121DA61DDE758
:100E100040F40030D861B7E742F20132E3E700BFA7
:100E200000B0024001230100093E0108233E0108F1
:100E3000793D010801230200024B1B6858680368D2
:100E40005B6918479427012070B5044625460A4B74
:100E50000C30002660602672667245F8203B6022E6
:100E6000294609F039FC04F55A63EE6024359D42A9
:100E7000FBD1204670BD00BFF0470108012070473C
:100E800014207047142303FB01000830704714231B
:100E900003FB010008307047012070474FF4767063
:100EA00070474FF4767303FB0100083070474FF42E
:100EB000767303FB01000830704701207047102053
:100EC000704700EB01100830704700EB011008304C
:100ED0007047084601F0E4BD10B5034B03600446BB
:100EE00008F037FA204610BDA848010810B504469E
:100EF000FFF7F2FF20461C2111F0F4FC204610BD44
:100F000010B5034B0360044608F023FA204610BDD9
:100F10007448010810B50446FFF7F2FF20464FF46D
:100F2000787111F0DFFC204610BD000010B5034BB6
:100F30000360044608F00DFA204610BD4048010841
:100F400010B50446FFF7F2FF2046182111F0CAFC45
:100F5000204610BD10B5084B0360044600F20C405B
:100F6000FFF7BAFF04F12C00FFF7CAFF04F11400E9
:100F7000FFF7DCFF204610BDDC48010808B5024839
:100F8000FFF7E8FF08BD00BFF40F002010B50446CE
:100F9000FFF7E0FF20464FF4B26111F0A3FC2046BA
:100FA00010BD0000F7B501F0C5F9054601F0C6F91E
:100FB0000024014600942346224628460EF0AAFD4E
:100FC000264B274A1A60204602F0B0FC2548264CE2
:100FD0000EF008FD2368BFF35B8FDB0738D4204693
:100FE00011F082FC002833D0204A214B136002F11B
:100FF0002C0702F2344502F20C4602F1140097600D
:101000005060D660156108F0A5F9A5F23442384663
:10101000184B53612C3F08F09DF9174BFB6230468B
:1010200008F098F9154BC7F80C3407F5856002F005
:10103000F9FC3A4607F58561284602F0E9FC2846A6
:1010400001F02EFD0E4811F099FC204611F058FCDD
:101050000C4803B0BDE8F040FFF75ABCF027012070
:10106000BC01002008000020F00F0020F40F002039
:10107000DC4801084048010874480108A8480108F4
:101080007D0F000838010020704700000148FFF77D
:1010900051BC00BF3801002070B5254E254C264DAF
:1010A000264B23603046FFF7CFFE28460FF092FB19
:1010B000234B2448DC6000224FF48071C3E91212F4
:1010C00021491A86C3E91A12204983F85820C3E936
:1010D0001E011F49C3F880101E491F480B60F021F4
:1010E000C3E90422C3E90622C3E90822C3E90A22AC
:1010F000C3E90E22C3E91022C3E91422C3E917226F
:101100005A6683F870205A67C3E901650180134865
:10111000018013484FF4A0710180124801801249E8
:101120000A70012283F83420104A1A6070BD00BF93
:101130004C020020EC0F0020C0010020903A010872
:1011400038010020000001010100000100045000EE
:101150001A00140094270120882701208E270120DF
:101160008A270120902701208C27012004470108AD
:101170000148FFF7F7BC00BF4C020020034B902250
:1011800083F85A2383F85823704700BF00E100E03A
:10119000094A0A49D3680A48C3F30A03013B9BB2D0
:1011A0000B801169C1F30A01013901801364536B8B
:1011B00043F0010353637047006801408615002027
:1011C00084150020014BD3F8AC0070470068014043
:1011D000024B0122C3F8AC105A627047006801400C
:1011E00070B5044608F0B3FB23689D6E0BF088FAD7
:1011F00001462046A8472368054AD3F88C5020466C
:10120000AC460023BDE87040A2F51631604700BF30
:1012100000B004D008F082BB08F08CBB08F048BBDB
:1012200008F0B7BC034B4FF080629A604FF08072B9
:101230009A60704700E100E0084B4FF08062C3F80D
:101240008820BFF34F8FBFF36F8F4FF08072C3F8CA
:101250008820BFF34F8FBFF36F8F704700E100E02E
:1012600038B5184C23685BB3174B184A1B6C1188B0
:101270008B4216D1164B198804F0A8FB236893F80B
:101280006A200025013283F86A2083F87C50FFF73A
:101290003DFC206809F0E4F82846BDE83840FFF737
:1012A00079BA04F093FB2468236820461B6A9847A8
:1012B000012384F87C300020BDE83840FFF794BA61
:1012C00038BD00BF9427012000680140861500202A
:1012D0008415002007B5064BADF806001B680548CD
:1012E00001220DF1060105F0E7F803B000BD00BFD3
:1012F0000C0000206C16002007B5124D01240023BD
:101300001148ADF80630042103F058FD08B9ADF8D6
:1013100006400D48082103F051FD50B90223ADF8F5
:101320000630002328681A460DF1060106F048F839
:1013300003E0BDF80630002BF3D1012005F052FF89
:10134000DDE700BF981500200018024008B52A4CC0
:101350002378022BDAB212D0032A18D0012A42D104
:101360002648102103F030FD642005F03BFF2348A0
:101370000022102103F028FD00232370E8E71F4816
:101380000122102103F020FD4FF4FA70EDE7012255
:1013900010211A4803F018FD4FF4FA7005F022FFEF
:1013A00000221021154803F00FFD4FF4FA7005F0EC
:1013B00019FF01221021114803F006FD4FF4FA70C5
:1013C00005F010FF002210210C4803F0FDFC4FF443
:1013D000FA7005F007FF09480122102103F0F4FC20
:1013E00040F2EE20C1E705480022102103F0ECFC9A
:1013F0000A2005F0F7FEABE790150020000402403C
:1014000030B595B0102200210AA811F0A3FC1422D7
:10141000002103A811F09EFC00241D4B01941A6CBE
:1014200042F080521A641B6C03F080530193019BBD
:10143000184B02941A6842F440421A601B6803F485
:10144000404302930122029B4FF48033CDE90823ED
:1014500002254FF48003CDE90E5308214FF4A87301
:10146000CDE9101308A804231393129504F0CCFAC5
:101470000F23CDE903354FF4A0504FF48053CDE94D
:101480000603052103A8059404F09AFC15B030BDAD
:1014900000380240007000402DE980489BB003F006
:1014A00037F8FFF7ADFF142200210DA8002411F03A
:1014B00051FCC04B00941A6BBF4842F010021A63F3
:1014C0001A6B02F010020092009A01941A6B42F01B
:1014D00020021A631A6B02F020020192019A029410
:1014E0001A6B42F080021A631A6B02F080020292B9
:1014F000029A03941A6B42F004021A631A6B02F008
:1015000004020392039A04941A6B42F001021A63D4
:101510001A6B02F001020492049A05941A6B42F0CD
:1015200002021A631A6B02F002020592059A0694EF
:101530001A6B42F040021A631A6B02F040020692E4
:10154000069A07941A6B42F008021A631B6B03F0A9
:101550000803079322463C21079B03F035FC97487C
:101560002246042103F030FC95482246802103F0F6
:101570002BFC944822464FF4405103F025FC2246B0
:1015800091481021012503F01FFC4FF0030A3C2372
:101590008948CDF840A00DA902264FF00409CDE9F5
:1015A0000D350F9403F026FB84480F940DA9CDE967
:1015B0000D95109603F01EFB802381480DA9CDE9FF
:1015C0000D35CDE90F4403F015FB4FF440537D4832
:1015D0000DA9CDE90D354FF00C0BCDE90F4603F009
:1015E00009FB7A480F950DA91027CDE90DB403F03A
:1015F00001FB0DA97448CDE90D75CDE90F4403F049
:10160000F9FA734A734B1360104603F0E9F9724A12
:10161000724B1360724BD460C2E9013410464FF430
:101620008043C2E90434C2E90644146203F0F4FDC5
:101630003946694804F036F82146674804F051F805
:10164000684A694B13604FF48273C2E901344FF466
:1016500000711823C2E9061310460A23D362C2E9B7
:101660000344C2E908445461946204F0C9FE5F4A2D
:101670005F4B1761C2E9003540204FF4C073C2E9E7
:1016800005034FF40063C2E908344FF4005393623A
:101690000DA907231046CDE90E39CDE9103A4FF0D8
:1016A0000808C2E90249D461CDE912660D9604F03A
:1016B0008BFD4FF6FF7209A94C480894CDE90A85C5
:1016C00009950C9404F0A0FD284602F04DFF4FF65A
:1016D000FF7209A94548CDE90968CDE90B5404F02A
:1016E00093FD4FF6FF7209A94048CDE909A8CDE95D
:1016F0000B9404F089FD4FF40C730893089B3B484E
:101700000C934FF6FF7209A9CDE909980B9504F0E7
:101710007BFD40F26A51354804F094FD34222146A5
:101720000DEB020011F016FB324A334B1461C2E993
:1017300000340923C2E905351D2340F20D1CC2E91E
:10174000073A40F24313C2E909C340F2171E40F2C0
:1017500047131046C2E90BE3C2E90244948682F8BB
:10176000364004F051F8FF21F022CDE912144FF079
:1017700005094FF480614FF4A073CDE90E24CDE943
:101780001419CDE916420DA922461A48DFF870A0B7
:101790001893CDE910360D94ADF864408DF866408D
:1017A00004F0E6F8154BCAF800301B689847DAF8E1
:1017B000003027E0003802400010024000080240DC
:1017C00000000240000C02400004024000180240E9
:1017D00000180020003002406C170020005C004020
:1017E000A08601006C16002000500140A8150020C2
:1017F000400100A0C416002000680140180000202D
:101800008C150020DFF8D0A1DB6898475B4A5C4B61
:101810001046C2E90034C2E90264C2E90A46C2E9DC
:101820000C4403F0EDF82946544803F09FF9214693
:101830003A460DA811F08EFA524A534B13601046E7
:101840004FF48033C2E901341461147682F82040E9
:10185000D462C2F828A0D460D56182F830405561C6
:1018600002F096FE0D220DA946480F94CDE90D25F4
:1018700002F0C6FF21463A460DA811F06BFA434B21
:10188000434A1A601A4610464FF48033C2E90134C5
:10189000C2E90AA41461147682F82040D460D561AC
:1018A00082F83040556102F073FE0DA937480F945D
:1018B000CDE90D9502F0A4FF364A374B1360104670
:1018C0004FF4E133C2E90134C2E90344C2E905B48B
:1018D000D46105F043FB21463A460DA811F03AFACF
:1018E0002E4A2F4B13605923C2E90134104640F2AF
:1018F000E733C2E903349461CDE9094405F052F9B4
:101900004FF480530DA925480D9305F081F909A9DD
:101910002248CDE9094405F083FAFEF779FEFEF787
:1019200076FE21461D4805F079FA05F0EBFB1D4ACD
:101930003146384605F009FD1B4B1C4A1860294604
:10194000404605F002FD1A4B1A4A186021461A4813
:1019500005F004FC194B1A4A18602146194805F095
:10196000FDFB194B194A18602146194805F0F6FB92
:10197000184B186005F0D8FBFEE700BFC017002029
:1019800000B002405018002000200140081800203C
:1019900000210140DC150020001001402416002029
:1019A000000400400049010898150020E84801089B
:1019B0009415002060490108F9120008A4150020C0
:1019C0003C4901081F060008A0150020184901081D
:1019D0004D1300089C1500200100000F7047704750
:1019E0007FB5084B8DF817201B6802930DF1170285
:1019F0000123009201930A460146034803F0B4FC18
:101A000007B000BD100000206C1700207FB5002338
:101A10008DF81730084B1B6802930A4601230DF11D
:101A20001701009101930146044803F02DFD9DF834
:101A3000170007B000BD00BF100000206C17002089
:101A40001FB5084C24680092CDE901340A460123F1
:101A50000146054803F018FD003818BF012004B006
:101A600010BD00BF100000206C17002002F07CBDEC
:101A700008B506480022042103F0A6F9BDE8084095
:101A800002480122042103F09FB900BF0008024070
:101A900010B5012204464FF40051094803F094F9AF
:101AA00000220421074803F08FF92046FFF712FCBB
:101AB000BDE8104003480122042103F085B900BFAE
:101AC000000C02400008024010B5002204464FF40A
:101AD0000051094803F078F900220421074803F077
:101AE00073F92046FFF7F6FBBDE8104003480122DA
:101AF000042103F069B900BF000C02400008024055
:101B000037B505460C4612480022042103F05CF963
:101B100000224FF400510F4803F056F92846FFF712
:101B2000D9FB0D4B0D481B68224601A904F070FE3D
:101B30000848019C01224FF4005103F045F9044884
:101B40000122042103F040F9204603B030BD00BF5C
:101B500000080240000C02400C0000206C1600201F
:101B600002F002BD0268034B9A4201D102F0EABCC6
:101B7000704700BF001000407047000082B00E4B5D
:101B800000220092596C41F480415964596C01F46F
:101B90008041009100990192196C41F080511964C3
:101BA0001B6C03F080530193019B0F216FF0010028
:101BB00002B002F0D5BE00BF0038024010B51422BA
:101BC0008AB0044600210DEB020011F0C3F823682F
:101BD000254A934227D1254B2548002401945A6C6D
:101BE00042F480725A645A6C02F480720192019A33
:101BF00002941A6B42F004021A631B6B03F0040395
:101C000002930821029B0323CDE9051305A902F0E5
:101C1000F1FF12202246052102F0A2FE122002F05E
:101C2000D1FE0AB010BD134A9342FAD10F4B1248AD
:101C3000002403945A6C42F400725A645A6C02F401
:101C400000720392039A04941A6B42F001021A6321
:101C50001B6B03F001030493049B20220323CDE9B3
:101C6000052305A9D3E700BF00200140003802404A
:101C70000008024000210140000002400268094BB8
:101C80009A4282B00BD100230193074B1A6B42F4A6
:101C900080521A631B6B03F480530193019B02B0C3
:101CA000704700BF003002400038024007B50E4BBD
:101CB00002689A4216D10022A3F5F0430192196BF3
:101CC00041F4000119631B6B03F400030193052128
:101CD0005A20019B02F044FE5A2003B05DF804EB49
:101CE00002F070BE03B000BD00B002402DE9F04329
:101CF000044689B01422002103A811F02BF82268B1
:101D0000244B9A4243D1244C244800250095236B50
:101D100043F004032363236B03F004030093009B4D
:101D20000195236B43F001032363236B03F001034D
:101D30000193019B4FF012094FF400734FF001081B
:101D40000327042603A9CDE90339CDE905870796C2
:101D500002F050FF4FF480731148079603A9CDE9B4
:101D60000339CDE9058702F045FF0295236C43F462
:101D700000032364236C03F400030293029B236A91
:101D800043F400032362236A23F40003236209B0AF
:101D9000BDE8F083005C00400038024000080240CB
:101DA00000000240F0B599B004461422002107A8B3
:101DB00010F0D0FF30220DEB0200002110F0CAFF1E
:101DC00022685E4B9A4240F0B78008230C93C023F0
:101DD0001093042312930CA84FF40033159304F0CE
:101DE000C7F808B1FFF7C8FE554B564800240094C9
:101DF0005A6C42F080625A645A6C02F0806200921F
:101E0000009A01941A6B42F020021A631A6B02F0D6
:101E100020020192019A02941A6B42F001021A63A5
:101E20001A6B02F001020292029A03941A6B42F0BA
:101E300002021A631A6B02F002020392039A0494DC
:101E40001A6B42F040021A631A6B02F040020492CD
:101E5000049A05941A6B42F004021A631A6B02F09A
:101E600004020592059A06941A6B42F008021A635E
:101E70001B6B03F00803069302250E26069B0B96A8
:101E80004FF4806307A9CDE90735CDE9094502F094
:101E9000B1FE41F658032C480B9607A9CDE907354A
:101EA0000927CDE9094502F0A5FE032327480B9732
:101EB00007A9CDE90735CDE9094502F09BFE4FF4AE
:101EC000706322480B9607A9CDE90735CDE909458E
:101ED00002F090FE4FF40C631D480B9607A9CDE964
:101EE0000735CDE9094502F085FEC02319480B9658
:101EF00007A9CDE90735CDE9094502F07BFE0823A6
:101F000015480B9607A9CDE90735CDE9094502F03B
:101F100071FE4FF4A0530E480B9707A9CDE9073582
:101F2000CDE9094502F066FE58202246052102F05F
:101F300017FD582002F046FD19B0F0BD00680140C1
:101F40000038024000140240000002400004024039
:101F50000018024000080240000C024010B5044680
:101F600088B01422002103A810F0F4FE2268144B5C
:101F70009A4223D103F56843002101915A6C11481C
:101F800042F480125A645A6C02F480120192019A4F
:101F900002911A6B42F020021A631B6B03F02003BC
:101FA0000293029B4FF4607202230321CDE90323C5
:101FB0000523CDE9061303A902F01CFE08B010BDED
:101FC00000500140001402400268094B9A4282B05E
:101FD0000BD100230193074B1A6C42F002021A64E2
:101FE0001B6C03F002030193019B02B0704700BF1A
:101FF000000400400038024010B5044688B01422A6
:10200000002103A810F0A6FE2268144B9A4223D1A7
:1020100003F59433002101915A6C114842F01002EB
:102020005A645A6C02F010020192019A02911A6BE2
:1020300042F001021A631B6B03F001030293029B3F
:102040004FF4C06202230321CDE903230723CDE926
:10205000061303A902F0CEFD08B010BD0010014028
:10206000000002402DE9F04186B0002303932B4B82
:102070001C68002C4FD14FF00108C3F80080284B9A
:1020800000949A6B274842EA08029A639B6B03EA22
:1020900008030093022703260C25009B01A94FF695
:1020A0003F03CDE90137CDE9046502F0A3FD1E48E9
:1020B000059501A9CDE90187CDE9034602F09AFD16
:1020C00048F233131948059501A9CDE90137CDE947
:1020D000034602F08FFD4FF683731548059501A95D
:1020E000CDE90137CDE9034602F084FD4CF20373DC
:1020F0001048059501A9CDE90137CDE9034602F065
:1021000079FD60230C48059501A9CDE90137CDE99A
:10211000034602F06FFD06B0BDE8F081981800207C
:10212000003802400014024000080240001802403B
:1021300000100240000C02400004024030B589B09B
:1021400000230293204B1A6C42F010021A641B6C9D
:1021500003F010030293054601A903A8029B03F0B4
:10216000E9FE069B4BBB03F0C5FE184A184B1360F3
:1021700040F2E733D360174BB0FBF3F3013B5360FE
:102180001046002313619360936104F00BFD044635
:1021900080B90E4804F0E0FB044658B9362002F03E
:1021A00011FC0F2D0DD822462946362002F0D8FB0F
:1021B000094B1D60204609B030BD03F09BFE400076
:1021C000D3E70124F6E700BF003802409C18002046
:1021D0000010004040420F00800000207047FEE7E2
:1021E000FEE7FEE7FEE7704708B5044802F079FA1B
:1021F000BDE80840024802F074BA00BF5018002041
:1022000008180020014804F0E5BB00BF9C1800201E
:10221000014803F050BB00BFC4160020014802F083
:102220001BBC00BFC017002013B50B4C206805F085
:1022300028F9012809D841238DF807302068C823E0
:1022400000220DF1070105F0BBF8012002B0BDE846
:10225000104002F0C9BD00BF941500200120704756
:1022600008B510F077FE162303604FF0FF3008BD6D
:1022700008B510F06FFE16230360FEE770B50D463B
:1022800014460E46731B9C4201DC204670BDAFF322
:10229000008006F8010BF5E770B50D4614460E46B2
:1022A000731B9C4201DC204670BD16F8010BAFF396
:1022B0000080F5E74FF0FF3070474FF400534B605C
:1022C000002070470120704700207047094A08B578
:1022D0000346106808B908481060034469468B42F9
:1022E00006D910F037FE0C2303604FF0FF3008BD15
:1022F0001360FCE7E4180020082B0120704710B59C
:102300000421044610F0EEFA204610BD012908B55C
:1023100006D0022908D059B901F054FB006808BD65
:1023200001F050FB4068FAE701F04CFB8068F6E7EB
:102330000020F4E7004870479849010809207047D9
:1023400013B5002451B1036801948DF8034001AA2C
:102350009C680DF10303A04702B010BD0846FBE7DF
:10236000C0897047008A7047C0887047808870476E
:10237000807A00F07F007047807AC00970470020A3
:10238000704700009FED010A704700BF0000000089
:10239000704710B50821044610F0A4FA204610BD7D
:1023A0007047704700F598730868496803C3704721
:1023B000704770474160704770477047064BC0F8E0
:1023C0004C310023C0F8503100F5A273C0F8480129
:1023D000C0F84031704700BFF528000801230372A0
:1023E0007047704770477047704738B5054640687A
:1023F0000368DB699847044604B938BDA188AB89F6
:10240000C91A236820461B6B09B29847A469F3E7F1
:10241000D0E90232416810B4541001EB6200D207D7
:1024200048BF0A595DF8044B48BFD35818470346C4
:10243000406830B19A681AB9D86800F00100704756
:102440000120704710B50C21044610F04BFA2046CD
:1024500010BD10B51421044610F044FA204610BDFA
:1024600010B51021044610F03DFA204610BD10B5FD
:102470001021044610F036FA204610BD10B54FF476
:10248000AE71044610F02EFA204610BD10B50AF0C9
:1024900037F90368BDE81040DB6B184710B50AF048
:1024A0002FF90368BDE810405B6B184710B50AF0C0
:1024B00027F90368BDE810405B6B184713B5044665
:1024C000807A637A0130C0B29842A07205D90123A4
:1024D00023720023A37202B010BDB4F90C200021B6
:1024E0000BF05CFFC30706D500284FF6FF73C8BF8B
:1024F0000123184400B2144AE08112880023ADF889
:10250000023083B2D21AADF80020228A20829B1AB0
:10251000ADF804300D4B1B88ADF806300AF0F0F82A
:10252000036802AA1B6C12E906009847A37A012BE4
:10253000D1D1074B1B78002BCDD00AF0E1F802B0C7
:10254000BDE810400AF0E2B8882701208A27012060
:102550009227012037B50546807A6B7A0130C0B2E8
:102560009842A87205D901232B720023AB7203B0E5
:1025700030BDB5F90C20B5F90E4000210BF00EFF6F
:10258000C30706D500284FF6FF73C8BF01231844C0
:1025900000B2AB7AE881041B012BA4B206D1174B21
:1025A0001B781BB10AF0ACF80AF0B0F8144A00230B
:1025B0001288ADF80230EB891A445B42ADF8043062
:1025C000104BADF800201B88ADF806300AF098F8E3
:1025D000036802AA12E906001B6C98476868036842
:1025E000DB6998470546002DC1D0A9882B68214496
:1025F00028461B6B09B29847AD69F4E79227012082
:10260000882701208A27012010B50446D0F8400110
:1026100058B10368DB68984738B1D4F840010368C3
:102620009B6898470023C4F8403110BD2DE9F14F55
:10263000D0E955BA0746DBF8080003681B6A9847DB
:10264000B0F5767F05D2494B494AA321494810F09D
:1026500077F9DBF8040003681B6A98470F2803D852
:10266000454B434AA421F1E7DBF80C0003681B6AE1
:1026700098470F2803D8414B3D4AA521E6E70AF0C9
:102680003FF8DFF8049104300AF0A0F8D9F8000010
:1026900010B10368DB689847D9F8000010B10368EF
:1026A0001B689847DFF8E480D8F8000010B1036891
:1026B0005B699847D7F83C0110B103685B6898479D
:1026C000D8F8000010B103681B689847D7F83C01A0
:1026D00010B103689B689847DBF80C000368002181
:1026E0005B6A9847264B036014234372254B1B8873
:1026F000002686725B42044646600672C68183816C
:10270000DBF80800036831465B6A9847054601F02C
:1027100029FADBF80400036831465B6A98472946CA
:10272000064601F0F1F9331DC7F83C61CAF80830DC
:102730002B68C6F808A02846DB68C9F80040C8F82E
:102740000050EE639847336830461B68984721462F
:1027500028460BF01DFE236820461B699847236816
:102760005B69204601B0BDE8F04F1847943E010870
:10277000223F0108074001084E400108F1400108CE
:10278000F44A010888270120D4270120D0270120FE
:102790002DE9F14FD0E955BA0746DBF80800036888
:1027A0001B6A9847B0F5E07F05D2494B494AA321FF
:1027B000494810F0C5F8DBF8040003681B6A984725
:1027C0000F2803D8454B434AA421F1E7DBF80C005E
:1027D00003681B6A9847132803D8414B3D4AA5213B
:1027E000E6E709F08DFFDFF80491043009F0EEFF11
:1027F000D9F8000010B10368DB689847D9F80000E9
:1028000010B103681B689847DFF8E480D8F800002F
:1028100010B103685B699847D7F83C0110B10368B1
:102820005B689847D8F8000010B103681B689847A8
:10283000D7F83C0110B103689B689847DBF80C009F
:10284000036800215B6A9847264B03601423437298
:10285000254B002686721B88466004460672C68198
:1028600006828381DBF80800036831465B6A98477B
:10287000054601F017F9DBF80400036831465B6A8E
:1028800098472946064601F0E5F8331DC7F83C6134
:10289000CAF808302B68C6F808A02846DB68C9F8D3
:1028A0000040C8F80050EE639847336830461B6814
:1028B0009847214628460BF06BFD236820461B698C
:1028C000984723685B69204601B0BDE8F04F184780
:1028D000943E010894410108074001084E40010858
:1028E000F1400108184B010888270120D427012056
:1028F000D02701202DE9F14FD0E9556A0746B0688D
:1029000003681B6A9847B0F5E07F05D2444B454AFF
:10291000A321454810F014F8706803681B6A9847B3
:102920000F2803D8414B3F4AA421F2E7F06803681F
:102930001B6A98470B2803D83D4B3A4AA521E8E784
:1029400009F0DEFEDFF8F090043009F03FFFD9F81F
:10295000000010B10368DB689847D9F8000010B197
:1029600003681B689847DFF8D480D8F8000010B1DE
:1029700003685B699847D7F83C0110B103685B684E
:102980009847D8F8000010B103681B689847D7F83B
:102990003C0110B103689B689847F0680368002108
:1029A0005B6A98474FF0000B224BC0F804B0044616
:1029B00080F808B00360B068036859465B6A9847BE
:1029C000054601F06FF87068036859465B6A9847DE
:1029D0002946064601F03EF8331DC7F83C61CAF8A7
:1029E00008302B68C6F808A02846DB68C9F8004004
:1029F000C8F80050EE639847336830461B68984724
:102A0000214628460BF0C4FC236820461B699847E2
:102A100023685B69204601B0BDE8F04F184700BF4E
:102A2000943E010878420108074001084E40010821
:102A3000F1400108D04A0108D4270120D027012005
:102A4000F8B5044617460E4609F05EFF104B002508
:102A5000C4E955760F4E1C60C4E953550E4B3068DF
:102A600023600E4BC4E95135036801219B68C4E91A
:102A70004F559847284600F059FF336893F858207F
:102A80000AB1D86C00B998680FF0E0F92046F8BD9B
:102A9000E0270120942701207C4A0108644A0108AC
:102AA000064BC0F84C310023C0F8503100F5A2733A
:102AB000C0F84801C0F84031704700BFF528000851
:102AC000064BC0F84C310023C0F8503100F5A2731A
:102AD000C0F84801C0F84031704700BF9127000896
:102AE000064BC0F84C310023C0F8503100F5A273FA
:102AF000C0F84801C0F84031704700BF2D260008DB
:102B0000406A7047806A704770478A880B8810B5A2
:102B1000D20A4C88C1699BB251F8220043EA0443AF
:102B2000184410BD10B50446BAB1107B68B1537B90
:102B3000D27A1B0203F4E0631A43236A03EB820395
:102B40001A888A4202D193F9020010BD05D80138D3
:102B500080B204330028F3D1F7E70020F5E710B581
:102B60002C2104460FF0BEFE204610BD30B58BB0C0
:102B70000446BDF860500895BDF85C5007959DF877
:102B8000505006959DF84C5005959DF84850049579
:102B90009DF8445003959DF8405002959DF83C5097
:102BA0000195BDF8385000950BF04CF8064B2360AA
:102BB000159BE361169B2362199B63621A9BA362B8
:102BC00020460BB030BD00BF3C4B010800207047D1
:102BD00081807047C1807047018170474181704793
:102BE0007047704770477047704710B4C4880368D7
:102BF000121B84885B6D091B12B25DF8044B09B28D
:102C000018474FF6FF7383814FF0FF330362136859
:102C1000C3611060704770477047704770477047D6
:102C200030B5036885B0D3F884300181044601468D
:102C3000684698479DE807003C3484E8070005B0E3
:102C400030BD30B5036885B0D3F884304181044687
:102C50000146684698479DE807003C3484E8070031
:102C600005B030BD0022028042808280C280704761
:102C700080F83610704770B5036804461B6B154624
:102C800098472368294620465B6EBDE87040184788
:102C900000207047806C70477047704770477047DE
:102CA0007047D0E9023230B44468551004EB62003A
:102CB000D20748BF625930BC48BFD35818470346B3
:102CC000406830B19A681AB9D86800F001007047BE
:102CD00001207047A0F850107047B0F850007047BE
:102CE00010B54C2104460FF0FDFD204610BD10B577
:102CF000602104460FF0F6FD204610BD10B51021EE
:102D000004460FF0EFFD204610BD10B54FF4DE7104
:102D100004460FF0E7FD204610BD90F8252012B1C3
:102D200003685B691847704708B5FFF7F6FF08BDF1
:102D300090F825201AB190F8242002B1186070474D
:102D4000036870B55E6B124B1B6804468DB22BB9DD
:102D5000104B114A6C2111480FF0F2FD1049828D81
:102D60000988914203D80F4B0B4A6D21F3E713F802
:102D700012200D4B1B6853F8220003681B6B984709
:102D8000291A3346204609B2BDE87040184700BFF3
:102D9000E42701204A4301088C430108C743010886
:102DA000E82701200E440108EC27012098308842D2
:102DB00008B505D109F0A4FCBDE80840FFF790BEB6
:102DC00008BD90F84C3070B50446002B4AD0B0F8DE
:102DD0004E00B4F85030013080B29842A4F84E0052
:102DE00040D3B4F85450B4F85620A66D521BC01A04
:102DF00012B2B4F85230002180B2B04794F83620B5
:102E00000544ABB22DB2AA4205D02DBB2046FFF738
:102E100084FF84F83650B4F85030B4F85210B4F847
:102E20004E200B449A421DD3002384F84C30A4F862
:102E3000523009F065FC2146043009F0AEFCE06D2B
:102E400080B10368DB68984760B1E06D0368214694
:102E50009B68BDE87040184784F836302046FFF77D
:102E60005CFFD8E770BD00224FF0FF31C0E90021C0
:102E70008260704770B5036804461B6B154698471F
:102E80002368294620465B6BBDE87040184770B543
:102E900004461D46BDF91060FFF7ECFF2368294684
:102EA00020469B6B9847236831462046DB6BBDE884
:102EB000704018470022C0E90122C0E90322C0E99E
:102EC0000522C0E907224FF480728284014A026021
:102ED000704700BFA44B01082DE9F04F04468BB0AA
:102EE000A04600250BF0A8F87F4BE56348F8403B6F
:102EF0002946262240460FF02DFF4046FFF7DAFF15
:102F000004F16C07794B2364FF264FF6FF7A2622E3
:102F1000294684F86660A5663846ADF820A00FF013
:102F200019FF3846FFF7C6FF714BE366BDF8203046
:102F3000A4F8923004F1980984F8946008A93846FE
:102F400007F07DFE2946262248460FF003FF48463B
:102F5000FFF7B0FF012304F1CC0684F8BC30654BC9
:102F6000C4F8983029462622C4F8C05084F8C450CA
:102F7000A4F8C6A0A4F8C8A084F8CAA030460FF0F0
:102F8000E9FE3046FFF796FF4FF47F03C4F80031A7
:102F9000594BC4F8CC304FF0FF33C4E94335574B9D
:102FA000DFF884B1A4F8F8A0C4E96B34544BC4F83A
:102FB000FC50C4E96D354FF4A0732A46A4F80451BF
:102FC000C4F80851C4F8145184F81851A4F81A51DF
:102FD000A4F81C51C4F8285129464046C4F8F4B05E
:102FE0000093F023FFF753FF04F1040A4FF07F43EF
:102FF000A3664146504606F0BFF96FF00E026FF02F
:103000000A013846FFF736FF4FF0060808A9384690
:10301000ADF8208007F013FE3946504606F0ACF9B3
:10302000ED2214214846FFF725FF082308AA07A927
:103030004846ADF81C30ADF8203007F0C7FC04F569
:10304000D673C4F8C0304946504606F095F91C23A3
:10305000092200934146E2233046FFF718FF294B2F
:10306000C4F8FC30D4F8CC30A4F8005102AD2846A6
:10307000D3F884303146984795E8070004F5847307
:1030800083E80700204B1B6804F596752BB91F4B8E
:103090001F4A60211F480FF053FC1F4B1B88022B57
:1030A00003D81E4B1A4A6121F4E71D4B0221186810
:1030B00000F078FC1B4A0346402128460CF084FCB3
:1030C000052308A93046C4F81451ADF82430CDF8D2
:1030D00020B007F01DFC5046314606F04DF9204661
:1030E0000BB0BDE8F08F00BFBC4C01089450010844
:1030F00070510108FC5001080C4C0108A44C010857
:10310000AD2D0008050505FFE42701204A4301080D
:103110004C440108C7430108E82701200E44010878
:10312000F027012097440108544A0108806A70473B
:1031300070477047704770477047D0E9023230B42B
:103140004468551004EB6200D20748BF625930BC96
:1031500048BFD35818470346406830B19A681AB937
:10316000D86800F0010070470120704790F82D30BA
:1031700080F8603070470146383091F82C3013B138
:10318000363107F05CBD3431FBE710B564210446ED
:103190000FF0A8FB204610BD10B5102104460FF01B
:1031A000A1FB204610BD10B54FF4607104460FF02E
:1031B00099FB204610BD10B50446006B50B1036862
:1031C000DB68984730B1206B036821469B68BDE8F7
:1031D0001040184710BD0B7970B590F82C6004466C
:1031E0000D460BB916B170BD002EFCD0B3FA83F3B7
:1031F0005B0984F82C3023682046D3F88C3098473C
:10320000236820465B699847002EECD02B79012B70
:10321000E9D123682046D3F88830BDE870401847CC
:1032200000F588738B4210B5044609D109F068FA9D
:10323000FFF746FC23682046DB6ABDE810401847CC
:1032400010BD0B882DE9F04183861388B0F9085032
:10325000C3860446104690460CF070FCB4F90A3060
:10326000074603EBD3734046C3F34F060CF09AFCBA
:1032700005EBD575C5F34F0500EBD07007EBD7779D
:10328000A6EB6002A5EB670104F1380012B209B2A7
:10329000FFF7F0FD23682046D3F88C30BDE8F041FD
:1032A0001847000038B5262204460D4600210FF0CD
:1032B00051FD2046FFF7FEFD064B23602B88E3847B
:1032C000FF23204684F82830294607F0B8FC204622
:1032D00038BD00BF7051010810B5262204460021F8
:1032E0000FF038FD2046FFF7E5FD0A4BA3624FF6CD
:1032F000FF73A3854FF47F020023C4E90C32064A12
:1033000022604FF0FF32C4E910232387E363A364F4
:10331000204610BD544A0108F04C01082DE9F04F39
:1033200004468DB0274600250AF086FED94BE5639A
:1033300047F8403B2622294638460FF00BFD384619
:10334000FFF7B8FDD44B236404F16C0AFF234FF65A
:10335000FF7604F1980984F866300AA95046A566FC
:1033600004F1C408ADF82860FFF79CFF0AA948469D
:10337000ADF82860FFF796FF4046FFF7ADFF04F574
:103380008873039340F20113C4E94D354FF47F4332
:1033900004F5A47BC4E94F35C04BC4F81031A4F840
:1033A0004461A4F846610AA95846C4E94555C4E9F0
:1033B0004755C4E94955C4E94B55ADF82860FFF7B6
:1033C00071FF594604F5887005F0D6FF04F5BA730D
:1033D0000AA918460393ADF82860FFF763FF04F5C8
:1033E000D0730AA9184604F5E67B0393ADF828606C
:1033F000FFF758FF5846FFF76FFF04F506730AA959
:1034000018460393ADF82860FFF74CFF04F51173DD
:103410000AA918460393ADF82860FFF743FFA04BB5
:10342000C4E9DC349F4BC4E9DE354FF4A0732A466F
:10343000384600932946F023FFF729FD261D4FF05B
:103440007F43A3663946304605F096FF2A4650462C
:103450002946FFF70FFD50460AA9ADF8285007F09E
:10346000EEFB5146304605F087FF2A46484629467E
:10347000FFF700FD48460AA9ADF8285007F0DFFB2A
:103480004946304605F078FF19232A460093352136
:103490009F234046FFF7FBFC4FF07F43C4F8F43016
:1034A000D4F8C430A4F8F8500DF11009D3F88430E2
:1034B000DFF818A241464846984799E8070004F506
:1034C000807383E80700DAF8003004F51C772BB925
:1034D000754B764A602176480FF032FA754B1B889F
:1034E000032B03D8744B714A6121F4E7734B03211A
:1034F000186800F057FA724A0346402138460CF02B
:1035000063FA4FF004010AA86E4AC4F80C71ADF8D2
:103510002C10014640460A9207F0FAF9414630461F
:1035200005F02AFF0AA80246012709A904F58870B8
:10353000ADF82470ADF82870FFF783FE04F55C73D6
:10354000C4F8403120234FF48D72C4F84C51CC2183
:10355000009304F58870FFF79AFC04F588713046F3
:1035600005F00AFF5922C42104F5BA70FFF782FC66
:103570000AA80723014604F5BA70ADF8283007F011
:103580005EFB04F5BA71304605F0F6FE49221521BE
:1035900004F5D070FFF76EFC0AA80223014604F57B
:1035A000D070ADF8283007F04AFB04F5D0713046F2
:1035B00005F0E2FE792230215846FFF75BFC424BD2
:1035C000C4F8FC31D4F8CC31A4F80052D3F88430DC
:1035D00059464846984799E8070004F5027383E87E
:1035E0000700DAF8003004F53C78002B3FF470AFA8
:1035F00030490B88002B3FF475AF304B29461868D3
:1036000000F0D0F92E4A0346402140460CF0DCF988
:103610005846C4F8148207F05BF90AAB1946294AE8
:103620000A925846ADF82C7007F072F959463046A8
:1036300084F8F15105F0A0FE6FF0470204F5067022
:103640008421FFF717FC0523ADF828300AAB194693
:1036500004F5067007F0F3FA04F50671304605F03C
:103660008BFEB62204F511708421FFF703FC4FF0A6
:103670000401ADF8281004F511700AA907F0DFFA6B
:10368000304604F5117105F077FE20460DB0BDE817
:10369000F08F00BF384E010894500108804D01089A
:1036A000204E0108213200084A4301084C44010819
:1036B000C7430108E82701200E440108F027012034
:1036C00097440108544A0108FCFCFCFFE427012050
:1036D0007047000030B5174D8FB02C68BFF35B8F7B
:1036E00014F0010422D128460FF0FEF8F0B13F2378
:1036F0000993114B0893114B079302230122CDE943
:1037000005430423CDE9033228230D490093CDE975
:103710000B442923CDE901440A480A94FFF726FA0D
:1037200009480FF02BF928460FF0EAF805480FB0CA
:1037300030BD00BFE8180020A45E0108B05E01089B
:10374000085D0108EC180020D13600087047000021
:1037500030B5164D8FB02C68BFF35B8F14F00104A9
:1037600020D128460FF0C0F8E0B13F230993104B59
:103770000893104B104911480A940122CDE90643E1
:103780000423CDE903320A230093CDE90B44CDE9AC
:1037900001440594FFF7EAF909480FF0EFF82846CD
:1037A0000FF0AEF805480FB030BD00BF181900206B
:1037B000A85E0108B45E0108185D01081C1900200C
:1037C0004D3700087047000030B5174D8FB02C689A
:1037D000BFF35B8F14F0010422D128460FF084F868
:1037E000F0B13F230993114B0893114B0793012329
:1037F000CDE9054304930423CDE9024315230D4984
:1038000000931B221923CDE90B440B480A94019421
:10381000FFF7ACF909480FF0B1F828460FF070F83F
:1038200005480FB030BD00BF48190020AC5E01084C
:10383000B85E0108285D01084C190020C537000852
:1038400000207047002070470EB403B503AB002181
:1038500053F8042B01930AF01DF802B05DF804EB55
:1038600003B070470CB407B504AB53F8042B0193B5
:103870000AF010F803B05DF804EB02B070470000E6
:10388000436C10B5044673B3038F2BB9184B194A18
:10389000C52119480FF054F8C38E00EB43035B8C2D
:1038A0000BB30BF0E8FA238F012B03D8134B144A08
:1038B000CB21EEE7E28E531C9BB2092B194688BF41
:1038C000A3F10A0104EB410140F63F10498C81420B
:1038D00009D10A2B04EB420228BF002304EB430367
:1038E000508C588451842046BDE810400BF0C6B976
:1038F0009A440108A34401084E450108984501086F
:10390000A64501080BF081B910B586B002AC84E879
:1039100006001A460AAB05930193099B00932146C2
:10392000089B08F08BFA06B010BD000038B518BB34
:10393000124B13481C681349B4B122682244026038
:10394000626822440A60A26814440F4B00221A8065
:1039500000F038F8054600F033F80C4B1C600C4BB7
:103960001D600C4B188007E00B4B03600B4B0B608A
:103970000B4B1C68002CE8D138BD00BF8419002017
:103980007C1900207819002080190020E4270120EC
:10399000EC270120E8270120D45E0108BC5E010865
:1039A0001C5F0108044B1B6853F82100034B1B6884
:1039B00003EB4000704700BF781900207C190020FD
:1039C00006207047004870478819002010B5FFF79F
:1039D000FBFE044C2060FFF77DFE6060FFF7B8FE41
:1039E000A06010BD88190020704710B54FF4AE716B
:1039F00004460EF077FF204610BD10B50446D0F8FF
:103A0000580100F015F82046BDE8104008F03CBF12
:103A100010B50446FFF714F8014B2360204610BD93
:103A2000704E010800225F21C0E9002182607047CA
:103A3000036801330360704770470438704770476C
:103A400010B5102104460EF04DFF204610BDA0F128
:103A50000400F5E700228260024A026018324260E8
:103A6000C1607047C44E01087047D0F8BC310133C3
:103A7000C0F8BC317047000010B5034B036004462A
:103A8000FFF70DF9204610BDEC4E010810B50446B5
:103A9000FFF7F2FF20464FF4E0710EF023FF2046BF
:103AA00010BD000010B50446FFF716FA034B236063
:103AB0000023C4F8BC31204610BD00BFEC4E010805
:103AC00010B50446FFF7ECF8064B074A1B6804F5EF
:103AD000967040210BF078FF04F1CC00BDE8104057
:103AE0000AF002B8881500207846010870470438AB
:103AF0007047704710B5102104460EF0F3FE2046C3
:103B000010BDA0F10400F5E700228260024A0260C5
:103B100018324260C1607047204F010870470000B2
:103B200010B5034B03600446FFF705FB204610BDAC
:103B3000484F010810B50446FFF7F2FF20464FF446
:103B400076710EF0CFFE204610BD0000044B1868C1
:103B500080EA403080EA504080EA401018607047A8
:103B60001400002010B50446FFF7D8FB124B236069
:103B70003222A023C4E9E2230022C4F8B8234FF480
:103B8000A072C4E9EF236422C4F8C42340F2EF1208
:103B9000C4E9F323012384F8D43303220023C4E9C6
:103BA000E923C4F8C833C4F8AC3384F8B033C4F89C
:103BB000B433204610BD00BF484F010813B504467A
:103BC000FFF7BAFAFFF7C2FF10F0010F0CBF022394
:103BD000032304F5D07001A9ADF8043007F02FF8E5
:103BE00002B010BD234B13B5D0F8A81304461868D3
:103BF0008142C8BF19600021C4F8B813A0234FF454
:103C0000A071C4E9EF135021C4F8C413322240F26A
:103C1000EF11C4E9E223C4E9F313012384F8D43398
:103C200084F8993103210023C4F8C83384F8B033F1
:103C3000C4E9E913FFF78AFF04F5D07410F0010F0F
:103C40000CBF0223ADF80410204601A908BFADF84F
:103C5000043006F0F4FF204609F046FF064C2068C9
:103C600000231A4601A903F0DCFB0028F7D002B0BC
:103C700010BD00BF88150020981500202DE9F74FD2
:103C800090F8B053044675B1D0F8B4330133B32B78
:103C9000C0F8B43340F3708108F032FD03B0BDE8E2
:103CA000F04FFEF7FDBE00F5D076304604F50677FE
:103CB00009F01AFF04F51178384609F015FF04F1F0
:103CC0006C09404609F010FF04F1980A484609F0D3
:103CD0000BFF504609F008FF94F8D4331BB104F5EC
:103CE000BA7009F001FFAE48002300681A460DF1D2
:103CF000060103F096FB18B94FF04043C4F8B833FF
:103D0000D4EDEE7A9FEDA77AD4F88C3377EE877AEC
:103D1000C4EDEE7AFDEEE77A17EE902AD21800F1A4
:103D20002E81B2F58C7FC4F88C2300F32F81B4F977
:103D3000881312B23046FFF79DF8D4F8A423D4F8C4
:103D4000C833D4F8CC139B1A13F1F00FD8BF00235B
:103D5000C4F8C833A4F87030F033A4F89C30D4F819
:103D6000BC339B1AC4F8BC33A1EB020B1E33C4F85E
:103D7000CCB32DDA4FF4A073C4F8BC33FFF7E6FEE2
:103D8000A023B0FBF3F101FB13005030C4F8C003D3
:103D9000FFF7DCFE1E23B0FBF3F101FB1300D4F8A8
:103DA000A8330521013393FBF1F101EB81015A3076
:103DB0008B42C4F8C403C4F8A83304D1072ADCBF7B
:103DC0000132C4F8A423784A11688B42C8BF13603B
:103DD0001BF1200FD4F8BC1312DA01F1AF03C4F8C1
:103DE000CC33FFF7B3FEB423B0FBF3F202FB1300B6
:103DF0003C300123C4F8D00384F8D43384F89931DB
:103E0000D4E9F02303EBD3735B105B42A2EB030B0B
:103E10001A44C83A12B209B23846FFF72BF8B4F97F
:103E2000BC130FFA8BF24046FFF724F894F8D43312
:103E30003BB1B4F9D023B4F9CC1304F5BA70FFF751
:103E400019F8B4F91C22B4F9A43102F11E018B4215
:103E500010DA03F123018A420CDAB4F91E12B4F924
:103E6000A62101F1C800824204DA20329142ACBF9F
:103E700000250125B4F9482202F11E018B4280F28F
:103E80008C8003F123018A4280F28780B4F94A12C0
:103E9000B4F9A62101F1C80082427EDA20320DB9C0
:103EA000914205DA414A03211170012284F8B023BE
:103EB00094F8D42312B3B4F9782102F120018B4293
:103EC0001CDA23339A4219DAB4F97A21B4F9A6310B
:103ED00002F120018B4211DA20339A420EDA0022DD
:103EE00084F8D42384F899212F4AD4F8A833116890
:103EF00004338B42C4F8A833C8BF136094F8B033BE
:103F0000C3B100232A4AC4F8B4334021D4F8A833FB
:103F100004F53C700BF058FD012384F8F13104F5F1
:103F2000E67009F0E1FD204BD4F8A82319688A4215
:103F3000A8BF1A60D4F8A8331D4A402104F51C70AC
:103F40000BF042FD04F1C40009F0CEFD304609F04B
:103F5000CBFD384609F0C8FD404609F0C5FD48468E
:103F600009F0C2FD504609F0BFFD94F8D4331BB1EF
:103F700004F5BA7009F0B8FD03B0BDE8F08F002277
:103F80000023C4F88C23C4F8B833D0E6012384F8A6
:103F9000B033064B03211970C9E6002D82D187E7A3
:103FA00098150020CDCCCC3E88150020901500201F
:103FB00078460108F02070474FF4A0707047292020
:103FC000FDF782BD2820FDF77FBD08B5FDF750FD48
:103FD000CA20FDF779FDC320FDF75AFD0820FDF743
:103FE00057FD5020FDF754FDCF20FDF76DFD00205B
:103FF000FDF74EFDC120FDF74BFD3020FDF748FDDC
:10400000ED20FDF761FD6420FDF742FD0320FDF783
:104010003FFD1220FDF73CFD8120FDF739FDE82032
:10402000FDF752FD8520FDF733FD0020FDF730FD43
:104030007820FDF72DFDCB20FDF746FD3920FDF75B
:1040400027FD2C20FDF724FD0020FDF721FD342065
:10405000FDF71EFD0220FDF71BFDF720FDF734FDE7
:104060002020FDF715FDEA20FDF72EFD0020FDF7CD
:104070000FFD0020FDF70CFDB120FDF725FD002010
:10408000FDF706FD1B20FDF703FDB620FDF71CFD27
:104090000A20FDF7FDFCA220FDF7FAFCC020FDF789
:1040A00013FD1020FDF7F4FCC120FDF70DFD1020DD
:1040B000FDF7EEFCC520FDF707FD4520FDF7E8FC08
:1040C0001520FDF7E5FCC720FDF7FEFC9020FDF76D
:1040D000DFFC3620FDF7F8FCC820FDF7D9FCF22004
:1040E000FDF7F2FC0020FDF7D3FCB020FDF7ECFC5F
:1040F000C220FDF7CDFCB620FDF7E6FC0A20FDF757
:10410000C7FCA720FDF7C4FC2720FDF7C1FC042055
:10411000FDF7BEFC2A20FDF7D7FC0020FDF7B8FC18
:104120000020FDF7B5FC0020FDF7B2FCEF20FDF705
:10413000AFFC2B20FDF7C8FC0020FDF7A9FC0020F8
:10414000FDF7A6FC0120FDF7A3FC3F20FDF7A0FC36
:10415000F620FDF7B9FC0120FDF79AFC0020FDF7E1
:1041600097FC0620FDF794FC2C20FDF7ADFCC82041
:10417000FDF7F6FC2620FDF7A7FC0120FDF788FCE3
:10418000E020FDF7A1FC0F20FDF782FC2920FDF7C0
:104190007FFC2420FDF77CFC0C20FDF779FC0E2031
:1041A000FDF776FC0920FDF773FC4E20FDF770FC4F
:1041B0007820FDF76DFC3C20FDF76AFC0920FDF737
:1041C00067FC1320FDF764FC0520FDF761FC172058
:1041D000FDF75EFC1120FDF75BFC0020FDF758FCAD
:1041E000E120FDF771FC0020FDF752FC1620FDF7E1
:1041F0004FFC1B20FDF74CFC0420FDF749FC11206F
:10420000FDF746FC0720FDF743FC3120FDF740FC9D
:104210003320FDF73DFC4220FDF73AFC0520FDF779
:1042200037FC0C20FDF734FC0A20FDF731FC282078
:10423000FDF72EFC2F20FDF72BFC0F20FDF728FCAF
:104240001120FDF741FCC820FDF78AFC2920FDF76D
:104250003BFCBDE808402C20FDF736BC08B5FDF757
:1042600007FC0321D320FDF74BFC80B208BD10B53D
:10427000C4B2022203212046FDF7B2FB0A20FDF75B
:10428000F5FB204600220321FDF7AAFBBDE8104004
:104290000220FDF7EBBB38B50446E4B2FDF79EFB08
:1042A00000212046FDF7B2FB012105462046FDF71F
:1042B000ADFB40EA052080B238BD10B5C4B2402144
:1042C0002046FDF7A3FB030607D54C212046FDF74A
:1042D0009DFB003818BF012010BD01224B21204654
:1042E000FDF77EFB204600224B21FDF779FB0020E5
:1042F000F2E773B50423C4B20E461546D7210DEB81
:1043000003022046FDF79CFB019B1BBA1A0DC3F369
:104310000B23328020462B8001224B21FDF760FBCE
:1043200000224B212046FDF75BFB02B070BD000070
:1043300010B50A4A1378984204460DD05178884245
:104340000AD00BB141B90123D454FDF747FB2046F5
:10435000BDE81040FFF78BBF10BD00BF94190020CF
:1043600010B5C4B209212046FDF750FB40F0010210
:10437000D2B220460921BDE81040FDF731BB10B58F
:10438000C4B209212046FDF741FB092100F0FE02DD
:104390002046BDE81040FDF723BB38B5C4B20D463A
:1043A00020460A21FDF732FB40EA0502D2B2204640
:1043B0000A21BDE83840FDF713BB10B50446FDF7F0
:1043C0000EFB20461F21FFF7E8FF2046BDE8104006
:1043D000FFF7C6BF38B5C4B20D4620460A21FDF727
:1043E00015FB20EA0502D2B220460A21BDE838407A
:1043F000FDF7F6BA10B50446FFF7C1FF20461F21AE
:10440000BDE81040FFF7E6BF10B5C0B20C460B2167
:10441000FDF7FCFA204010BD1F21FFF7F5BF0A464B
:10442000C0B20B21FDF7DCBA1F21FFF7F8BF38B58A
:10443000C4B20D4620461721FDF7E8FA20EA05022E
:10444000D2B220461721BDE83840FDF7C9BA70B591
:10445000C4B2064604212046FDF7D8FA042100F034
:10446000FB0205462046FDF7BBFA3046F021FFF778
:10447000DEFF05F0F80220460421FDF7B1FA4922DB
:1044800020212046FDF7ACFA0220FDF7EFFA204686
:1044900001222121FDF7A4FA20469A224121FDF7AD
:1044A0009FFA204601224A21FDF79AFA204601226E
:1044B0004B21FDF795FA204600224B21FDF790FA9B
:1044C000204601225621FDF78BFA20460122582171
:1044D000FDF786FA204601224021FDF781FA2046A9
:1044E000FF220B21FDF77CFABDE870400220FDF7AA
:1044F000BDBA0000054BD3F8882042F47002C3F81F
:1045000088204FF000629A60704700BF00ED00E025
:1045100008B50B4B1A6842F400721A601A6842F42C
:1045200080621A601A6842F480721A60032000F0F8
:1045300005FA0020FDF702FEFDF720FB002008BD74
:10454000003C0240034A044B11681B780B44136083
:10455000704700BF981900207C000020014B1868AC
:10456000704700BF9819002038B50446FFF7F6FFE2
:10457000631C1CBF054B1B78054618BFE418FFF7EA
:10458000EDFF431BA342FAD338BD00BF7C000020DF
:1045900038B50446002800F09B80056C25B9FDF76E
:1045A0000DFB656484F83C50236CDB0600F18E80C3
:1045B000236C23F4885323F0020343F002032364A3
:1045C000444B5A6822F440325A605A6861680A4380
:1045D0005A60236821695A6822F480725A605A68C6
:1045E00042EA01225A605A68A16822F040725A6079
:1045F0005A680A435A609A68E16822F400629A6035
:104600009A680A439A603449A26A8A4252D09968E9
:1046100021F07061996099680A439A609A68E16A2A
:1046200022F040529A609A680A439A609A6822F08F
:1046300002029A609A68217E42EA41029A6094F8E6
:104640002020002A3ED05A68616A42F400625A6013
:104650005A6822F460425A605A68013942EA41328B
:104660005A60DA6AE16922F47002DA62DA6A0139C0
:1046700042EA0152DA629A6822F400729A609A68F9
:1046800094F8301042EA41229A609A68616922F4F3
:1046900080629A609A68002042EA81229A6060648F
:1046A000236C23F0030343F001032364002384F805
:1046B0003C3038BD9A6822F070629A609A6822F0A5
:1046C0004052B2E75A6822F40062C9E70120EDE7E0
:1046D0000120EEE7002301400100000F7047704702
:1046E0007047036870B51E685D68B20704462BD535
:1046F000A80629D5226CD1065EBF226C42F4007256
:1047000022649A6812F0405F17D1227EAAB9DA6A51
:1047100012F4700F02D09A6852050ED45A6822F033
:1047200020025A60236C23F480732364236CD80422
:104730005EBF236C43F0010323642046FFF7CEFFE6
:1047400023686FF012021A60710733D52A0631D53B
:10475000236CDB065EBF236C43F4005323642368A1
:104760009A6812F4401F1ED19A6B12F4401F02D0B7
:104770009A68500517D45A68510514D49A6812F0F3
:10478000405F10D1227E72B95A6822F080025A60CE
:10479000236C23F480532364236CDA055EBF236CFF
:1047A00043F001032364204600F0C6F823686FF04D
:1047B0000C021A60F30710D568060ED523681B6833
:1047C000D9070AD5236C43F4803323642046FFF7CE
:1047D00086FF23686FF001021A60B2060ED56B01E6
:1047E0000CD5636C43F00203636423686FF020050B
:1047F0001D602046FFF774FF23681D6070BD000038
:10480000F7B50023019390F83C30012B054600F0EA
:104810008680012380F83C3008682B688E68092860
:1048200084B233D904EB4402DF681E3A4FF0070C20
:104830000CFA02FC27EA0C07DF60DF6806FA02F2D6
:104840003A43DA604968062901EB81022DD8596B99
:10485000053A1F26964021EA06015963596B04FA6E
:1048600002F20A435A632F4A93420AD1122837D1DF
:104870002D4B5A6822F400025A605A6842F48002B2
:104880005A60002085F83C0003B0F0BD1A6900EBC7
:10489000400C072707FA0CF722EA07021A611A6987
:1048A00006FA0CF616431E61CCE70C294FF01F01E7
:1048B0000BD81E6B233A914026EA01011963196B4C
:1048C00004FA02F20A431A63CDE7DE6A413A9140E4
:1048D00026EA0101D962D96A94400C43DC62C2E73E
:1048E000124B984201D01128CBD10F4B5A6822F4B9
:1048F00080025A605A6842F400025A600B4B984298
:10490000BFD10B4B0B4A1B68B3FBF2F30A22534394
:104910000193019B002BB4D0019B013BF8E70220DF
:10492000B2E700BF00200140002301401200001048
:104930007800002040420F00704700000749CA6815
:1049400022F4E0620302120403F4E063120C134346
:1049500043F0BF6343F40033CB60704700ED00E0E9
:10496000164B30B5DC68C4F30224C4F10703251DDF
:10497000042B28BF0423062D4FF0FF358CBF033CCA
:10498000002405FA03F321EA0303A54022EA050205
:10499000A340002843EA0203ACBF00F16040084A8C
:1049A0004FEA0313B8BF00F00F00DBB2AABF00F557
:1049B0006140135480F8003330BD00BF00ED00E0CB
:1049C00014ED00E0002807DB044A4109012300F050
:1049D0001F00834042F82130704700BF00E100E033
:1049E00010B5044650B1437903F0FF0213B90271C8
:1049F000FDF744F901236371002010BD0120FCE79D
:104A000010B5044620B390F8393003F0FF021BB90B
:104A100080F83820FDF74AF9022384F839302368FA
:104A200061681A6822F440320A431A605A6BA1681E
:104A300022F007020A435A631A6CE1686FF30D0211
:104A40000A431A6400200123E06384F8393010BD62
:104A50000120FCE770477047036870B55E681D6809
:104A6000F207044614D5E90512D51A6822F48072BB
:104A70001A60C26B42F00102C26301229A600423F1
:104A800080F83930002380F83830436903B1984703
:104A9000B20616D5AB0414D523681A6822F4005266
:104AA0001A6020229A60E36B43F00203E36304235D
:104AB00084F83930002384F8383063690BB120461C
:104AC0009847300716D5290514D523681A6822F4AB
:104AD00000621A6008229A60E36B43F00403E36308
:104AE000042384F83930002384F8383063690BB12B
:104AF0002046984772070BD56B0509D523681A68BD
:104B000022F480621A6004229A602046FFF7A2FF16
:104B1000B00714D5A90512D523681A6822F40072CB
:104B20001A6002229A60E36BE363012384F8393050
:104B3000002384F8383023690BB120469847F206E9
:104B400013D5EB0411D523681A6822F480521A6039
:104B500010229A60E36BE363012384F83930002369
:104B600084F838302046FFF776FF70BDF0B590F836
:104B70003820012A03464FF002002BD0012283F88F
:104B8000382083F8390003EB0112D2E90740556A57
:104B9000174E44EA0040093C012C9CBF05F07F42BF
:104BA00010434FEA01171A6888BF40EA056091B9BF
:104BB000516A314001435162012C9969916103D8D6
:104BC000596A21F07F4191620122002083F8392047
:104BD00083F83800F0BDD16931400143D161D91962
:104BE000012C896911619CBF25F07F451562EBE7B7
:104BF000F0FFFC002DE9F74FDFF8BC916C4A002371
:104C00000D6801249C4004EA0506AC4340F0B780DF
:104C10004D68032705F003044FEA430807FA08FC30
:104C2000671E012F6FEA0C0C34D8876807EA0C0E58
:104C3000CF6807FA08F747EA0E078760476827EA50
:104C4000060EC5F300179F4047EA0E074760C76886
:104C500007EA0C0E8F6807FA08F747EA0E07022CDE
:104C6000C76019D14FEAD30A00EB8A0A03F0070B99
:104C7000DAF820704FEA8B0B4FF00F0E0EFA0BFE96
:104C800027EA0E0E0F6907FA0BF747EA0E07CAF874
:104C9000207001E0032CDAD1076804FA08F407EA6F
:104CA0000C073C4315F4403F046068D00024019495
:104CB000D9F8444044F48044C9F84440D9F8444009
:104CC00023F0030707F1804704F4804407F59C377D
:104CD000019403F0030C019CD7F808E04FEA8C0C18
:104CE0000F2404FA0CF42EEA040E324CA0424DD0EC
:104CF00004F58064A0424BD004F58064A04249D002
:104D000004F58064A04247D004F58064A04245D0F9
:104D100004F58064A04243D004F58064A04241D0F1
:104D200004F58064A0423FD004F58064A0423DD0E9
:104D300004F58064A04214BF0A24092404FA0CF488
:104D400044EA0E04BC609468F74315F4801F0CBF5E
:104D50003C4034439460D46815F4001F0CBF3C40C1
:104D60003443D460546815F4003F0CBF3C403443D6
:104D700054601468ED0354BF3C4034431460013365
:104D8000102B7FF43DAF03B0BDE8F08F0024D5E7D2
:104D90000124D3E70224D1E70324CFE70424CDE79D
:104DA0000524CBE70624C9E70724C7E70824C5E79D
:104DB000003C014000000240003802400069084009
:104DC000003818BF012070470AB18161704709049B
:104DD000FBE7436901EA030221EA030141EA0241D8
:104DE0008161704770470000044A5169014208B56B
:104DF00002D05061FFF7F6FF08BD00BF003C014044
:104E000001684B6913F480634FF0000210D06FF417
:104E100080634B612023026380F83D3080F83E20A0
:104E2000036C80F83C2043F00403036401207047C6
:104E3000184670472DE9F84606460F4691461D462E
:104E40004FEA114A3368BAF1010F39D15C6927EA98
:104E50000404A4B2B4FA84F46409A14501D000208A
:104E600024E06A1CEFD0FFF779FB089BC01AA84228
:104E700001D8002DE6D1BAF1010F336818D15B6972
:104E800027EA03039BB2B3FA83F35B099945D9D1AF
:104E900000232022336386F83D2086F83E30326CB2
:104EA00086F83C3042F0200232640120BDE8F886EA
:104EB0009B69DB43C3F3400383F00103DBB2E5E707
:104EC0009C69E443C4F3400484F00104E4B2C4E701
:104ED0002DE9F04104460F46164698462568686954
:104EE00027EA000080B2C0B16B695A0517D52B685C
:104EF00043F400732B606FF480636B612022002306
:104F0000236384F83D2084F83E30236C43F004038F
:104F10002364002384F83C300120BDE8F081731C39
:104F2000DDD0FFF71BFBA0EB0800B04201D8002E3C
:104F3000D4D123685A6927EA020292B2002ACDD05E
:104F400000232022236384F83D2084F83E30236C24
:104F50001343DDE770B504460D46164623685B69CA
:104F60001B0601D500201EE02046FFF749FFC8B907
:104F70006A1CF3D0FFF7F2FA801BA84201D8002D7B
:104F8000ECD123685B6913F08003E7D1202223630F
:104F900084F83D2084F83E30226C84F83C3042F0A6
:104FA00020022264012070BD2DE9F04315460268FD
:104FB00085B0DDE90C789946136843F4807313607B
:104FC0000E463B46CDF8008000224FF0011104460A
:104FD000FFF730FF236838B11B68DB0502D54FF4BB
:104FE00000732364032620E006F0FE061E611A49C2
:104FF00043463A462046FFF76BFFA8B92368039063
:105000005A6903929B690393424639462046039BA3
:10501000FFF7A0FF064660B1236C042B01BF226896
:10502000136843F4007313600126304605B0BDE8F1
:10503000F083B9F1010F236802D1EDB21D61F4E7ED
:105040002A0A1A61394642462046FFF783FF0028A4
:10505000E2D12368F1E700BF020001002DE9FF471C
:105060009A46036815461A6842F480621A601A6804
:10507000DDE90C7842F480721A600E463B46CDF8AA
:10508000008000224FF001110446FFF7D3FE236891
:1050900038B11B68DB0544BF4FF400732364032061
:1050A00021E05FFA86F906F0FE061E612A494346B2
:1050B0003A462046FFF70CFFA0B9236803905A69CF
:1050C00003929B690393424639462046039BFFF7B0
:1050D00041FF58B1236C042B01BF2268136843F4CD
:1050E00000731360012004B0BDE8F087BAF1010F2E
:1050F00023681AD1EDB242461D6139462046FFF7BA
:1051000029FF02460028E5D121680B6843F480732B
:105110000B602046CDF800803B464FF00111FFF7B1
:1051200089FE226860B11368B4E72A0A1A61394619
:1051300042462046FFF70EFF0028CBD12368D9E76F
:1051400049F0010304491361204643463A4604B03E
:10515000BDE8F047FFF7BCBE0200010070B5044691
:105160000D46164623685B695B0701D500201EE0EB
:105170002046FFF745FEC8B96A1CF3D0FFF7EEF9E9
:10518000801BA84201D8002DECD123685B6913F085
:105190000403E7D12022236384F83D2084F83E30C5
:1051A000226C84F83C3042F020022264012070BD61
:1051B00070B504460D46164621684B6913F040034E
:1051C00001D0002011E04A69D2060FD56FF010021D
:1051D0004A612022236384F83D2084F83E30236C0A
:1051E0002364002384F83C30012070BDFFF7B6F93A
:1051F000801BA84201D8002DDED123685B6913F023
:105200004003D9D12022236384F83D2084F83E3026
:10521000236C1343E4E7000070B5044608B901208D
:1052200070BD90F83D3003F0FF021BB980F83C20C0
:10523000FCF75CFD242384F83D3023681A6822F0D3
:1052400001021A601A6842F400421A601A6822F4D5
:1052500000421A6000F04EFE3F4B65689D4294BFCD
:105260003E4B3F4B98428CBF00230123002BD6D1ED
:105270002268394E51683B4BB0FBF3F321F03F01FC
:105280001943B542516088BF4FF49676116A88BFC2
:10529000734321F03F0184BF4FF47A76B3FBF6F3FA
:1052A00001330B431362D169431E2B4821F44F4154
:1052B000854221F0FF0132D86D0040F6FC70B3FB4F
:1052C000F5F30133034242D0C3F30B031943D16119
:1052D000D4E907301168034321F0C0010B43136088
:1052E0009168D4E9030321F40341034321F0FF0152
:1052F0000B439360D4E90530D168034321F0FF01EB
:105300000B43D360136843F0010313600020202394
:10531000206484F83D30206384F83E0080E7A06874
:1053200050B905EB4505B3FBF5F30133C3F30B03AC
:105330007BB143F40043C9E719206843B3FBF0F3A2
:105340000133C3F30B0323B143F44043BEE704230B
:10535000BCE70123BAE700BFA08601007F841E00DE
:10536000FF083D0040420F002DE9F74304469946EF
:105370000C9E0F469046FFF7F1F894F83D30202B35
:10538000054603D0022003B0BDE8F08300903C49FD
:10539000192301222046FFF74DFD0028F2D194F891
:1053A0003C30012BEED02068012384F83C300368A8
:1053B000D9075EBF036843F001030360036823F469
:1053C00000630360212384F83D30402384F83E309D
:1053D000002323640A9B6362BDF82C306385638DD0
:1053E0002385284BE3624246CDE900654B463946AA
:1053F0002046FFF7D9FD00282AD00120C3E7FFF798
:10540000A9FD40B1236C042B01BF2268136843F44B
:1054100000731360F1E7636A27681A4612F8011BEC
:1054200039616262628D218D013A92B262857A6938
:10543000481E80B2520720850AD548B15A783A6191
:1054400002336362638D013B02399BB22185638520
:10545000238D2A4631462046002BD0D1FFF77EFE11
:105460000028CFD12268136843F40073136020230F
:1054700084F83D3084F83C0084F83E0083E700BFA8
:10548000020010000000FFFF2DE9F043044687B042
:105490009946109F0D469046FFF760F894F83D300E
:1054A000202B064604D00225284607B0BDE8F0832D
:1054B00000907949192301222046FFF7BBFC002800
:1054C000F1D194F83C30012BEDD02068012384F811
:1054D0003C300368DB075EBF036843F001030360F1
:1054E000036823F400630360222384F83D304023E3
:1054F00084F83E30002323640E9B6362BDF83C3089
:105500006385638D2385654BE3622946CDE900768B
:105510004B4642462046FFF7A1FD054608B101254E
:10552000C2E7228D2368A2B902905A6902929A6951
:105530000292029A1A6842F400721A60238D002BBC
:105540002CD1202284F83D2084F83C3084F83E3071
:10555000AAE7012A0AD11A6822F480621A6003902D
:105560005A6903929A690392039AE3E7022A0ED1D9
:105570001A6822F480621A601A6842F400621A60A3
:1055800004905A6904929B690493049BD6E70590A2
:105590005A6905929B690593059BCFE7032B56D863
:1055A000012B15D1324639462046FFF701FE00286F
:1055B000B5D123681A69636A1A70636A013363623A
:1055C000238D013B2385638D013B9BB26385B5E74A
:1055D000022B334900963B464FF00002204619D17A
:1055E000FFF728FC00289AD123681A6842F4007259
:1055F0001A601A69636A1A70626A531C6362238DA7
:10560000013B2385638D013B9BB2638523681B6946
:105610005370D2E7FFF70EFC024600287FF47FAFFD
:105620002368196821F4806119601969636A197027
:10563000636A1B4901336362238D013B2385638DBC
:10564000013B9BB26385204600963B46C8E7324645
:1056500039462046FFF7ACFD00287FF460AF236891
:105660001A69636A1A70628D616A013A92B24B1CC0
:10567000628522686362238D5069013B9BB24007BB
:1056800023857FF55BAF032B02BF136823F4806390
:10569000136013694B7090E7020010000000FFFFD9
:1056A0000400010010B590F83D30202BDCB216D17B
:1056B000242380F83D3003681A6822F001021A6042
:1056C0005A6A22F010025A625A6A114359621A68E1
:1056D00042F001021A6080F83D40002010BD022017
:1056E000FCE730B590F83D30202BDCB216D10268D3
:1056F000242380F83D30136823F001031360556ABA
:105700004FF6F0732B400B439BB25362136843F088
:105710000103136080F83D40002030BD0220FCE70B
:105720000068D20184328318F0B5C7685D684C68A0
:105730000E6805F470455D60C56806F1010CC5F39F
:105740000B45C7F30B472744654445EA07455D60B1
:10575000C768CD68C7F30A072F449D6805F47045F4
:105760009D60D0F80CC08D68CCF30A0C01356544FF
:1057700045EA07459D601D69D1F810C08F6925F085
:1057800007051D61C3F810C091F8305045EA076560
:1057900091F8317045EA072591F8327045EA0745DE
:1057A0009D615D6925F0FF055D614D695D61DD69A4
:1057B00025F4E06525F00705DD61D1E907573D4394
:1057C000DD61BCF1070F4D6A9D629CBF0D4D15F860
:1057D0000C70DD6A05F0E025DD6288BF01278D6A67
:1057E000C96AA41B7C437D43033444EA0544DC625C
:1057F0001C6B6FF30A041C631963835843F00103A5
:105800008350F0BD904F010838B5044600284ED0B3
:1058100090F8A13003F0FF021BB980F8A020FCF73C
:10582000C1FA022384F8A13023689A6922F07042F9
:105830009A61D4E901200243E06899690243206932
:1058400002430A439A61D4E9051242EA01429A608E
:10585000D4E9071242EA0142DA60D4E9091242EAC5
:1058600001421A61D4E90B1242EA01425A61DA6A32
:1058700094F8350094F8361002F07F42DA62DD6A5F
:1058800094F834202A4342EA002242EA0142DA62D2
:105890005A6B42F006025A639A6942F001029A6119
:1058A00000200123C4F8A40084F8A13038BD0120F1
:1058B000FCE770477047036870B59E6B5D6B7207BD
:1058C000044614D5690712D55A6B22F004025A63B4
:1058D0000422DA63D0F8A43043F00103C0F8A43006
:1058E000002380F8A12080F8A030FFF7E2FFB20784
:1058F00016D5AB0714D523685A6B22F002025A63FF
:105900000222DA63D4F8A4301343C4F8A430042389
:1059100084F8A130002384F8A0302046FFF7C9FFA7
:10592000F00710D5E9070ED523685A6B22F0010263
:105930005A630122DA63002384F8A12084F8A0309E
:105940002046FBF78DFC320711D52B070FD52368B6
:105950005A6B22F008025A630822DA63012384F8A2
:10596000A130002384F8A0302046FFF7A3FF70BDCC
:105970002DE9F04190F8A030012B06460F469446E1
:105980004FF002001FD04FF0010886F8A08086F883
:10599000A10034240D4604FB02640FCD38340FC43B
:1059A0000FCD0FC40FCD0FC42B6823603046624665
:1059B0003946FFF7B5FE33680020C3F8248086F827
:1059C000A18086F8A000BDE8F081000090F8A0203A
:1059D000012A03464FF0020012D01A6883F8A10092
:1059E000506B20F00100506306480164516B41F098
:1059F000010151630020012283F8A12083F8A00057
:105A0000704700BF006801402DE9F341044640B3F0
:105A10000368DE0710D423689D075BD42368190749
:105A200000F19D8023685A0700F1BD80A369002B17
:105A300040F0248100202CE08D4B9A6802F00C028B
:105A4000042A07D09A6802F00C02082A0BD15B687E
:105A5000590208D5864B1B689A03DCD56368002B76
:105A6000D9D1012015E06368814DB3F5803F13D192
:105A70002B6843F480332B60FEF770FD7C4E0546A7
:105A800033689B03C7D4FEF769FD401B6428F7D930
:105A9000032002B0BDE8F081B3F5A02F04D12B683C
:105AA00043F480232B60E3E72A6822F480322A60E3
:105AB0002A6822F480222A60002BDDD1FEF74EFDF9
:105AC00006462B689F03A6D5FEF748FD801B642879
:105AD000F7D9DDE7664B9A6812F00C0F07D09A6889
